{
  "contractName": "ERC721",
  "abi": [
    {
      "inputs": [],
      "stateMutability": "nonpayable",
      "type": "constructor"
    },
    {
      "anonymous": false,
      "inputs": [
        {
          "indexed": true,
          "internalType": "address",
          "name": "_owner",
          "type": "address"
        },
        {
          "indexed": true,
          "internalType": "address",
          "name": "_approved",
          "type": "address"
        },
        {
          "indexed": true,
          "internalType": "uint256",
          "name": "_tokenId",
          "type": "uint256"
        }
      ],
      "name": "Approval",
      "type": "event"
    },
    {
      "anonymous": false,
      "inputs": [
        {
          "indexed": true,
          "internalType": "address",
          "name": "_from",
          "type": "address"
        },
        {
          "indexed": true,
          "internalType": "address",
          "name": "_to",
          "type": "address"
        },
        {
          "indexed": true,
          "internalType": "uint256",
          "name": "_tokenId",
          "type": "uint256"
        }
      ],
      "name": "Transfer",
      "type": "event"
    },
    {
      "inputs": [
        {
          "internalType": "bytes4",
          "name": "interfaceID",
          "type": "bytes4"
        }
      ],
      "name": "supportsInterface",
      "outputs": [
        {
          "internalType": "bool",
          "name": "",
          "type": "bool"
        }
      ],
      "stateMutability": "view",
      "type": "function"
    },
    {
      "inputs": [
        {
          "internalType": "address",
          "name": "_owner",
          "type": "address"
        }
      ],
      "name": "balanceOf",
      "outputs": [
        {
          "internalType": "uint256",
          "name": "",
          "type": "uint256"
        }
      ],
      "stateMutability": "view",
      "type": "function"
    },
    {
      "inputs": [
        {
          "internalType": "uint256",
          "name": "_tokenId",
          "type": "uint256"
        }
      ],
      "name": "ownerOf",
      "outputs": [
        {
          "internalType": "address",
          "name": "",
          "type": "address"
        }
      ],
      "stateMutability": "view",
      "type": "function"
    },
    {
      "inputs": [
        {
          "internalType": "address",
          "name": "_from",
          "type": "address"
        },
        {
          "internalType": "address",
          "name": "_to",
          "type": "address"
        },
        {
          "internalType": "uint256",
          "name": "_tokenId",
          "type": "uint256"
        }
      ],
      "name": "transferFrom",
      "outputs": [],
      "stateMutability": "nonpayable",
      "type": "function"
    }
  ],
  "bytecode": "0x608060405234801561001057600080fd5b506100407f01ffc9a7a5cef8baa21ed3c5c0d7e23accb804b619e9333b597f47a0d84076e26100b860201b60201c565b6100b37f22c82707ba960a14c7592ffb6b8cfaa073fed0048a84cc7fa41f6b5bd8e7f2e47f3a6eb71757dfc6e784c1459d26270140c2c147d95ca985c80026fc5301c3eca17f8a7e378434598edc36d108689a030cbc9d7d465de4f74c71bae1028eed6a881b18186100b860201b60201c565b610209565b63ffffffff60e01b817bffffffffffffffffffffffffffffffffffffffffffffffffffffffff191603610120576040517f08c379a0000000000000000000000000000000000000000000000000000000008152600401610117906101e9565b60405180910390fd5b6001600080837bffffffffffffffffffffffffffffffffffffffffffffffffffffffff19167bffffffffffffffffffffffffffffffffffffffffffffffffffffffff1916815260200190815260200160002060006101000a81548160ff02191690831515021790555050565b600082825260208201905092915050565b7f496e76616c696420696e74657266616365207265717565737400000000000000600082015250565b60006101d360198361018c565b91506101de8261019d565b602082019050919050565b60006020820190508181036000830152610202816101c6565b9050919050565b6108e5806102186000396000f3fe608060405234801561001057600080fd5b506004361061004c5760003560e01c806301ffc9a71461005157806323b872dd146100815780636352211e1461009d57806370a08231146100cd575b600080fd5b61006b600480360381019061006691906104d0565b6100fd565b6040516100789190610518565b60405180910390f35b61009b600480360381019061009691906105c7565b610164565b005b6100b760048036038101906100b2919061061a565b610174565b6040516100c49190610656565b60405180910390f35b6100e760048036038101906100e29190610671565b610225565b6040516100f491906106ad565b60405180910390f35b6000806000837bffffffffffffffffffffffffffffffffffffffffffffffffffffffff19167bffffffffffffffffffffffffffffffffffffffffffffffffffffffff1916815260200190815260200160002060009054906101000a900460ff169050919050565b61016f8383836102dc565b505050565b6000806001600084815260200190815260200160002060009054906101000a900473ffffffffffffffffffffffffffffffffffffffff169050600073ffffffffffffffffffffffffffffffffffffffff168173ffffffffffffffffffffffffffffffffffffffff160361021c576040517f08c379a000000000000000000000000000000000000000000000000000000000815260040161021390610725565b60405180910390fd5b80915050919050565b60008073ffffffffffffffffffffffffffffffffffffffff168273ffffffffffffffffffffffffffffffffffffffff1603610295576040517f08c379a000000000000000000000000000000000000000000000000000000000815260040161028c906107b7565b60405180910390fd5b600260008373ffffffffffffffffffffffffffffffffffffffff1673ffffffffffffffffffffffffffffffffffffffff168152602001908152602001600020549050919050565b600073ffffffffffffffffffffffffffffffffffffffff168273ffffffffffffffffffffffffffffffffffffffff160361034b576040517f08c379a000000000000000000000000000000000000000000000000000000000815260040161034290610823565b60405180910390fd5b8273ffffffffffffffffffffffffffffffffffffffff1661036b82610174565b73ffffffffffffffffffffffffffffffffffffffff16146103c1576040517f08c379a00000000000000000000000000000000000000000000000000000000081526004016103b89061088f565b60405180910390fd5b816001600083815260200190815260200160002060006101000a81548173ffffffffffffffffffffffffffffffffffffffff021916908373ffffffffffffffffffffffffffffffffffffffff160217905550808273ffffffffffffffffffffffffffffffffffffffff168473ffffffffffffffffffffffffffffffffffffffff167fddf252ad1be2c89b69c2b068fc378daa952ba7f163c4a11628f55a4df523b3ef60405160405180910390a4505050565b600080fd5b60007fffffffff0000000000000000000000000000000000000000000000000000000082169050919050565b6104ad81610478565b81146104b857600080fd5b50565b6000813590506104ca816104a4565b92915050565b6000602082840312156104e6576104e5610473565b5b60006104f4848285016104bb565b91505092915050565b60008115159050919050565b610512816104fd565b82525050565b600060208201905061052d6000830184610509565b92915050565b600073ffffffffffffffffffffffffffffffffffffffff82169050919050565b600061055e82610533565b9050919050565b61056e81610553565b811461057957600080fd5b50565b60008135905061058b81610565565b92915050565b6000819050919050565b6105a481610591565b81146105af57600080fd5b50565b6000813590506105c18161059b565b92915050565b6000806000606084860312156105e0576105df610473565b5b60006105ee8682870161057c565b93505060206105ff8682870161057c565b9250506040610610868287016105b2565b9150509250925092565b6000602082840312156106305761062f610473565b5b600061063e848285016105b2565b91505092915050565b61065081610553565b82525050565b600060208201905061066b6000830184610647565b92915050565b60006020828403121561068757610686610473565b5b60006106958482850161057c565b91505092915050565b6106a781610591565b82525050565b60006020820190506106c2600083018461069e565b92915050565b600082825260208201905092915050565b7f4552433732313a20746f6b656e20646f65736e74206578697374000000000000600082015250565b600061070f601a836106c8565b915061071a826106d9565b602082019050919050565b6000602082019050818103600083015261073e81610702565b9050919050565b7f4552433732313a206f776e657220717565727920666f72207a65726f2061646460008201527f7265737300000000000000000000000000000000000000000000000000000000602082015250565b60006107a16024836106c8565b91506107ac82610745565b604082019050919050565b600060208201905081810360008301526107d081610794565b9050919050565b7f646f6e74207472616e7366657220746f207a65726f2061646472657373000000600082015250565b600061080d601d836106c8565b9150610818826107d7565b602082019050919050565b6000602082019050818103600083015261083c81610800565b9050919050565b7f63616e6e6f74207472616e7366657220746f206f776e20616464726573730000600082015250565b6000610879601e836106c8565b915061088482610843565b602082019050919050565b600060208201905081810360008301526108a88161086c565b905091905056fea264697066735822122034564aa7695c2bc8ed54a8f02542b91d765633be901bcf2f9b764a5b0676a7e364736f6c634300080f0033",
  "immutableReferences": {},
  "source": "// SPDX-License-Identifier: Unlicencd\npragma solidity ^0.8.0;\n\nimport './libraries/Counters.sol';\nimport './ERC165.sol';\nimport './interfaces/IERC721.sol';\n\n/**\nMint\n    a. NFTAddress\n    b. TokenID\n    c. TokenOwnerAddressTokenIDS\n    d. AddressTokenID\n    e. TransferAddressMintEmit\n */\n\ncontract ERC721 is ERC165, IERC721 {\n\n    //event Transfer(address from, address to, uint256 tokenId);\n\n    // TokenIDOwner\n    mapping(uint256 => address) private _tokenOwner;\n\n    mapping(address => uint256) private _OwnedTokensCount;\n\n    // TokenIDApproved\n    mapping(uint256 => address) private _tokenApprovals;\n\n    // InterfaceId\n    constructor() {\n        _registerInterface(bytes4(\n            keccak256('balanceOf(bytes4)')^\n            keccak256('ownerOf(bytes4)')^\n            keccak256('transferFrom(bytes4)')\n        ));\n    }\n\n    // NFT\n    function balanceOf(address _owner) public override view returns(uint256) {\n        require(_owner != address(0), 'ERC721: owner query for zero address');\n        return _OwnedTokensCount[_owner];\n    }\n\n    // \n    function ownerOf(uint256 _tokenId) public override view returns(address){\n        address owner = _tokenOwner[_tokenId];\n        // require(_exists(_tokenId), 'ERC721: token doesnt exist');\n        // return _tokenOwner[_tokenId];\n        // \n\n        require(owner != address(0), 'ERC721: token doesnt exist');\n        return owner;\n    }\n\n    // Token\n    function _exists(uint256 tokenId) internal view returns(bool){\n        address owner = _tokenOwner[tokenId];\n        // \n        return owner != address(0);\n    }\n\n    // NFTMint\n    function _mint(address to, uint256 tokenId) internal virtual {\n        // Zero\n        require(to != address(0), 'ERC721: minting zero address');\n        // Token\n        require(!_exists(tokenId), 'ERC721: token is already minted');\n\n        // TokenOwnerTo\n        _tokenOwner[tokenId] = to;\n        // To\n        _OwnedTokensCount[to] += 1;\n\n        // Event\n        emit Transfer(address(0), to, tokenId);\n    }\n\n    function _transferFrom(address _from, address _to, uint256 _tokenId) internal {\n        require(_to != address(0), 'dont transfer to zero address');\n        require(ownerOf(_tokenId) == _from, 'cannot transfer to own address');\n\n        // IDTokenTo\n        _tokenOwner[_tokenId] = _to;\n\n        emit Transfer(_from, _to, _tokenId);\n    }\n\n    function transferFrom(address _from, address _to, uint256 _tokenId) public override{\n        _transferFrom(_from, _to, _tokenId);\n    }\n}",
  "sourcePath": "/Users/takagihrs/Desktop/MyProject/dapp/nft-marketplace/src/contracts/ERC721.sol",
  "compiler": {
    "name": "solc",
    "version": "0.8.15+commit.e14f2714.Emscripten.clang"
  },
  "schemaVersion": "3.4.7",
  "updatedAt": "2022-06-22T13:31:17.697Z",
  "devdoc": {
    "kind": "dev",
    "methods": {
      "balanceOf(address)": {
        "details": "NFTs assigned to the zero address are considered invalid, and this  function throws for queries about the zero address.",
        "params": {
          "_owner": "An address for whom to query the balance"
        },
        "returns": {
          "_0": "The number of NFTs owned by `_owner`, possibly zero"
        }
      },
      "ownerOf(uint256)": {
        "details": "NFTs assigned to zero address are considered invalid, and queries  about them do throw.",
        "params": {
          "_tokenId": "The identifier for an NFT"
        },
        "returns": {
          "_0": "The address of the owner of the NFT"
        }
      },
      "supportsInterface(bytes4)": {
        "details": "Interface identification is specified in ERC-165. This function  uses less than 30,000 gas.",
        "params": {
          "interfaceID": "The interface identifier, as specified in ERC-165"
        },
        "returns": {
          "_0": "`true` if the contract implements `interfaceID` and  `interfaceID` is not 0xffffffff, `false` otherwise"
        }
      },
      "transferFrom(address,address,uint256)": {
        "params": {
          "_from": "An address for whoes currentlly owns the token",
          "_to": "An address for whoes going to own the token",
          "_tokenId": "an Id of the token that going to be transfered"
        }
      }
    },
    "version": 1
  },
  "userdoc": {
    "kind": "user",
    "methods": {
      "balanceOf(address)": {
        "notice": "Count all NFTs assigned to an owner"
      },
      "ownerOf(uint256)": {
        "notice": "Find the owner of an NFT"
      },
      "supportsInterface(bytes4)": {
        "notice": "Query if a contract implements an interface"
      },
      "transferFrom(address,address,uint256)": {
        "notice": "Transfer specify token to specify address"
      }
    },
    "notice": "Mint a. NFTAddress b. TokenID c. TokenOwnerAddressTokenIDS d. AddressTokenID e. TransferAddressMintEmit",
    "version": 1
  }
}