{
  "contractName": "ERC721Enumerable",
  "abi": [
    {
      "anonymous": false,
      "inputs": [
        {
          "indexed": false,
          "internalType": "address",
          "name": "from",
          "type": "address"
        },
        {
          "indexed": false,
          "internalType": "address",
          "name": "to",
          "type": "address"
        },
        {
          "indexed": false,
          "internalType": "uint256",
          "name": "tokenId",
          "type": "uint256"
        }
      ],
      "name": "Transfer",
      "type": "event"
    },
    {
      "inputs": [
        {
          "internalType": "address",
          "name": "_owner",
          "type": "address"
        }
      ],
      "name": "balanceOf",
      "outputs": [
        {
          "internalType": "uint256",
          "name": "",
          "type": "uint256"
        }
      ],
      "stateMutability": "view",
      "type": "function"
    },
    {
      "inputs": [
        {
          "internalType": "uint256",
          "name": "_tokenId",
          "type": "uint256"
        }
      ],
      "name": "ownerOf",
      "outputs": [
        {
          "internalType": "address",
          "name": "",
          "type": "address"
        }
      ],
      "stateMutability": "view",
      "type": "function"
    },
    {
      "inputs": [
        {
          "internalType": "address",
          "name": "_from",
          "type": "address"
        },
        {
          "internalType": "address",
          "name": "_to",
          "type": "address"
        },
        {
          "internalType": "uint256",
          "name": "_tokenId",
          "type": "uint256"
        }
      ],
      "name": "transferFrom",
      "outputs": [],
      "stateMutability": "nonpayable",
      "type": "function"
    },
    {
      "inputs": [],
      "name": "totalSupply",
      "outputs": [
        {
          "internalType": "uint256",
          "name": "",
          "type": "uint256"
        }
      ],
      "stateMutability": "view",
      "type": "function"
    },
    {
      "inputs": [
        {
          "internalType": "uint256",
          "name": "index",
          "type": "uint256"
        }
      ],
      "name": "tokenByIndex",
      "outputs": [
        {
          "internalType": "uint256",
          "name": "",
          "type": "uint256"
        }
      ],
      "stateMutability": "view",
      "type": "function"
    },
    {
      "inputs": [
        {
          "internalType": "address",
          "name": "owner",
          "type": "address"
        },
        {
          "internalType": "uint256",
          "name": "index",
          "type": "uint256"
        }
      ],
      "name": "tokenOfOwnerByIndex",
      "outputs": [
        {
          "internalType": "uint256",
          "name": "",
          "type": "uint256"
        }
      ],
      "stateMutability": "view",
      "type": "function"
    }
  ],
  "bytecode": "0x608060405234801561001057600080fd5b50610afd806100206000396000f3fe608060405234801561001057600080fd5b50600436106100625760003560e01c806318160ddd1461006757806323b872dd146100855780632f745c59146100a15780634f6ccce7146100d15780636352211e1461010157806370a0823114610131575b600080fd5b61006f610161565b60405161007c9190610595565b60405180910390f35b61009f600480360381019061009a919061063f565b61016e565b005b6100bb60048036038101906100b69190610692565b61017e565b6040516100c89190610595565b60405180910390f35b6100eb60048036038101906100e691906106d2565b61022e565b6040516100f89190610595565b60405180910390f35b61011b600480360381019061011691906106d2565b61029f565b604051610128919061070e565b60405180910390f35b61014b60048036038101906101469190610729565b61034f565b6040516101589190610595565b60405180910390f35b6000600380549050905090565b610179838383610406565b505050565b60006101898361034f565b82106101ca576040517f08c379a00000000000000000000000000000000000000000000000000000000081526004016101c1906107d9565b60405180910390fd5b600560008473ffffffffffffffffffffffffffffffffffffffff1673ffffffffffffffffffffffffffffffffffffffff168152602001908152602001600020828154811061021b5761021a6107f9565b5b9060005260206000200154905092915050565b6000610238610161565b8210610279576040517f08c379a00000000000000000000000000000000000000000000000000000000081526004016102709061089a565b60405180910390fd5b6003828154811061028d5761028c6107f9565b5b90600052602060002001549050919050565b60008060008084815260200190815260200160002060009054906101000a900473ffffffffffffffffffffffffffffffffffffffff169050600073ffffffffffffffffffffffffffffffffffffffff168173ffffffffffffffffffffffffffffffffffffffff1603610346576040517f08c379a000000000000000000000000000000000000000000000000000000000815260040161033d90610906565b60405180910390fd5b80915050919050565b60008073ffffffffffffffffffffffffffffffffffffffff168273ffffffffffffffffffffffffffffffffffffffff16036103bf576040517f08c379a00000000000000000000000000000000000000000000000000000000081526004016103b690610998565b60405180910390fd5b600160008373ffffffffffffffffffffffffffffffffffffffff1673ffffffffffffffffffffffffffffffffffffffff168152602001908152602001600020549050919050565b600073ffffffffffffffffffffffffffffffffffffffff168273ffffffffffffffffffffffffffffffffffffffff1603610475576040517f08c379a000000000000000000000000000000000000000000000000000000000815260040161046c90610a04565b60405180910390fd5b8273ffffffffffffffffffffffffffffffffffffffff166104958261029f565b73ffffffffffffffffffffffffffffffffffffffff16146104eb576040517f08c379a00000000000000000000000000000000000000000000000000000000081526004016104e290610a70565b60405180910390fd5b8160008083815260200190815260200160002060006101000a81548173ffffffffffffffffffffffffffffffffffffffff021916908373ffffffffffffffffffffffffffffffffffffffff1602179055507fddf252ad1be2c89b69c2b068fc378daa952ba7f163c4a11628f55a4df523b3ef83838360405161056f93929190610a90565b60405180910390a1505050565b6000819050919050565b61058f8161057c565b82525050565b60006020820190506105aa6000830184610586565b92915050565b600080fd5b600073ffffffffffffffffffffffffffffffffffffffff82169050919050565b60006105e0826105b5565b9050919050565b6105f0816105d5565b81146105fb57600080fd5b50565b60008135905061060d816105e7565b92915050565b61061c8161057c565b811461062757600080fd5b50565b60008135905061063981610613565b92915050565b600080600060608486031215610658576106576105b0565b5b6000610666868287016105fe565b9350506020610677868287016105fe565b92505060406106888682870161062a565b9150509250925092565b600080604083850312156106a9576106a86105b0565b5b60006106b7858286016105fe565b92505060206106c88582860161062a565b9150509250929050565b6000602082840312156106e8576106e76105b0565b5b60006106f68482850161062a565b91505092915050565b610708816105d5565b82525050565b600060208201905061072360008301846106ff565b92915050565b60006020828403121561073f5761073e6105b0565b5b600061074d848285016105fe565b91505092915050565b600082825260208201905092915050565b7f455243373231456e756d657261626c653a206f776e657220696e64657820697360008201527f206f7574206f6620626f756e6473000000000000000000000000000000000000602082015250565b60006107c3602e83610756565b91506107ce82610767565b604082019050919050565b600060208201905081810360008301526107f2816107b6565b9050919050565b7f4e487b7100000000000000000000000000000000000000000000000000000000600052603260045260246000fd5b7f455243373231456e756d657261626c653a20676c6f62616c20696e646578206960008201527f73206f7574206f6620626f756e64730000000000000000000000000000000000602082015250565b6000610884602f83610756565b915061088f82610828565b604082019050919050565b600060208201905081810360008301526108b381610877565b9050919050565b7f4552433732313a20746f6b656e20646f65736e74206578697374000000000000600082015250565b60006108f0601a83610756565b91506108fb826108ba565b602082019050919050565b6000602082019050818103600083015261091f816108e3565b9050919050565b7f4552433732313a206f776e657220717565727920666f72207a65726f2061646460008201527f7265737300000000000000000000000000000000000000000000000000000000602082015250565b6000610982602483610756565b915061098d82610926565b604082019050919050565b600060208201905081810360008301526109b181610975565b9050919050565b7f646f6e74207472616e7366657220746f207a65726f2061646472657373000000600082015250565b60006109ee601d83610756565b91506109f9826109b8565b602082019050919050565b60006020820190508181036000830152610a1d816109e1565b9050919050565b7f63616e6e6f74207472616e7366657220746f206f776e20616464726573730000600082015250565b6000610a5a601e83610756565b9150610a6582610a24565b602082019050919050565b60006020820190508181036000830152610a8981610a4d565b9050919050565b6000606082019050610aa560008301866106ff565b610ab260208301856106ff565b610abf6040830184610586565b94935050505056fea2646970667358221220690c7370ad88a3490a82e9431f7a1cf3f573f8e3921bca25a34a62d4c3a0cdb464736f6c634300080f0033",
  "immutableReferences": {},
  "source": "// SPDX-License-Identifier: Unlicencd\npragma solidity ^0.8.0;\n\nimport './ERC721.sol';\n\ncontract ERC721Enumerable is ERC721 {\n\n    uint256[] private _allTokens;\n\n    mapping(uint256 => uint256) private _allTokensIndex;\n\n    mapping(address => uint256[]) private _ownedTokens;\n\n    mapping(uint256 => uint256) private _ownedTokensIndex;\n\n    // MintNFTMintPush\n    function _mint(address to, uint256 tokenId) internal override(ERC721) {\n        super._mint(to, tokenId);\n\n        // \n        _addTokensToAllTokenEnumeration(tokenId);\n        _addTokensToOwnerEnumeration(to, tokenId);\n    }\n\n    // TokenAllTokens\n    function _addTokensToAllTokenEnumeration(uint256 tokenId) private {\n        _allTokensIndex[tokenId] = _allTokens.length;\n        _allTokens.push(tokenId);\n    }\n\n    // TokenOwnerToken\n    function _addTokensToOwnerEnumeration(address to, uint256 tokenId) private {\n        _ownedTokensIndex[tokenId] = _ownedTokens[to].length;\n        _ownedTokens[to].push(tokenId);\n    }\n\n    // Token\n    function totalSupply() public view returns (uint256){\n        return _allTokens.length;\n    }\n\n    // IndexToken\n    function tokenByIndex(uint256 index) external view returns(uint256){\n        require(index < totalSupply(), 'ERC721Enumerable: global index is out of bounds');\n        return _allTokens[index];\n    }\n\n    // indexOwnerToken\n    function tokenOfOwnerByIndex(address owner, uint index) public view returns (uint256){\n        require(index < balanceOf(owner), 'ERC721Enumerable: owner index is out of bounds''');\n        return _ownedTokens[owner][index];\n    }\n}",
  "sourcePath": "/Users/takagihrs/Desktop/MyProject/dapp/nft-marketplace/src/contracts/ERC721Enumerable.sol",
  "compiler": {
    "name": "solc",
    "version": "0.8.15+commit.e14f2714.Emscripten.clang"
  },
  "schemaVersion": "3.4.7",
  "updatedAt": "2022-06-19T13:44:45.972Z",
  "devdoc": {
    "kind": "dev",
    "methods": {},
    "version": 1
  },
  "userdoc": {
    "kind": "user",
    "methods": {},
    "version": 1
  }
}