{
  "contractName": "ERC721Connector",
  "abi": [
    {
      "inputs": [
        {
          "internalType": "string",
          "name": "name",
          "type": "string"
        },
        {
          "internalType": "string",
          "name": "symbol",
          "type": "string"
        }
      ],
      "stateMutability": "nonpayable",
      "type": "constructor"
    },
    {
      "anonymous": false,
      "inputs": [
        {
          "indexed": false,
          "internalType": "address",
          "name": "from",
          "type": "address"
        },
        {
          "indexed": false,
          "internalType": "address",
          "name": "to",
          "type": "address"
        },
        {
          "indexed": false,
          "internalType": "uint256",
          "name": "tokenId",
          "type": "uint256"
        }
      ],
      "name": "Transfer",
      "type": "event"
    },
    {
      "inputs": [
        {
          "internalType": "address",
          "name": "_owner",
          "type": "address"
        }
      ],
      "name": "balanceOf",
      "outputs": [
        {
          "internalType": "uint256",
          "name": "",
          "type": "uint256"
        }
      ],
      "stateMutability": "view",
      "type": "function"
    },
    {
      "inputs": [],
      "name": "name",
      "outputs": [
        {
          "internalType": "string",
          "name": "",
          "type": "string"
        }
      ],
      "stateMutability": "view",
      "type": "function"
    },
    {
      "inputs": [
        {
          "internalType": "uint256",
          "name": "_tokenId",
          "type": "uint256"
        }
      ],
      "name": "ownerOf",
      "outputs": [
        {
          "internalType": "address",
          "name": "",
          "type": "address"
        }
      ],
      "stateMutability": "view",
      "type": "function"
    },
    {
      "inputs": [],
      "name": "symbol",
      "outputs": [
        {
          "internalType": "string",
          "name": "",
          "type": "string"
        }
      ],
      "stateMutability": "view",
      "type": "function"
    },
    {
      "inputs": [
        {
          "internalType": "uint256",
          "name": "index",
          "type": "uint256"
        }
      ],
      "name": "tokenByIndex",
      "outputs": [
        {
          "internalType": "uint256",
          "name": "",
          "type": "uint256"
        }
      ],
      "stateMutability": "view",
      "type": "function"
    },
    {
      "inputs": [
        {
          "internalType": "address",
          "name": "owner",
          "type": "address"
        },
        {
          "internalType": "uint256",
          "name": "index",
          "type": "uint256"
        }
      ],
      "name": "tokenOfOwnerByIndex",
      "outputs": [
        {
          "internalType": "uint256",
          "name": "",
          "type": "uint256"
        }
      ],
      "stateMutability": "view",
      "type": "function"
    },
    {
      "inputs": [],
      "name": "totalSupply",
      "outputs": [
        {
          "internalType": "uint256",
          "name": "",
          "type": "uint256"
        }
      ],
      "stateMutability": "view",
      "type": "function"
    },
    {
      "inputs": [
        {
          "internalType": "address",
          "name": "_from",
          "type": "address"
        },
        {
          "internalType": "address",
          "name": "_to",
          "type": "address"
        },
        {
          "internalType": "uint256",
          "name": "_tokenId",
          "type": "uint256"
        }
      ],
      "name": "transferFrom",
      "outputs": [],
      "stateMutability": "nonpayable",
      "type": "function"
    }
  ],
  "bytecode": "0x60806040523480156200001157600080fd5b506040516200135a3803806200135a833981810160405281019062000037919062000204565b818181600090816200004a9190620004d4565b5080600190816200005c9190620004d4565b5050505050620005bb565b6000604051905090565b600080fd5b600080fd5b600080fd5b600080fd5b6000601f19601f8301169050919050565b7f4e487b7100000000000000000000000000000000000000000000000000000000600052604160045260246000fd5b620000d08262000085565b810181811067ffffffffffffffff82111715620000f257620000f162000096565b5b80604052505050565b60006200010762000067565b9050620001158282620000c5565b919050565b600067ffffffffffffffff82111562000138576200013762000096565b5b620001438262000085565b9050602081019050919050565b60005b838110156200017057808201518184015260208101905062000153565b8381111562000180576000848401525b50505050565b60006200019d62000197846200011a565b620000fb565b905082815260208101848484011115620001bc57620001bb62000080565b5b620001c984828562000150565b509392505050565b600082601f830112620001e957620001e86200007b565b5b8151620001fb84826020860162000186565b91505092915050565b600080604083850312156200021e576200021d62000071565b5b600083015167ffffffffffffffff8111156200023f576200023e62000076565b5b6200024d85828601620001d1565b925050602083015167ffffffffffffffff81111562000271576200027062000076565b5b6200027f85828601620001d1565b9150509250929050565b600081519050919050565b7f4e487b7100000000000000000000000000000000000000000000000000000000600052602260045260246000fd5b60006002820490506001821680620002dc57607f821691505b602082108103620002f257620002f162000294565b5b50919050565b60008190508160005260206000209050919050565b60006020601f8301049050919050565b600082821b905092915050565b6000600883026200035c7fffffffffffffffffffffffffffffffffffffffffffffffffffffffffffffffff826200031d565b6200036886836200031d565b95508019841693508086168417925050509392505050565b6000819050919050565b6000819050919050565b6000620003b5620003af620003a98462000380565b6200038a565b62000380565b9050919050565b6000819050919050565b620003d18362000394565b620003e9620003e082620003bc565b8484546200032a565b825550505050565b600090565b62000400620003f1565b6200040d818484620003c6565b505050565b5b81811015620004355762000429600082620003f6565b60018101905062000413565b5050565b601f82111562000484576200044e81620002f8565b62000459846200030d565b8101602085101562000469578190505b6200048162000478856200030d565b83018262000412565b50505b505050565b600082821c905092915050565b6000620004a96000198460080262000489565b1980831691505092915050565b6000620004c4838362000496565b9150826002028217905092915050565b620004df8262000289565b67ffffffffffffffff811115620004fb57620004fa62000096565b5b620005078254620002c3565b6200051482828562000439565b600060209050601f8311600181146200054c576000841562000537578287015190505b620005438582620004b6565b865550620005b3565b601f1984166200055c86620002f8565b60005b8281101562000586578489015182556001820191506020850194506020810190506200055f565b86831015620005a65784890151620005a2601f89168262000496565b8355505b6001600288020188555050505b505050505050565b610d8f80620005cb6000396000f3fe608060405234801561001057600080fd5b50600436106100885760003560e01c80634f6ccce71161005b5780634f6ccce7146101155780636352211e1461014557806370a082311461017557806395d89b41146101a557610088565b806306fdde031461008d57806318160ddd146100ab57806323b872dd146100c95780632f745c59146100e5575b600080fd5b6100956101c3565b6040516100a2919061079d565b60405180910390f35b6100b3610255565b6040516100c091906107d8565b60405180910390f35b6100e360048036038101906100de9190610882565b610262565b005b6100ff60048036038101906100fa91906108d5565b610272565b60405161010c91906107d8565b60405180910390f35b61012f600480360381019061012a9190610915565b610322565b60405161013c91906107d8565b60405180910390f35b61015f600480360381019061015a9190610915565b610393565b60405161016c9190610951565b60405180910390f35b61018f600480360381019061018a919061096c565b610444565b60405161019c91906107d8565b60405180910390f35b6101ad6104fb565b6040516101ba919061079d565b60405180910390f35b6060600080546101d2906109c8565b80601f01602080910402602001604051908101604052809291908181526020018280546101fe906109c8565b801561024b5780601f106102205761010080835404028352916020019161024b565b820191906000526020600020905b81548152906001019060200180831161022e57829003601f168201915b5050505050905090565b6000600580549050905090565b61026d83838361058d565b505050565b600061027d83610444565b82106102be576040517f08c379a00000000000000000000000000000000000000000000000000000000081526004016102b590610a6b565b60405180910390fd5b600760008473ffffffffffffffffffffffffffffffffffffffff1673ffffffffffffffffffffffffffffffffffffffff168152602001908152602001600020828154811061030f5761030e610a8b565b5b9060005260206000200154905092915050565b600061032c610255565b821061036d576040517f08c379a000000000000000000000000000000000000000000000000000000000815260040161036490610b2c565b60405180910390fd5b6005828154811061038157610380610a8b565b5b90600052602060002001549050919050565b6000806002600084815260200190815260200160002060009054906101000a900473ffffffffffffffffffffffffffffffffffffffff169050600073ffffffffffffffffffffffffffffffffffffffff168173ffffffffffffffffffffffffffffffffffffffff160361043b576040517f08c379a000000000000000000000000000000000000000000000000000000000815260040161043290610b98565b60405180910390fd5b80915050919050565b60008073ffffffffffffffffffffffffffffffffffffffff168273ffffffffffffffffffffffffffffffffffffffff16036104b4576040517f08c379a00000000000000000000000000000000000000000000000000000000081526004016104ab90610c2a565b60405180910390fd5b600360008373ffffffffffffffffffffffffffffffffffffffff1673ffffffffffffffffffffffffffffffffffffffff168152602001908152602001600020549050919050565b60606001805461050a906109c8565b80601f0160208091040260200160405190810160405280929190818152602001828054610536906109c8565b80156105835780601f1061055857610100808354040283529160200191610583565b820191906000526020600020905b81548152906001019060200180831161056657829003601f168201915b5050505050905090565b600073ffffffffffffffffffffffffffffffffffffffff168273ffffffffffffffffffffffffffffffffffffffff16036105fc576040517f08c379a00000000000000000000000000000000000000000000000000000000081526004016105f390610c96565b60405180910390fd5b8273ffffffffffffffffffffffffffffffffffffffff1661061c82610393565b73ffffffffffffffffffffffffffffffffffffffff1614610672576040517f08c379a000000000000000000000000000000000000000000000000000000000815260040161066990610d02565b60405180910390fd5b816002600083815260200190815260200160002060006101000a81548173ffffffffffffffffffffffffffffffffffffffff021916908373ffffffffffffffffffffffffffffffffffffffff1602179055507fddf252ad1be2c89b69c2b068fc378daa952ba7f163c4a11628f55a4df523b3ef8383836040516106f793929190610d22565b60405180910390a1505050565b600081519050919050565b600082825260208201905092915050565b60005b8381101561073e578082015181840152602081019050610723565b8381111561074d576000848401525b50505050565b6000601f19601f8301169050919050565b600061076f82610704565b610779818561070f565b9350610789818560208601610720565b61079281610753565b840191505092915050565b600060208201905081810360008301526107b78184610764565b905092915050565b6000819050919050565b6107d2816107bf565b82525050565b60006020820190506107ed60008301846107c9565b92915050565b600080fd5b600073ffffffffffffffffffffffffffffffffffffffff82169050919050565b6000610823826107f8565b9050919050565b61083381610818565b811461083e57600080fd5b50565b6000813590506108508161082a565b92915050565b61085f816107bf565b811461086a57600080fd5b50565b60008135905061087c81610856565b92915050565b60008060006060848603121561089b5761089a6107f3565b5b60006108a986828701610841565b93505060206108ba86828701610841565b92505060406108cb8682870161086d565b9150509250925092565b600080604083850312156108ec576108eb6107f3565b5b60006108fa85828601610841565b925050602061090b8582860161086d565b9150509250929050565b60006020828403121561092b5761092a6107f3565b5b60006109398482850161086d565b91505092915050565b61094b81610818565b82525050565b60006020820190506109666000830184610942565b92915050565b600060208284031215610982576109816107f3565b5b600061099084828501610841565b91505092915050565b7f4e487b7100000000000000000000000000000000000000000000000000000000600052602260045260246000fd5b600060028204905060018216806109e057607f821691505b6020821081036109f3576109f2610999565b5b50919050565b7f455243373231456e756d657261626c653a206f776e657220696e64657820697360008201527f206f7574206f6620626f756e6473000000000000000000000000000000000000602082015250565b6000610a55602e8361070f565b9150610a60826109f9565b604082019050919050565b60006020820190508181036000830152610a8481610a48565b9050919050565b7f4e487b7100000000000000000000000000000000000000000000000000000000600052603260045260246000fd5b7f455243373231456e756d657261626c653a20676c6f62616c20696e646578206960008201527f73206f7574206f6620626f756e64730000000000000000000000000000000000602082015250565b6000610b16602f8361070f565b9150610b2182610aba565b604082019050919050565b60006020820190508181036000830152610b4581610b09565b9050919050565b7f4552433732313a20746f6b656e20646f65736e74206578697374000000000000600082015250565b6000610b82601a8361070f565b9150610b8d82610b4c565b602082019050919050565b60006020820190508181036000830152610bb181610b75565b9050919050565b7f4552433732313a206f776e657220717565727920666f72207a65726f2061646460008201527f7265737300000000000000000000000000000000000000000000000000000000602082015250565b6000610c1460248361070f565b9150610c1f82610bb8565b604082019050919050565b60006020820190508181036000830152610c4381610c07565b9050919050565b7f646f6e74207472616e7366657220746f207a65726f2061646472657373000000600082015250565b6000610c80601d8361070f565b9150610c8b82610c4a565b602082019050919050565b60006020820190508181036000830152610caf81610c73565b9050919050565b7f63616e6e6f74207472616e7366657220746f206f776e20616464726573730000600082015250565b6000610cec601e8361070f565b9150610cf782610cb6565b602082019050919050565b60006020820190508181036000830152610d1b81610cdf565b9050919050565b6000606082019050610d376000830186610942565b610d446020830185610942565b610d5160408301846107c9565b94935050505056fea2646970667358221220610d88ae0061156c7d35881e71339dfeed8074bdc89ee6ad5654f1e9196172b364736f6c634300080f0033",
  "immutableReferences": {},
  "source": "// SPDX-License-Identifier: Unlicencd\npragma solidity ^0.8.0;\n\nimport './ERC721Metadata.sol';\nimport './ERC721Enumerable.sol';\n\n// ERC721Metadata\ncontract ERC721Connector is ERC721Metadata, ERC721Enumerable {\n\n    // ERC721ConnectorMetadata\n    constructor(string memory name, string memory symbol) ERC721Metadata(name, symbol) {\n\n    }\n}",
  "sourcePath": "/Users/takagihrs/Desktop/MyProject/dapp/nft-marketplace/src/contracts/ERC721Connector.sol",
  "compiler": {
    "name": "solc",
    "version": "0.8.15+commit.e14f2714.Emscripten.clang"
  },
  "schemaVersion": "3.4.7",
  "updatedAt": "2022-06-19T13:44:45.968Z",
  "devdoc": {
    "kind": "dev",
    "methods": {},
    "version": 1
  },
  "userdoc": {
    "kind": "user",
    "methods": {},
    "version": 1
  }
}