{
  "contractName": "KryptoBird",
  "abi": [
    {
      "inputs": [],
      "stateMutability": "nonpayable",
      "type": "constructor"
    },
    {
      "anonymous": false,
      "inputs": [
        {
          "indexed": false,
          "internalType": "address",
          "name": "from",
          "type": "address"
        },
        {
          "indexed": false,
          "internalType": "address",
          "name": "to",
          "type": "address"
        },
        {
          "indexed": false,
          "internalType": "uint256",
          "name": "tokenId",
          "type": "uint256"
        }
      ],
      "name": "Transfer",
      "type": "event"
    },
    {
      "inputs": [
        {
          "internalType": "uint256",
          "name": "",
          "type": "uint256"
        }
      ],
      "name": "KryptoBirdz",
      "outputs": [
        {
          "internalType": "string",
          "name": "",
          "type": "string"
        }
      ],
      "stateMutability": "view",
      "type": "function",
      "constant": true
    },
    {
      "inputs": [
        {
          "internalType": "address",
          "name": "_owner",
          "type": "address"
        }
      ],
      "name": "balanceOf",
      "outputs": [
        {
          "internalType": "uint256",
          "name": "",
          "type": "uint256"
        }
      ],
      "stateMutability": "view",
      "type": "function",
      "constant": true
    },
    {
      "inputs": [],
      "name": "name",
      "outputs": [
        {
          "internalType": "string",
          "name": "",
          "type": "string"
        }
      ],
      "stateMutability": "view",
      "type": "function",
      "constant": true
    },
    {
      "inputs": [
        {
          "internalType": "uint256",
          "name": "_tokenId",
          "type": "uint256"
        }
      ],
      "name": "ownerOf",
      "outputs": [
        {
          "internalType": "address",
          "name": "",
          "type": "address"
        }
      ],
      "stateMutability": "view",
      "type": "function",
      "constant": true
    },
    {
      "inputs": [],
      "name": "symbol",
      "outputs": [
        {
          "internalType": "string",
          "name": "",
          "type": "string"
        }
      ],
      "stateMutability": "view",
      "type": "function",
      "constant": true
    },
    {
      "inputs": [
        {
          "internalType": "string",
          "name": "_kryptoBird",
          "type": "string"
        }
      ],
      "name": "mint",
      "outputs": [],
      "stateMutability": "nonpayable",
      "type": "function"
    }
  ],
  "bytecode": "0x60806040523480156200001157600080fd5b506040518060400160405280600a81526020017f4b727970746f42697264000000000000000000000000000000000000000000008152506040518060400160405280600681526020017f4b424952445a00000000000000000000000000000000000000000000000000008152508181816000908162000091919062000328565b508060019081620000a3919062000328565b50505050506200040f565b600081519050919050565b7f4e487b7100000000000000000000000000000000000000000000000000000000600052604160045260246000fd5b7f4e487b7100000000000000000000000000000000000000000000000000000000600052602260045260246000fd5b600060028204905060018216806200013057607f821691505b602082108103620001465762000145620000e8565b5b50919050565b60008190508160005260206000209050919050565b60006020601f8301049050919050565b600082821b905092915050565b600060088302620001b07fffffffffffffffffffffffffffffffffffffffffffffffffffffffffffffffff8262000171565b620001bc868362000171565b95508019841693508086168417925050509392505050565b6000819050919050565b6000819050919050565b60006200020962000203620001fd84620001d4565b620001de565b620001d4565b9050919050565b6000819050919050565b6200022583620001e8565b6200023d620002348262000210565b8484546200017e565b825550505050565b600090565b6200025462000245565b620002618184846200021a565b505050565b5b8181101562000289576200027d6000826200024a565b60018101905062000267565b5050565b601f821115620002d857620002a2816200014c565b620002ad8462000161565b81016020851015620002bd578190505b620002d5620002cc8562000161565b83018262000266565b50505b505050565b600082821c905092915050565b6000620002fd60001984600802620002dd565b1980831691505092915050565b6000620003188383620002ea565b9150826002028217905092915050565b6200033382620000ae565b67ffffffffffffffff8111156200034f576200034e620000b9565b5b6200035b825462000117565b620003688282856200028d565b600060209050601f831160018114620003a057600084156200038b578287015190505b6200039785826200030a565b86555062000407565b601f198416620003b0866200014c565b60005b82811015620003da57848901518255600182019150602085019450602081019050620003b3565b86831015620003fa5784890151620003f6601f891682620002ea565b8355505b6001600288020188555050505b505050505050565b6111be806200041f6000396000f3fe608060405234801561001057600080fd5b50600436106100625760003560e01c806306fdde03146100675780636352211e1461008557806370a08231146100b557806395d89b41146100e5578063a3a1ff5814610103578063d85d3d2714610133575b600080fd5b61006f61014f565b60405161007c919061082f565b60405180910390f35b61009f600480360381019061009a919061089b565b6101e1565b6040516100ac9190610909565b60405180910390f35b6100cf60048036038101906100ca9190610950565b610292565b6040516100dc919061098c565b60405180910390f35b6100ed610349565b6040516100fa919061082f565b60405180910390f35b61011d6004803603810190610118919061089b565b6103db565b60405161012a919061082f565b60405180910390f35b61014d60048036038101906101489190610adc565b610487565b005b60606000805461015e90610b54565b80601f016020809104026020016040519081016040528092919081815260200182805461018a90610b54565b80156101d75780601f106101ac576101008083540402835291602001916101d7565b820191906000526020600020905b8154815290600101906020018083116101ba57829003601f168201915b5050505050905090565b6000806002600084815260200190815260200160002060009054906101000a900473ffffffffffffffffffffffffffffffffffffffff169050600073ffffffffffffffffffffffffffffffffffffffff168173ffffffffffffffffffffffffffffffffffffffff1603610289576040517f08c379a000000000000000000000000000000000000000000000000000000000815260040161028090610bd1565b60405180910390fd5b80915050919050565b60008073ffffffffffffffffffffffffffffffffffffffff168273ffffffffffffffffffffffffffffffffffffffff1603610302576040517f08c379a00000000000000000000000000000000000000000000000000000000081526004016102f990610c63565b60405180910390fd5b600360008373ffffffffffffffffffffffffffffffffffffffff1673ffffffffffffffffffffffffffffffffffffffff168152602001908152602001600020549050919050565b60606001805461035890610b54565b80601f016020809104026020016040519081016040528092919081815260200182805461038490610b54565b80156103d15780601f106103a6576101008083540402835291602001916103d1565b820191906000526020600020905b8154815290600101906020018083116103b457829003601f168201915b5050505050905090565b600581815481106103eb57600080fd5b90600052602060002001600091509050805461040690610b54565b80601f016020809104026020016040519081016040528092919081815260200182805461043290610b54565b801561047f5780601f106104545761010080835404028352916020019161047f565b820191906000526020600020905b81548152906001019060200180831161046257829003601f168201915b505050505081565b6006816040516104979190610cbf565b908152602001604051809103902060009054906101000a900460ff16156104f3576040517f08c379a00000000000000000000000000000000000000000000000000000000081526004016104ea90610d22565b60405180910390fd5b6005819080600181540180825580915050600190039060005260206000200160009091909190915090816105279190610eee565b506000600160058054905061053c9190610fef565b90506105483382610583565b600160068360405161055a9190610cbf565b908152602001604051809103902060006101000a81548160ff0219169083151502179055505050565b600073ffffffffffffffffffffffffffffffffffffffff168273ffffffffffffffffffffffffffffffffffffffff16036105f2576040517f08c379a00000000000000000000000000000000000000000000000000000000081526004016105e99061106f565b60405180910390fd5b6105fb81610724565b1561063b576040517f08c379a0000000000000000000000000000000000000000000000000000000008152600401610632906110db565b60405180910390fd5b816002600083815260200190815260200160002060006101000a81548173ffffffffffffffffffffffffffffffffffffffff021916908373ffffffffffffffffffffffffffffffffffffffff1602179055506001600360008473ffffffffffffffffffffffffffffffffffffffff1673ffffffffffffffffffffffffffffffffffffffff16815260200190815260200160002060008282546106dd91906110fb565b925050819055507fddf252ad1be2c89b69c2b068fc378daa952ba7f163c4a11628f55a4df523b3ef6000838360405161071893929190611151565b60405180910390a15050565b6000806002600084815260200190815260200160002060009054906101000a900473ffffffffffffffffffffffffffffffffffffffff169050600073ffffffffffffffffffffffffffffffffffffffff168173ffffffffffffffffffffffffffffffffffffffff161415915050919050565b600081519050919050565b600082825260208201905092915050565b60005b838110156107d05780820151818401526020810190506107b5565b838111156107df576000848401525b50505050565b6000601f19601f8301169050919050565b600061080182610796565b61080b81856107a1565b935061081b8185602086016107b2565b610824816107e5565b840191505092915050565b6000602082019050818103600083015261084981846107f6565b905092915050565b6000604051905090565b600080fd5b600080fd5b6000819050919050565b61087881610865565b811461088357600080fd5b50565b6000813590506108958161086f565b92915050565b6000602082840312156108b1576108b061085b565b5b60006108bf84828501610886565b91505092915050565b600073ffffffffffffffffffffffffffffffffffffffff82169050919050565b60006108f3826108c8565b9050919050565b610903816108e8565b82525050565b600060208201905061091e60008301846108fa565b92915050565b61092d816108e8565b811461093857600080fd5b50565b60008135905061094a81610924565b92915050565b6000602082840312156109665761096561085b565b5b60006109748482850161093b565b91505092915050565b61098681610865565b82525050565b60006020820190506109a1600083018461097d565b92915050565b600080fd5b600080fd5b7f4e487b7100000000000000000000000000000000000000000000000000000000600052604160045260246000fd5b6109e9826107e5565b810181811067ffffffffffffffff82111715610a0857610a076109b1565b5b80604052505050565b6000610a1b610851565b9050610a2782826109e0565b919050565b600067ffffffffffffffff821115610a4757610a466109b1565b5b610a50826107e5565b9050602081019050919050565b82818337600083830152505050565b6000610a7f610a7a84610a2c565b610a11565b905082815260208101848484011115610a9b57610a9a6109ac565b5b610aa6848285610a5d565b509392505050565b600082601f830112610ac357610ac26109a7565b5b8135610ad3848260208601610a6c565b91505092915050565b600060208284031215610af257610af161085b565b5b600082013567ffffffffffffffff811115610b1057610b0f610860565b5b610b1c84828501610aae565b91505092915050565b7f4e487b7100000000000000000000000000000000000000000000000000000000600052602260045260246000fd5b60006002820490506001821680610b6c57607f821691505b602082108103610b7f57610b7e610b25565b5b50919050565b7f4552433732313a20746f6b656e20646f65736e74206578697374000000000000600082015250565b6000610bbb601a836107a1565b9150610bc682610b85565b602082019050919050565b60006020820190508181036000830152610bea81610bae565b9050919050565b7f4552433732313a206f776e657220717565727920666f72207a65726f2061646460008201527f7265737300000000000000000000000000000000000000000000000000000000602082015250565b6000610c4d6024836107a1565b9150610c5882610bf1565b604082019050919050565b60006020820190508181036000830152610c7c81610c40565b9050919050565b600081905092915050565b6000610c9982610796565b610ca38185610c83565b9350610cb38185602086016107b2565b80840191505092915050565b6000610ccb8284610c8e565b915081905092915050565b7f4552524f523a20616c7265616479206578697374730000000000000000000000600082015250565b6000610d0c6015836107a1565b9150610d1782610cd6565b602082019050919050565b60006020820190508181036000830152610d3b81610cff565b9050919050565b60008190508160005260206000209050919050565b60006020601f8301049050919050565b600082821b905092915050565b600060088302610da47fffffffffffffffffffffffffffffffffffffffffffffffffffffffffffffffff82610d67565b610dae8683610d67565b95508019841693508086168417925050509392505050565b6000819050919050565b6000610deb610de6610de184610865565b610dc6565b610865565b9050919050565b6000819050919050565b610e0583610dd0565b610e19610e1182610df2565b848454610d74565b825550505050565b600090565b610e2e610e21565b610e39818484610dfc565b505050565b5b81811015610e5d57610e52600082610e26565b600181019050610e3f565b5050565b601f821115610ea257610e7381610d42565b610e7c84610d57565b81016020851015610e8b578190505b610e9f610e9785610d57565b830182610e3e565b50505b505050565b600082821c905092915050565b6000610ec560001984600802610ea7565b1980831691505092915050565b6000610ede8383610eb4565b9150826002028217905092915050565b610ef782610796565b67ffffffffffffffff811115610f1057610f0f6109b1565b5b610f1a8254610b54565b610f25828285610e61565b600060209050601f831160018114610f585760008415610f46578287015190505b610f508582610ed2565b865550610fb8565b601f198416610f6686610d42565b60005b82811015610f8e57848901518255600182019150602085019450602081019050610f69565b86831015610fab5784890151610fa7601f891682610eb4565b8355505b6001600288020188555050505b505050505050565b7f4e487b7100000000000000000000000000000000000000000000000000000000600052601160045260246000fd5b6000610ffa82610865565b915061100583610865565b92508282101561101857611017610fc0565b5b828203905092915050565b7f4552433732313a206d696e74696e67207a65726f206164647265737300000000600082015250565b6000611059601c836107a1565b915061106482611023565b602082019050919050565b600060208201905081810360008301526110888161104c565b9050919050565b7f4552433732313a20746f6b656e20697320616c7265616479206d696e74656400600082015250565b60006110c5601f836107a1565b91506110d08261108f565b602082019050919050565b600060208201905081810360008301526110f4816110b8565b9050919050565b600061110682610865565b915061111183610865565b9250827fffffffffffffffffffffffffffffffffffffffffffffffffffffffffffffffff0382111561114657611145610fc0565b5b828201905092915050565b600060608201905061116660008301866108fa565b61117360208301856108fa565b611180604083018461097d565b94935050505056fea26469706673582212204cdaf9e3ae50f8da69c168006620f692bef01bcbbe226ecc0a8b24b7be37791b64736f6c634300080f0033",
  "immutableReferences": {},
  "source": "// SPDX-License-Identifier: Unlicencd\npragma solidity ^0.8.0;\n\nimport './ERC721Connector.sol';\n\ncontract KryptoBird is ERC721Connector {\n\n    // NFTs\n    string[] public KryptoBirdz;\n\n    mapping(string => bool) _kryptoBirdzExists;\n\n    function mint(string memory _kryptoBird) public {\n        // \n        require(!_kryptoBirdzExists[_kryptoBird], 'ERROR: already exists');\n\n        // version\n        // uint _id = KryptoBirdz.push(_kryptoBird);\n\n        // Length\n        KryptoBirdz.push(_kryptoBird);\n        uint _id = KryptoBirdz.length -1;\n\n        _mint(msg.sender, _id);\n\n        // MintExitsTrue\n        _kryptoBirdzExists[_kryptoBird] = true;\n    }\n\n    // ERC721Metadatanamesymbol\n    constructor() ERC721Connector('KryptoBird', 'KBIRDZ') {}\n\n\n}\n\n\n",
  "sourcePath": "/Users/takagihrs/Desktop/MyProject/dapp/nft-marketplace/src/contracts/KryptoBirdz.sol",
  "compiler": {
    "name": "solc",
    "version": "0.8.15+commit.e14f2714.Emscripten.clang"
  },
  "schemaVersion": "3.4.7",
  "updatedAt": "2022-06-19T09:57:49.171Z",
  "networkType": "ethereum",
  "devdoc": {
    "kind": "dev",
    "methods": {},
    "version": 1
  },
  "userdoc": {
    "kind": "user",
    "methods": {},
    "version": 1
  }
}