{
  "contractName": "KryptoBird",
  "abi": [
    {
      "inputs": [],
      "stateMutability": "nonpayable",
      "type": "constructor"
    },
    {
      "anonymous": false,
      "inputs": [
        {
          "indexed": true,
          "internalType": "address",
          "name": "owner",
          "type": "address"
        },
        {
          "indexed": true,
          "internalType": "address",
          "name": "approved",
          "type": "address"
        },
        {
          "indexed": true,
          "internalType": "uint256",
          "name": "tokenId",
          "type": "uint256"
        }
      ],
      "name": "Approval",
      "type": "event"
    },
    {
      "anonymous": false,
      "inputs": [
        {
          "indexed": true,
          "internalType": "address",
          "name": "owner",
          "type": "address"
        },
        {
          "indexed": true,
          "internalType": "address",
          "name": "operator",
          "type": "address"
        },
        {
          "indexed": false,
          "internalType": "bool",
          "name": "approved",
          "type": "bool"
        }
      ],
      "name": "ApprovalForAll",
      "type": "event"
    },
    {
      "anonymous": false,
      "inputs": [
        {
          "indexed": true,
          "internalType": "address",
          "name": "previousOwner",
          "type": "address"
        },
        {
          "indexed": true,
          "internalType": "address",
          "name": "newOwner",
          "type": "address"
        }
      ],
      "name": "OwnershipTransferred",
      "type": "event"
    },
    {
      "anonymous": false,
      "inputs": [
        {
          "indexed": true,
          "internalType": "address",
          "name": "from",
          "type": "address"
        },
        {
          "indexed": true,
          "internalType": "address",
          "name": "to",
          "type": "address"
        },
        {
          "indexed": true,
          "internalType": "uint256",
          "name": "tokenId",
          "type": "uint256"
        }
      ],
      "name": "Transfer",
      "type": "event"
    },
    {
      "inputs": [
        {
          "internalType": "uint256",
          "name": "",
          "type": "uint256"
        }
      ],
      "name": "KryptoBirdz",
      "outputs": [
        {
          "internalType": "string",
          "name": "",
          "type": "string"
        }
      ],
      "stateMutability": "view",
      "type": "function"
    },
    {
      "inputs": [
        {
          "internalType": "address",
          "name": "to",
          "type": "address"
        },
        {
          "internalType": "uint256",
          "name": "tokenId",
          "type": "uint256"
        }
      ],
      "name": "approve",
      "outputs": [],
      "stateMutability": "nonpayable",
      "type": "function"
    },
    {
      "inputs": [
        {
          "internalType": "address",
          "name": "owner",
          "type": "address"
        }
      ],
      "name": "balanceOf",
      "outputs": [
        {
          "internalType": "uint256",
          "name": "",
          "type": "uint256"
        }
      ],
      "stateMutability": "view",
      "type": "function"
    },
    {
      "inputs": [
        {
          "internalType": "uint256",
          "name": "tokenId",
          "type": "uint256"
        }
      ],
      "name": "getApproved",
      "outputs": [
        {
          "internalType": "address",
          "name": "",
          "type": "address"
        }
      ],
      "stateMutability": "view",
      "type": "function"
    },
    {
      "inputs": [
        {
          "internalType": "address",
          "name": "owner",
          "type": "address"
        },
        {
          "internalType": "address",
          "name": "operator",
          "type": "address"
        }
      ],
      "name": "isApprovedForAll",
      "outputs": [
        {
          "internalType": "bool",
          "name": "",
          "type": "bool"
        }
      ],
      "stateMutability": "view",
      "type": "function"
    },
    {
      "inputs": [],
      "name": "name",
      "outputs": [
        {
          "internalType": "string",
          "name": "",
          "type": "string"
        }
      ],
      "stateMutability": "view",
      "type": "function"
    },
    {
      "inputs": [],
      "name": "owner",
      "outputs": [
        {
          "internalType": "address",
          "name": "",
          "type": "address"
        }
      ],
      "stateMutability": "view",
      "type": "function"
    },
    {
      "inputs": [
        {
          "internalType": "uint256",
          "name": "tokenId",
          "type": "uint256"
        }
      ],
      "name": "ownerOf",
      "outputs": [
        {
          "internalType": "address",
          "name": "",
          "type": "address"
        }
      ],
      "stateMutability": "view",
      "type": "function"
    },
    {
      "inputs": [],
      "name": "renounceOwnership",
      "outputs": [],
      "stateMutability": "nonpayable",
      "type": "function"
    },
    {
      "inputs": [
        {
          "internalType": "address",
          "name": "operator",
          "type": "address"
        },
        {
          "internalType": "bool",
          "name": "approved",
          "type": "bool"
        }
      ],
      "name": "setApprovalForAll",
      "outputs": [],
      "stateMutability": "nonpayable",
      "type": "function"
    },
    {
      "inputs": [
        {
          "internalType": "bytes4",
          "name": "interfaceId",
          "type": "bytes4"
        }
      ],
      "name": "supportsInterface",
      "outputs": [
        {
          "internalType": "bool",
          "name": "",
          "type": "bool"
        }
      ],
      "stateMutability": "view",
      "type": "function"
    },
    {
      "inputs": [],
      "name": "symbol",
      "outputs": [
        {
          "internalType": "string",
          "name": "",
          "type": "string"
        }
      ],
      "stateMutability": "view",
      "type": "function"
    },
    {
      "inputs": [
        {
          "internalType": "uint256",
          "name": "index",
          "type": "uint256"
        }
      ],
      "name": "tokenByIndex",
      "outputs": [
        {
          "internalType": "uint256",
          "name": "",
          "type": "uint256"
        }
      ],
      "stateMutability": "view",
      "type": "function"
    },
    {
      "inputs": [
        {
          "internalType": "address",
          "name": "owner",
          "type": "address"
        },
        {
          "internalType": "uint256",
          "name": "index",
          "type": "uint256"
        }
      ],
      "name": "tokenOfOwnerByIndex",
      "outputs": [
        {
          "internalType": "uint256",
          "name": "",
          "type": "uint256"
        }
      ],
      "stateMutability": "view",
      "type": "function"
    },
    {
      "inputs": [
        {
          "internalType": "uint256",
          "name": "tokenId",
          "type": "uint256"
        }
      ],
      "name": "tokenURI",
      "outputs": [
        {
          "internalType": "string",
          "name": "",
          "type": "string"
        }
      ],
      "stateMutability": "view",
      "type": "function"
    },
    {
      "inputs": [],
      "name": "totalSupply",
      "outputs": [
        {
          "internalType": "uint256",
          "name": "",
          "type": "uint256"
        }
      ],
      "stateMutability": "view",
      "type": "function"
    },
    {
      "inputs": [
        {
          "internalType": "address",
          "name": "from",
          "type": "address"
        },
        {
          "internalType": "address",
          "name": "to",
          "type": "address"
        },
        {
          "internalType": "uint256",
          "name": "tokenId",
          "type": "uint256"
        }
      ],
      "name": "transferFrom",
      "outputs": [],
      "stateMutability": "nonpayable",
      "type": "function"
    },
    {
      "inputs": [
        {
          "internalType": "address",
          "name": "newOwner",
          "type": "address"
        }
      ],
      "name": "transferOwnership",
      "outputs": [],
      "stateMutability": "nonpayable",
      "type": "function"
    },
    {
      "inputs": [
        {
          "internalType": "string",
          "name": "_kryptoBird",
          "type": "string"
        }
      ],
      "name": "mint",
      "outputs": [],
      "stateMutability": "nonpayable",
      "type": "function"
    },
    {
      "inputs": [
        {
          "internalType": "address",
          "name": "from",
          "type": "address"
        },
        {
          "internalType": "address",
          "name": "to",
          "type": "address"
        },
        {
          "internalType": "uint256",
          "name": "tokenId",
          "type": "uint256"
        }
      ],
      "name": "safeTransferFrom",
      "outputs": [],
      "stateMutability": "nonpayable",
      "type": "function"
    },
    {
      "inputs": [
        {
          "internalType": "address",
          "name": "to",
          "type": "address"
        },
        {
          "internalType": "uint256",
          "name": "tokenId",
          "type": "uint256"
        },
        {
          "internalType": "string",
          "name": "_kryptoBird",
          "type": "string"
        }
      ],
      "name": "safeTransferFrom",
      "outputs": [],
      "stateMutability": "nonpayable",
      "type": "function"
    },
    {
      "inputs": [
        {
          "internalType": "address",
          "name": "from",
          "type": "address"
        },
        {
          "internalType": "address",
          "name": "to",
          "type": "address"
        },
        {
          "internalType": "uint256",
          "name": "tokenId",
          "type": "uint256"
        },
        {
          "internalType": "bytes",
          "name": "_data",
          "type": "bytes"
        }
      ],
      "name": "safeTransferFrom",
      "outputs": [],
      "stateMutability": "nonpayable",
      "type": "function"
    }
  ],
  "bytecode": "0x60806040523480156200001157600080fd5b506040518060400160405280600681526020017f41766174617200000000000000000000000000000000000000000000000000008152506040518060400160405280600381526020017f415654000000000000000000000000000000000000000000000000000000000081525081600090816200008f919062000412565b508060019081620000a1919062000412565b505050620000c4620000b8620000ca60201b60201c565b620000d260201b60201c565b620004f9565b600033905090565b6000600a60009054906101000a900473ffffffffffffffffffffffffffffffffffffffff16905081600a60006101000a81548173ffffffffffffffffffffffffffffffffffffffff021916908373ffffffffffffffffffffffffffffffffffffffff1602179055508173ffffffffffffffffffffffffffffffffffffffff168173ffffffffffffffffffffffffffffffffffffffff167f8be0079c531659141344cd1fd0a4f28419497f9722a3daafe3b4186f6b6457e060405160405180910390a35050565b600081519050919050565b7f4e487b7100000000000000000000000000000000000000000000000000000000600052604160045260246000fd5b7f4e487b7100000000000000000000000000000000000000000000000000000000600052602260045260246000fd5b600060028204905060018216806200021a57607f821691505b60208210810362000230576200022f620001d2565b5b50919050565b60008190508160005260206000209050919050565b60006020601f8301049050919050565b600082821b905092915050565b6000600883026200029a7fffffffffffffffffffffffffffffffffffffffffffffffffffffffffffffffff826200025b565b620002a686836200025b565b95508019841693508086168417925050509392505050565b6000819050919050565b6000819050919050565b6000620002f3620002ed620002e784620002be565b620002c8565b620002be565b9050919050565b6000819050919050565b6200030f83620002d2565b620003276200031e82620002fa565b84845462000268565b825550505050565b600090565b6200033e6200032f565b6200034b81848462000304565b505050565b5b8181101562000373576200036760008262000334565b60018101905062000351565b5050565b601f821115620003c2576200038c8162000236565b62000397846200024b565b81016020851015620003a7578190505b620003bf620003b6856200024b565b83018262000350565b50505b505050565b600082821c905092915050565b6000620003e760001984600802620003c7565b1980831691505092915050565b6000620004028383620003d4565b9150826002028217905092915050565b6200041d8262000198565b67ffffffffffffffff811115620004395762000438620001a3565b5b62000445825462000201565b6200045282828562000377565b600060209050601f8311600181146200048a576000841562000475578287015190505b620004818582620003f4565b865550620004f1565b601f1984166200049a8662000236565b60005b82811015620004c4578489015182556001820191506020850194506020810190506200049d565b86831015620004e45784890151620004e0601f891682620003d4565b8355505b6001600288020188555050505b505050505050565b61390280620005096000396000f3fe608060405234801561001057600080fd5b50600436106101425760003560e01c806370a08231116100b8578063a3a1ff581161007c578063a3a1ff5814610375578063b88d4fde146103a5578063c87b56dd146103c1578063d85d3d27146103f1578063e985e9c51461040d578063f2fde38b1461043d57610142565b806370a08231146102e3578063715018a6146103135780638da5cb5b1461031d57806395d89b411461033b578063a22cb4651461035957610142565b806323b872dd1161010a57806323b872dd146101ff5780632f745c591461021b57806342842e0e1461024b5780634c52604b146102675780634f6ccce7146102835780636352211e146102b357610142565b806301ffc9a71461014757806306fdde0314610177578063081812fc14610195578063095ea7b3146101c557806318160ddd146101e1575b600080fd5b610161600480360381019061015c919061219b565b610459565b60405161016e91906121e3565b60405180910390f35b61017f6104d3565b60405161018c919061228e565b60405180910390f35b6101af60048036038101906101aa91906122e6565b610565565b6040516101bc9190612354565b60405180910390f35b6101df60048036038101906101da919061239b565b6105ea565b005b6101e9610701565b6040516101f691906123ea565b60405180910390f35b61021960048036038101906102149190612405565b61070e565b005b6102356004803603810190610230919061239b565b61076e565b60405161024291906123ea565b60405180910390f35b61026560048036038101906102609190612405565b610813565b005b610281600480360381019061027c919061258d565b610833565b005b61029d600480360381019061029891906122e6565b6108be565b6040516102aa91906123ea565b60405180910390f35b6102cd60048036038101906102c891906122e6565b61092f565b6040516102da9190612354565b60405180910390f35b6102fd60048036038101906102f891906125fc565b6109e0565b60405161030a91906123ea565b60405180910390f35b61031b610a97565b005b610325610b1f565b6040516103329190612354565b60405180910390f35b610343610b49565b604051610350919061228e565b60405180910390f35b610373600480360381019061036e9190612655565b610bdb565b005b61038f600480360381019061038a91906122e6565b610d5b565b60405161039c919061228e565b60405180910390f35b6103bf60048036038101906103ba9190612736565b610e07565b005b6103db60048036038101906103d691906122e6565b610e69565b6040516103e8919061228e565b60405180910390f35b61040b600480360381019061040691906127b9565b610f10565b005b61042760048036038101906104229190612802565b610fd5565b60405161043491906121e3565b60405180910390f35b610457600480360381019061045291906125fc565b611069565b005b60007f780e9d63000000000000000000000000000000000000000000000000000000007bffffffffffffffffffffffffffffffffffffffffffffffffffffffff1916827bffffffffffffffffffffffffffffffffffffffffffffffffffffffff191614806104cc57506104cb82611160565b5b9050919050565b6060600080546104e290612871565b80601f016020809104026020016040519081016040528092919081815260200182805461050e90612871565b801561055b5780601f106105305761010080835404028352916020019161055b565b820191906000526020600020905b81548152906001019060200180831161053e57829003601f168201915b5050505050905090565b600061057082611242565b6105af576040517f08c379a00000000000000000000000000000000000000000000000000000000081526004016105a690612914565b60405180910390fd5b6004600083815260200190815260200160002060009054906101000a900473ffffffffffffffffffffffffffffffffffffffff169050919050565b60006105f58261092f565b90508073ffffffffffffffffffffffffffffffffffffffff168373ffffffffffffffffffffffffffffffffffffffff1603610665576040517f08c379a000000000000000000000000000000000000000000000000000000000815260040161065c906129a6565b60405180910390fd5b8073ffffffffffffffffffffffffffffffffffffffff166106846112ae565b73ffffffffffffffffffffffffffffffffffffffff1614806106b357506106b2816106ad6112ae565b610fd5565b5b6106f2576040517f08c379a00000000000000000000000000000000000000000000000000000000081526004016106e990612a38565b60405180910390fd5b6106fc83836112b6565b505050565b6000600880549050905090565b61071f6107196112ae565b8261136f565b61075e576040517f08c379a000000000000000000000000000000000000000000000000000000000815260040161075590612aca565b60405180910390fd5b61076983838361144d565b505050565b6000610779836109e0565b82106107ba576040517f08c379a00000000000000000000000000000000000000000000000000000000081526004016107b190612b5c565b60405180910390fd5b600660008473ffffffffffffffffffffffffffffffffffffffff1673ffffffffffffffffffffffffffffffffffffffff168152602001908152602001600020600083815260200190815260200160002054905092915050565b61082e83838360405180602001604052806000815250610e07565b505050565b600c816040516108439190612bb8565b908152602001604051809103902060009054906101000a900460ff1661089e576040517f08c379a000000000000000000000000000000000000000000000000000000000815260040161089590612c1b565b60405180910390fd5b6108b9338484604051806020016040528060008152506116a8565b505050565b60006108c8610701565b8210610909576040517f08c379a000000000000000000000000000000000000000000000000000000000815260040161090090612cad565b60405180910390fd5b6008828154811061091d5761091c612ccd565b5b90600052602060002001549050919050565b6000806002600084815260200190815260200160002060009054906101000a900473ffffffffffffffffffffffffffffffffffffffff169050600073ffffffffffffffffffffffffffffffffffffffff168173ffffffffffffffffffffffffffffffffffffffff16036109d7576040517f08c379a00000000000000000000000000000000000000000000000000000000081526004016109ce90612d6e565b60405180910390fd5b80915050919050565b60008073ffffffffffffffffffffffffffffffffffffffff168273ffffffffffffffffffffffffffffffffffffffff1603610a50576040517f08c379a0000000000000000000000000000000000000000000000000000000008152600401610a4790612e00565b60405180910390fd5b600360008373ffffffffffffffffffffffffffffffffffffffff1673ffffffffffffffffffffffffffffffffffffffff168152602001908152602001600020549050919050565b610a9f6112ae565b73ffffffffffffffffffffffffffffffffffffffff16610abd610b1f565b73ffffffffffffffffffffffffffffffffffffffff1614610b13576040517f08c379a0000000000000000000000000000000000000000000000000000000008152600401610b0a90612e6c565b60405180910390fd5b610b1d6000611704565b565b6000600a60009054906101000a900473ffffffffffffffffffffffffffffffffffffffff16905090565b606060018054610b5890612871565b80601f0160208091040260200160405190810160405280929190818152602001828054610b8490612871565b8015610bd15780601f10610ba657610100808354040283529160200191610bd1565b820191906000526020600020905b815481529060010190602001808311610bb457829003601f168201915b5050505050905090565b610be36112ae565b73ffffffffffffffffffffffffffffffffffffffff168273ffffffffffffffffffffffffffffffffffffffff1603610c50576040517f08c379a0000000000000000000000000000000000000000000000000000000008152600401610c4790612ed8565b60405180910390fd5b8060056000610c5d6112ae565b73ffffffffffffffffffffffffffffffffffffffff1673ffffffffffffffffffffffffffffffffffffffff16815260200190815260200160002060008473ffffffffffffffffffffffffffffffffffffffff1673ffffffffffffffffffffffffffffffffffffffff16815260200190815260200160002060006101000a81548160ff0219169083151502179055508173ffffffffffffffffffffffffffffffffffffffff16610d0a6112ae565b73ffffffffffffffffffffffffffffffffffffffff167f17307eab39ab6107e8899845ad3d59bd9653f200f220920489ca2b5937696c3183604051610d4f91906121e3565b60405180910390a35050565b600b8181548110610d6b57600080fd5b906000526020600020016000915090508054610d8690612871565b80601f0160208091040260200160405190810160405280929190818152602001828054610db290612871565b8015610dff5780601f10610dd457610100808354040283529160200191610dff565b820191906000526020600020905b815481529060010190602001808311610de257829003601f168201915b505050505081565b610e18610e126112ae565b8361136f565b610e57576040517f08c379a0000000000000000000000000000000000000000000000000000000008152600401610e4e90612aca565b60405180910390fd5b610e63848484846116a8565b50505050565b6060610e7482611242565b610eb3576040517f08c379a0000000000000000000000000000000000000000000000000000000008152600401610eaa90612f6a565b60405180910390fd5b6000610ebd6117ca565b90506000815111610edd5760405180602001604052806000815250610f08565b80610ee7846117e1565b604051602001610ef8929190612f8a565b6040516020818303038152906040525b915050919050565b600c81604051610f209190612bb8565b908152602001604051809103902060009054906101000a900460ff1615610f7c576040517f08c379a0000000000000000000000000000000000000000000000000000000008152600401610f7390612ffa565b60405180910390fd5b600b81908060018154018082558091505060019003906000526020600020016000909190919091509081610fb091906131c6565b5060006001600b80549050610fc591906132c7565b9050610fd13382611941565b5050565b6000600560008473ffffffffffffffffffffffffffffffffffffffff1673ffffffffffffffffffffffffffffffffffffffff16815260200190815260200160002060008373ffffffffffffffffffffffffffffffffffffffff1673ffffffffffffffffffffffffffffffffffffffff16815260200190815260200160002060009054906101000a900460ff16905092915050565b6110716112ae565b73ffffffffffffffffffffffffffffffffffffffff1661108f610b1f565b73ffffffffffffffffffffffffffffffffffffffff16146110e5576040517f08c379a00000000000000000000000000000000000000000000000000000000081526004016110dc90612e6c565b60405180910390fd5b600073ffffffffffffffffffffffffffffffffffffffff168173ffffffffffffffffffffffffffffffffffffffff1603611154576040517f08c379a000000000000000000000000000000000000000000000000000000000815260040161114b9061336d565b60405180910390fd5b61115d81611704565b50565b60007f80ac58cd000000000000000000000000000000000000000000000000000000007bffffffffffffffffffffffffffffffffffffffffffffffffffffffff1916827bffffffffffffffffffffffffffffffffffffffffffffffffffffffff1916148061122b57507f5b5e139f000000000000000000000000000000000000000000000000000000007bffffffffffffffffffffffffffffffffffffffffffffffffffffffff1916827bffffffffffffffffffffffffffffffffffffffffffffffffffffffff1916145b8061123b575061123a82611b0e565b5b9050919050565b60008073ffffffffffffffffffffffffffffffffffffffff166002600084815260200190815260200160002060009054906101000a900473ffffffffffffffffffffffffffffffffffffffff1673ffffffffffffffffffffffffffffffffffffffff1614159050919050565b600033905090565b816004600083815260200190815260200160002060006101000a81548173ffffffffffffffffffffffffffffffffffffffff021916908373ffffffffffffffffffffffffffffffffffffffff160217905550808273ffffffffffffffffffffffffffffffffffffffff166113298361092f565b73ffffffffffffffffffffffffffffffffffffffff167f8c5be1e5ebec7d5bd14f71427d1e84f3dd0314c0f7b2291e5b200ac8c7c3b92560405160405180910390a45050565b600061137a82611242565b6113b9576040517f08c379a00000000000000000000000000000000000000000000000000000000081526004016113b0906133ff565b60405180910390fd5b60006113c48361092f565b90508073ffffffffffffffffffffffffffffffffffffffff168473ffffffffffffffffffffffffffffffffffffffff16148061143357508373ffffffffffffffffffffffffffffffffffffffff1661141b84610565565b73ffffffffffffffffffffffffffffffffffffffff16145b8061144457506114438185610fd5565b5b91505092915050565b8273ffffffffffffffffffffffffffffffffffffffff1661146d8261092f565b73ffffffffffffffffffffffffffffffffffffffff16146114c3576040517f08c379a00000000000000000000000000000000000000000000000000000000081526004016114ba90613491565b60405180910390fd5b600073ffffffffffffffffffffffffffffffffffffffff168273ffffffffffffffffffffffffffffffffffffffff1603611532576040517f08c379a000000000000000000000000000000000000000000000000000000000815260040161152990613523565b60405180910390fd5b61153d838383611b78565b6115486000826112b6565b6001600360008573ffffffffffffffffffffffffffffffffffffffff1673ffffffffffffffffffffffffffffffffffffffff168152602001908152602001600020600082825461159891906132c7565b925050819055506001600360008473ffffffffffffffffffffffffffffffffffffffff1673ffffffffffffffffffffffffffffffffffffffff16815260200190815260200160002060008282546115ef9190613543565b92505081905550816002600083815260200190815260200160002060006101000a81548173ffffffffffffffffffffffffffffffffffffffff021916908373ffffffffffffffffffffffffffffffffffffffff160217905550808273ffffffffffffffffffffffffffffffffffffffff168473ffffffffffffffffffffffffffffffffffffffff167fddf252ad1be2c89b69c2b068fc378daa952ba7f163c4a11628f55a4df523b3ef60405160405180910390a4505050565b6116b384848461144d565b6116bf84848484611c8a565b6116fe576040517f08c379a00000000000000000000000000000000000000000000000000000000081526004016116f5906135e9565b60405180910390fd5b50505050565b6000600a60009054906101000a900473ffffffffffffffffffffffffffffffffffffffff16905081600a60006101000a81548173ffffffffffffffffffffffffffffffffffffffff021916908373ffffffffffffffffffffffffffffffffffffffff1602179055508173ffffffffffffffffffffffffffffffffffffffff168173ffffffffffffffffffffffffffffffffffffffff167f8be0079c531659141344cd1fd0a4f28419497f9722a3daafe3b4186f6b6457e060405160405180910390a35050565b606060405180602001604052806000815250905090565b606060008203611828576040518060400160405280600181526020017f3000000000000000000000000000000000000000000000000000000000000000815250905061193c565b600082905060005b6000821461185a57808061184390613609565b915050600a826118539190613680565b9150611830565b60008167ffffffffffffffff81111561187657611875612462565b5b6040519080825280601f01601f1916602001820160405280156118a85781602001600182028036833780820191505090505b5090505b60008514611935576001826118c191906132c7565b9150600a856118d091906136b1565b60306118dc9190613543565b60f81b8183815181106118f2576118f1612ccd565b5b60200101907effffffffffffffffffffffffffffffffffffffffffffffffffffffffffffff1916908160001a905350600a8561192e9190613680565b94506118ac565b8093505050505b919050565b600073ffffffffffffffffffffffffffffffffffffffff168273ffffffffffffffffffffffffffffffffffffffff16036119b0576040517f08c379a00000000000000000000000000000000000000000000000000000000081526004016119a79061372e565b60405180910390fd5b6119b981611242565b156119f9576040517f08c379a00000000000000000000000000000000000000000000000000000000081526004016119f09061379a565b60405180910390fd5b611a0560008383611b78565b6001600360008473ffffffffffffffffffffffffffffffffffffffff1673ffffffffffffffffffffffffffffffffffffffff1681526020019081526020016000206000828254611a559190613543565b92505081905550816002600083815260200190815260200160002060006101000a81548173ffffffffffffffffffffffffffffffffffffffff021916908373ffffffffffffffffffffffffffffffffffffffff160217905550808273ffffffffffffffffffffffffffffffffffffffff16600073ffffffffffffffffffffffffffffffffffffffff167fddf252ad1be2c89b69c2b068fc378daa952ba7f163c4a11628f55a4df523b3ef60405160405180910390a45050565b60007f01ffc9a7000000000000000000000000000000000000000000000000000000007bffffffffffffffffffffffffffffffffffffffffffffffffffffffff1916827bffffffffffffffffffffffffffffffffffffffffffffffffffffffff1916149050919050565b611b83838383611e11565b600073ffffffffffffffffffffffffffffffffffffffff168373ffffffffffffffffffffffffffffffffffffffff1603611bc557611bc081611e16565b611c04565b8173ffffffffffffffffffffffffffffffffffffffff168373ffffffffffffffffffffffffffffffffffffffff1614611c0357611c028382611e5f565b5b5b600073ffffffffffffffffffffffffffffffffffffffff168273ffffffffffffffffffffffffffffffffffffffff1603611c4657611c4181611fcc565b611c85565b8273ffffffffffffffffffffffffffffffffffffffff168273ffffffffffffffffffffffffffffffffffffffff1614611c8457611c83828261209d565b5b5b505050565b6000611cab8473ffffffffffffffffffffffffffffffffffffffff1661211c565b15611e04578373ffffffffffffffffffffffffffffffffffffffff1663150b7a02611cd46112ae565b8786866040518563ffffffff1660e01b8152600401611cf6949392919061380f565b6020604051808303816000875af1925050508015611d3257506040513d601f19601f82011682018060405250810190611d2f9190613870565b60015b611db4573d8060008114611d62576040519150601f19603f3d011682016040523d82523d6000602084013e611d67565b606091505b506000815103611dac576040517f08c379a0000000000000000000000000000000000000000000000000000000008152600401611da3906135e9565b60405180910390fd5b805181602001fd5b63150b7a0260e01b7bffffffffffffffffffffffffffffffffffffffffffffffffffffffff1916817bffffffffffffffffffffffffffffffffffffffffffffffffffffffff191614915050611e09565b600190505b949350505050565b505050565b6008805490506009600083815260200190815260200160002081905550600881908060018154018082558091505060019003906000526020600020016000909190919091505550565b60006001611e6c846109e0565b611e7691906132c7565b9050600060076000848152602001908152602001600020549050818114611f5b576000600660008673ffffffffffffffffffffffffffffffffffffffff1673ffffffffffffffffffffffffffffffffffffffff168152602001908152602001600020600084815260200190815260200160002054905080600660008773ffffffffffffffffffffffffffffffffffffffff1673ffffffffffffffffffffffffffffffffffffffff168152602001908152602001600020600084815260200190815260200160002081905550816007600083815260200190815260200160002081905550505b6007600084815260200190815260200160002060009055600660008573ffffffffffffffffffffffffffffffffffffffff1673ffffffffffffffffffffffffffffffffffffffff16815260200190815260200160002060008381526020019081526020016000206000905550505050565b60006001600880549050611fe091906132c7565b90506000600960008481526020019081526020016000205490506000600883815481106120105761200f612ccd565b5b90600052602060002001549050806008838154811061203257612031612ccd565b5b9060005260206000200181905550816009600083815260200190815260200160002081905550600960008581526020019081526020016000206000905560088054806120815761208061389d565b5b6001900381819060005260206000200160009055905550505050565b60006120a8836109e0565b905081600660008573ffffffffffffffffffffffffffffffffffffffff1673ffffffffffffffffffffffffffffffffffffffff168152602001908152602001600020600083815260200190815260200160002081905550806007600084815260200190815260200160002081905550505050565b600080823b905060008111915050919050565b6000604051905090565b600080fd5b600080fd5b60007fffffffff0000000000000000000000000000000000000000000000000000000082169050919050565b61217881612143565b811461218357600080fd5b50565b6000813590506121958161216f565b92915050565b6000602082840312156121b1576121b0612139565b5b60006121bf84828501612186565b91505092915050565b60008115159050919050565b6121dd816121c8565b82525050565b60006020820190506121f860008301846121d4565b92915050565b600081519050919050565b600082825260208201905092915050565b60005b8381101561223857808201518184015260208101905061221d565b60008484015250505050565b6000601f19601f8301169050919050565b6000612260826121fe565b61226a8185612209565b935061227a81856020860161221a565b61228381612244565b840191505092915050565b600060208201905081810360008301526122a88184612255565b905092915050565b6000819050919050565b6122c3816122b0565b81146122ce57600080fd5b50565b6000813590506122e0816122ba565b92915050565b6000602082840312156122fc576122fb612139565b5b600061230a848285016122d1565b91505092915050565b600073ffffffffffffffffffffffffffffffffffffffff82169050919050565b600061233e82612313565b9050919050565b61234e81612333565b82525050565b60006020820190506123696000830184612345565b92915050565b61237881612333565b811461238357600080fd5b50565b6000813590506123958161236f565b92915050565b600080604083850312156123b2576123b1612139565b5b60006123c085828601612386565b92505060206123d1858286016122d1565b9150509250929050565b6123e4816122b0565b82525050565b60006020820190506123ff60008301846123db565b92915050565b60008060006060848603121561241e5761241d612139565b5b600061242c86828701612386565b935050602061243d86828701612386565b925050604061244e868287016122d1565b9150509250925092565b600080fd5b600080fd5b7f4e487b7100000000000000000000000000000000000000000000000000000000600052604160045260246000fd5b61249a82612244565b810181811067ffffffffffffffff821117156124b9576124b8612462565b5b80604052505050565b60006124cc61212f565b90506124d88282612491565b919050565b600067ffffffffffffffff8211156124f8576124f7612462565b5b61250182612244565b9050602081019050919050565b82818337600083830152505050565b600061253061252b846124dd565b6124c2565b90508281526020810184848401111561254c5761254b61245d565b5b61255784828561250e565b509392505050565b600082601f83011261257457612573612458565b5b813561258484826020860161251d565b91505092915050565b6000806000606084860312156125a6576125a5612139565b5b60006125b486828701612386565b93505060206125c5868287016122d1565b925050604084013567ffffffffffffffff8111156125e6576125e561213e565b5b6125f28682870161255f565b9150509250925092565b60006020828403121561261257612611612139565b5b600061262084828501612386565b91505092915050565b612632816121c8565b811461263d57600080fd5b50565b60008135905061264f81612629565b92915050565b6000806040838503121561266c5761266b612139565b5b600061267a85828601612386565b925050602061268b85828601612640565b9150509250929050565b600067ffffffffffffffff8211156126b0576126af612462565b5b6126b982612244565b9050602081019050919050565b60006126d96126d484612695565b6124c2565b9050828152602081018484840111156126f5576126f461245d565b5b61270084828561250e565b509392505050565b600082601f83011261271d5761271c612458565b5b813561272d8482602086016126c6565b91505092915050565b600080600080608085870312156127505761274f612139565b5b600061275e87828801612386565b945050602061276f87828801612386565b9350506040612780878288016122d1565b925050606085013567ffffffffffffffff8111156127a1576127a061213e565b5b6127ad87828801612708565b91505092959194509250565b6000602082840312156127cf576127ce612139565b5b600082013567ffffffffffffffff8111156127ed576127ec61213e565b5b6127f98482850161255f565b91505092915050565b6000806040838503121561281957612818612139565b5b600061282785828601612386565b925050602061283885828601612386565b9150509250929050565b7f4e487b7100000000000000000000000000000000000000000000000000000000600052602260045260246000fd5b6000600282049050600182168061288957607f821691505b60208210810361289c5761289b612842565b5b50919050565b7f4552433732313a20617070726f76656420717565727920666f72206e6f6e657860008201527f697374656e7420746f6b656e0000000000000000000000000000000000000000602082015250565b60006128fe602c83612209565b9150612909826128a2565b604082019050919050565b6000602082019050818103600083015261292d816128f1565b9050919050565b7f4552433732313a20617070726f76616c20746f2063757272656e74206f776e6560008201527f7200000000000000000000000000000000000000000000000000000000000000602082015250565b6000612990602183612209565b915061299b82612934565b604082019050919050565b600060208201905081810360008301526129bf81612983565b9050919050565b7f4552433732313a20617070726f76652063616c6c6572206973206e6f74206f7760008201527f6e6572206e6f7220617070726f76656420666f7220616c6c0000000000000000602082015250565b6000612a22603883612209565b9150612a2d826129c6565b604082019050919050565b60006020820190508181036000830152612a5181612a15565b9050919050565b7f4552433732313a207472616e736665722063616c6c6572206973206e6f74206f60008201527f776e6572206e6f7220617070726f766564000000000000000000000000000000602082015250565b6000612ab4603183612209565b9150612abf82612a58565b604082019050919050565b60006020820190508181036000830152612ae381612aa7565b9050919050565b7f455243373231456e756d657261626c653a206f776e657220696e646578206f7560008201527f74206f6620626f756e6473000000000000000000000000000000000000000000602082015250565b6000612b46602b83612209565b9150612b5182612aea565b604082019050919050565b60006020820190508181036000830152612b7581612b39565b9050919050565b600081905092915050565b6000612b92826121fe565b612b9c8185612b7c565b9350612bac81856020860161221a565b80840191505092915050565b6000612bc48284612b87565b915081905092915050565b7f4552433732313a20746f6b656e20646f6573206e6f7420657869737400000000600082015250565b6000612c05601c83612209565b9150612c1082612bcf565b602082019050919050565b60006020820190508181036000830152612c3481612bf8565b9050919050565b7f455243373231456e756d657261626c653a20676c6f62616c20696e646578206f60008201527f7574206f6620626f756e64730000000000000000000000000000000000000000602082015250565b6000612c97602c83612209565b9150612ca282612c3b565b604082019050919050565b60006020820190508181036000830152612cc681612c8a565b9050919050565b7f4e487b7100000000000000000000000000000000000000000000000000000000600052603260045260246000fd5b7f4552433732313a206f776e657220717565727920666f72206e6f6e657869737460008201527f656e7420746f6b656e0000000000000000000000000000000000000000000000602082015250565b6000612d58602983612209565b9150612d6382612cfc565b604082019050919050565b60006020820190508181036000830152612d8781612d4b565b9050919050565b7f4552433732313a2062616c616e636520717565727920666f7220746865207a6560008201527f726f206164647265737300000000000000000000000000000000000000000000602082015250565b6000612dea602a83612209565b9150612df582612d8e565b604082019050919050565b60006020820190508181036000830152612e1981612ddd565b9050919050565b7f4f776e61626c653a2063616c6c6572206973206e6f7420746865206f776e6572600082015250565b6000612e56602083612209565b9150612e6182612e20565b602082019050919050565b60006020820190508181036000830152612e8581612e49565b9050919050565b7f4552433732313a20617070726f766520746f2063616c6c657200000000000000600082015250565b6000612ec2601983612209565b9150612ecd82612e8c565b602082019050919050565b60006020820190508181036000830152612ef181612eb5565b9050919050565b7f4552433732314d657461646174613a2055524920717565727920666f72206e6f60008201527f6e6578697374656e7420746f6b656e0000000000000000000000000000000000602082015250565b6000612f54602f83612209565b9150612f5f82612ef8565b604082019050919050565b60006020820190508181036000830152612f8381612f47565b9050919050565b6000612f968285612b87565b9150612fa28284612b87565b91508190509392505050565b7f4552433732313a20746f6b656e20616c72656164792065786973747300000000600082015250565b6000612fe4601c83612209565b9150612fef82612fae565b602082019050919050565b6000602082019050818103600083015261301381612fd7565b9050919050565b60008190508160005260206000209050919050565b60006020601f8301049050919050565b600082821b905092915050565b60006008830261307c7fffffffffffffffffffffffffffffffffffffffffffffffffffffffffffffffff8261303f565b613086868361303f565b95508019841693508086168417925050509392505050565b6000819050919050565b60006130c36130be6130b9846122b0565b61309e565b6122b0565b9050919050565b6000819050919050565b6130dd836130a8565b6130f16130e9826130ca565b84845461304c565b825550505050565b600090565b6131066130f9565b6131118184846130d4565b505050565b5b818110156131355761312a6000826130fe565b600181019050613117565b5050565b601f82111561317a5761314b8161301a565b6131548461302f565b81016020851015613163578190505b61317761316f8561302f565b830182613116565b50505b505050565b600082821c905092915050565b600061319d6000198460080261317f565b1980831691505092915050565b60006131b6838361318c565b9150826002028217905092915050565b6131cf826121fe565b67ffffffffffffffff8111156131e8576131e7612462565b5b6131f28254612871565b6131fd828285613139565b600060209050601f831160018114613230576000841561321e578287015190505b61322885826131aa565b865550613290565b601f19841661323e8661301a565b60005b8281101561326657848901518255600182019150602085019450602081019050613241565b86831015613283578489015161327f601f89168261318c565b8355505b6001600288020188555050505b505050505050565b7f4e487b7100000000000000000000000000000000000000000000000000000000600052601160045260246000fd5b60006132d2826122b0565b91506132dd836122b0565b92508282039050818111156132f5576132f4613298565b5b92915050565b7f4f776e61626c653a206e6577206f776e657220697320746865207a65726f206160008201527f6464726573730000000000000000000000000000000000000000000000000000602082015250565b6000613357602683612209565b9150613362826132fb565b604082019050919050565b600060208201905081810360008301526133868161334a565b9050919050565b7f4552433732313a206f70657261746f7220717565727920666f72206e6f6e657860008201527f697374656e7420746f6b656e0000000000000000000000000000000000000000602082015250565b60006133e9602c83612209565b91506133f48261338d565b604082019050919050565b60006020820190508181036000830152613418816133dc565b9050919050565b7f4552433732313a207472616e73666572206f6620746f6b656e2074686174206960008201527f73206e6f74206f776e0000000000000000000000000000000000000000000000602082015250565b600061347b602983612209565b91506134868261341f565b604082019050919050565b600060208201905081810360008301526134aa8161346e565b9050919050565b7f4552433732313a207472616e7366657220746f20746865207a65726f2061646460008201527f7265737300000000000000000000000000000000000000000000000000000000602082015250565b600061350d602483612209565b9150613518826134b1565b604082019050919050565b6000602082019050818103600083015261353c81613500565b9050919050565b600061354e826122b0565b9150613559836122b0565b925082820190508082111561357157613570613298565b5b92915050565b7f4552433732313a207472616e7366657220746f206e6f6e20455243373231526560008201527f63656976657220696d706c656d656e7465720000000000000000000000000000602082015250565b60006135d3603283612209565b91506135de82613577565b604082019050919050565b60006020820190508181036000830152613602816135c6565b9050919050565b6000613614826122b0565b91507fffffffffffffffffffffffffffffffffffffffffffffffffffffffffffffffff820361364657613645613298565b5b600182019050919050565b7f4e487b7100000000000000000000000000000000000000000000000000000000600052601260045260246000fd5b600061368b826122b0565b9150613696836122b0565b9250826136a6576136a5613651565b5b828204905092915050565b60006136bc826122b0565b91506136c7836122b0565b9250826136d7576136d6613651565b5b828206905092915050565b7f4552433732313a206d696e7420746f20746865207a65726f2061646472657373600082015250565b6000613718602083612209565b9150613723826136e2565b602082019050919050565b600060208201905081810360008301526137478161370b565b9050919050565b7f4552433732313a20746f6b656e20616c7265616479206d696e74656400000000600082015250565b6000613784601c83612209565b915061378f8261374e565b602082019050919050565b600060208201905081810360008301526137b381613777565b9050919050565b600081519050919050565b600082825260208201905092915050565b60006137e1826137ba565b6137eb81856137c5565b93506137fb81856020860161221a565b61380481612244565b840191505092915050565b60006080820190506138246000830187612345565b6138316020830186612345565b61383e60408301856123db565b818103606083015261385081846137d6565b905095945050505050565b60008151905061386a8161216f565b92915050565b60006020828403121561388657613885612139565b5b60006138948482850161385b565b91505092915050565b7f4e487b7100000000000000000000000000000000000000000000000000000000600052603160045260246000fdfea264697066735822122082772fde51fea93dcb7147842e72ae97c5055b9669ca2e9980d9afbd2b5ec0c464736f6c63430008110033",
  "immutableReferences": {},
  "source": "// SPDX-License-Identifier: MIT\npragma solidity ^0.8.0;\n\n// openzeppelinimport\nimport \"../../node_modules/@openzeppelin/contracts/token/ERC721/extensions/ERC721Enumerable.sol\";\nimport \"../../node_modules/@openzeppelin/contracts/access/Ownable.sol\";\nimport \"../../node_modules/@openzeppelin/contracts/utils/Counters.sol\";\n\n//contract AvatarNFT is ERC721, Ownable {\ncontract KryptoBird is ERC721Enumerable, Ownable {\n\n    string[] public KryptoBirdz;\n    mapping(string => bool) _kryptoBirdExists;\n\n    function mint(string memory _kryptoBird) public {\n        require(!_kryptoBirdExists[_kryptoBird], \"ERC721: token already exists\");\n\n        KryptoBirdz.push(_kryptoBird);\n        uint _id = KryptoBirdz.length -1;\n\n        _mint(msg.sender, _id);\n    } \n\n    function safeTransferFrom(address to, uint tokenId, string memory _kryptoBird) public {\n        require(_kryptoBirdExists[_kryptoBird], \"ERC721: token does not exist\");\n\n        _safeTransfer(msg.sender, to, tokenId, \"\");\n    }\n\n    // tokenIdCoounter\n    using Counters for Counters.Counter;\n\n    // tokenNameSymbol\n    constructor() ERC721(\"Avatar\", \"AVT\"){}\n\n    // Counter_tokenIdCounter\n    Counters.Counter private _tokenIdCounter;\n}",
  "sourcePath": "/Users/takagihrs/Desktop/MyProject/dapp/nft-marketplace/src/contracts/AvatarNFT.sol",
  "compiler": {
    "name": "solc",
    "version": "0.8.17+commit.8df45f5f.Emscripten.clang"
  },
  "schemaVersion": "3.4.7",
  "updatedAt": "2022-09-24T12:24:58.511Z",
  "devdoc": {
    "kind": "dev",
    "methods": {
      "approve(address,uint256)": {
        "details": "See {IERC721-approve}."
      },
      "balanceOf(address)": {
        "details": "See {IERC721-balanceOf}."
      },
      "getApproved(uint256)": {
        "details": "See {IERC721-getApproved}."
      },
      "isApprovedForAll(address,address)": {
        "details": "See {IERC721-isApprovedForAll}."
      },
      "name()": {
        "details": "See {IERC721Metadata-name}."
      },
      "owner()": {
        "details": "Returns the address of the current owner."
      },
      "ownerOf(uint256)": {
        "details": "See {IERC721-ownerOf}."
      },
      "renounceOwnership()": {
        "details": "Leaves the contract without owner. It will not be possible to call `onlyOwner` functions anymore. Can only be called by the current owner. NOTE: Renouncing ownership will leave the contract without an owner, thereby removing any functionality that is only available to the owner."
      },
      "safeTransferFrom(address,address,uint256)": {
        "details": "See {IERC721-safeTransferFrom}."
      },
      "safeTransferFrom(address,address,uint256,bytes)": {
        "details": "See {IERC721-safeTransferFrom}."
      },
      "setApprovalForAll(address,bool)": {
        "details": "See {IERC721-setApprovalForAll}."
      },
      "supportsInterface(bytes4)": {
        "details": "See {IERC165-supportsInterface}."
      },
      "symbol()": {
        "details": "See {IERC721Metadata-symbol}."
      },
      "tokenByIndex(uint256)": {
        "details": "See {IERC721Enumerable-tokenByIndex}."
      },
      "tokenOfOwnerByIndex(address,uint256)": {
        "details": "See {IERC721Enumerable-tokenOfOwnerByIndex}."
      },
      "tokenURI(uint256)": {
        "details": "See {IERC721Metadata-tokenURI}."
      },
      "totalSupply()": {
        "details": "See {IERC721Enumerable-totalSupply}."
      },
      "transferFrom(address,address,uint256)": {
        "details": "See {IERC721-transferFrom}."
      },
      "transferOwnership(address)": {
        "details": "Transfers ownership of the contract to a new account (`newOwner`). Can only be called by the current owner."
      }
    },
    "version": 1
  },
  "userdoc": {
    "kind": "user",
    "methods": {},
    "version": 1
  }
}