{
  "contractName": "KryptoBird",
  "abi": [
    {
      "inputs": [],
      "stateMutability": "nonpayable",
      "type": "constructor"
    },
    {
      "anonymous": false,
      "inputs": [
        {
          "indexed": true,
          "internalType": "address",
          "name": "owner",
          "type": "address"
        },
        {
          "indexed": true,
          "internalType": "address",
          "name": "approved",
          "type": "address"
        },
        {
          "indexed": true,
          "internalType": "uint256",
          "name": "tokenId",
          "type": "uint256"
        }
      ],
      "name": "Approval",
      "type": "event"
    },
    {
      "anonymous": false,
      "inputs": [
        {
          "indexed": true,
          "internalType": "address",
          "name": "owner",
          "type": "address"
        },
        {
          "indexed": true,
          "internalType": "address",
          "name": "operator",
          "type": "address"
        },
        {
          "indexed": false,
          "internalType": "bool",
          "name": "approved",
          "type": "bool"
        }
      ],
      "name": "ApprovalForAll",
      "type": "event"
    },
    {
      "anonymous": false,
      "inputs": [
        {
          "indexed": true,
          "internalType": "address",
          "name": "previousOwner",
          "type": "address"
        },
        {
          "indexed": true,
          "internalType": "address",
          "name": "newOwner",
          "type": "address"
        }
      ],
      "name": "OwnershipTransferred",
      "type": "event"
    },
    {
      "anonymous": false,
      "inputs": [
        {
          "indexed": true,
          "internalType": "address",
          "name": "from",
          "type": "address"
        },
        {
          "indexed": true,
          "internalType": "address",
          "name": "to",
          "type": "address"
        },
        {
          "indexed": true,
          "internalType": "uint256",
          "name": "tokenId",
          "type": "uint256"
        }
      ],
      "name": "Transfer",
      "type": "event"
    },
    {
      "inputs": [
        {
          "internalType": "uint256",
          "name": "",
          "type": "uint256"
        }
      ],
      "name": "KryptoBirdz",
      "outputs": [
        {
          "internalType": "string",
          "name": "",
          "type": "string"
        }
      ],
      "stateMutability": "view",
      "type": "function",
      "constant": true
    },
    {
      "inputs": [
        {
          "internalType": "address",
          "name": "to",
          "type": "address"
        },
        {
          "internalType": "uint256",
          "name": "tokenId",
          "type": "uint256"
        }
      ],
      "name": "approve",
      "outputs": [],
      "stateMutability": "nonpayable",
      "type": "function"
    },
    {
      "inputs": [
        {
          "internalType": "address",
          "name": "owner",
          "type": "address"
        }
      ],
      "name": "balanceOf",
      "outputs": [
        {
          "internalType": "uint256",
          "name": "",
          "type": "uint256"
        }
      ],
      "stateMutability": "view",
      "type": "function",
      "constant": true
    },
    {
      "inputs": [
        {
          "internalType": "uint256",
          "name": "tokenId",
          "type": "uint256"
        }
      ],
      "name": "getApproved",
      "outputs": [
        {
          "internalType": "address",
          "name": "",
          "type": "address"
        }
      ],
      "stateMutability": "view",
      "type": "function",
      "constant": true
    },
    {
      "inputs": [
        {
          "internalType": "address",
          "name": "owner",
          "type": "address"
        },
        {
          "internalType": "address",
          "name": "operator",
          "type": "address"
        }
      ],
      "name": "isApprovedForAll",
      "outputs": [
        {
          "internalType": "bool",
          "name": "",
          "type": "bool"
        }
      ],
      "stateMutability": "view",
      "type": "function",
      "constant": true
    },
    {
      "inputs": [],
      "name": "name",
      "outputs": [
        {
          "internalType": "string",
          "name": "",
          "type": "string"
        }
      ],
      "stateMutability": "view",
      "type": "function",
      "constant": true
    },
    {
      "inputs": [],
      "name": "owner",
      "outputs": [
        {
          "internalType": "address",
          "name": "",
          "type": "address"
        }
      ],
      "stateMutability": "view",
      "type": "function",
      "constant": true
    },
    {
      "inputs": [
        {
          "internalType": "uint256",
          "name": "tokenId",
          "type": "uint256"
        }
      ],
      "name": "ownerOf",
      "outputs": [
        {
          "internalType": "address",
          "name": "",
          "type": "address"
        }
      ],
      "stateMutability": "view",
      "type": "function",
      "constant": true
    },
    {
      "inputs": [],
      "name": "renounceOwnership",
      "outputs": [],
      "stateMutability": "nonpayable",
      "type": "function"
    },
    {
      "inputs": [
        {
          "internalType": "address",
          "name": "from",
          "type": "address"
        },
        {
          "internalType": "address",
          "name": "to",
          "type": "address"
        },
        {
          "internalType": "uint256",
          "name": "tokenId",
          "type": "uint256"
        }
      ],
      "name": "safeTransferFrom",
      "outputs": [],
      "stateMutability": "nonpayable",
      "type": "function"
    },
    {
      "inputs": [
        {
          "internalType": "address",
          "name": "from",
          "type": "address"
        },
        {
          "internalType": "address",
          "name": "to",
          "type": "address"
        },
        {
          "internalType": "uint256",
          "name": "tokenId",
          "type": "uint256"
        },
        {
          "internalType": "bytes",
          "name": "_data",
          "type": "bytes"
        }
      ],
      "name": "safeTransferFrom",
      "outputs": [],
      "stateMutability": "nonpayable",
      "type": "function"
    },
    {
      "inputs": [
        {
          "internalType": "address",
          "name": "operator",
          "type": "address"
        },
        {
          "internalType": "bool",
          "name": "approved",
          "type": "bool"
        }
      ],
      "name": "setApprovalForAll",
      "outputs": [],
      "stateMutability": "nonpayable",
      "type": "function"
    },
    {
      "inputs": [
        {
          "internalType": "bytes4",
          "name": "interfaceId",
          "type": "bytes4"
        }
      ],
      "name": "supportsInterface",
      "outputs": [
        {
          "internalType": "bool",
          "name": "",
          "type": "bool"
        }
      ],
      "stateMutability": "view",
      "type": "function",
      "constant": true
    },
    {
      "inputs": [],
      "name": "symbol",
      "outputs": [
        {
          "internalType": "string",
          "name": "",
          "type": "string"
        }
      ],
      "stateMutability": "view",
      "type": "function",
      "constant": true
    },
    {
      "inputs": [
        {
          "internalType": "uint256",
          "name": "index",
          "type": "uint256"
        }
      ],
      "name": "tokenByIndex",
      "outputs": [
        {
          "internalType": "uint256",
          "name": "",
          "type": "uint256"
        }
      ],
      "stateMutability": "view",
      "type": "function",
      "constant": true
    },
    {
      "inputs": [
        {
          "internalType": "address",
          "name": "owner",
          "type": "address"
        },
        {
          "internalType": "uint256",
          "name": "index",
          "type": "uint256"
        }
      ],
      "name": "tokenOfOwnerByIndex",
      "outputs": [
        {
          "internalType": "uint256",
          "name": "",
          "type": "uint256"
        }
      ],
      "stateMutability": "view",
      "type": "function",
      "constant": true
    },
    {
      "inputs": [
        {
          "internalType": "uint256",
          "name": "tokenId",
          "type": "uint256"
        }
      ],
      "name": "tokenURI",
      "outputs": [
        {
          "internalType": "string",
          "name": "",
          "type": "string"
        }
      ],
      "stateMutability": "view",
      "type": "function",
      "constant": true
    },
    {
      "inputs": [],
      "name": "totalSupply",
      "outputs": [
        {
          "internalType": "uint256",
          "name": "",
          "type": "uint256"
        }
      ],
      "stateMutability": "view",
      "type": "function",
      "constant": true
    },
    {
      "inputs": [
        {
          "internalType": "address",
          "name": "from",
          "type": "address"
        },
        {
          "internalType": "address",
          "name": "to",
          "type": "address"
        },
        {
          "internalType": "uint256",
          "name": "tokenId",
          "type": "uint256"
        }
      ],
      "name": "transferFrom",
      "outputs": [],
      "stateMutability": "nonpayable",
      "type": "function"
    },
    {
      "inputs": [
        {
          "internalType": "address",
          "name": "newOwner",
          "type": "address"
        }
      ],
      "name": "transferOwnership",
      "outputs": [],
      "stateMutability": "nonpayable",
      "type": "function"
    },
    {
      "inputs": [
        {
          "internalType": "string",
          "name": "_kryptoBird",
          "type": "string"
        }
      ],
      "name": "mint",
      "outputs": [],
      "stateMutability": "nonpayable",
      "type": "function"
    },
    {
      "inputs": [
        {
          "internalType": "address",
          "name": "to",
          "type": "address"
        }
      ],
      "name": "safeMint",
      "outputs": [],
      "stateMutability": "nonpayable",
      "type": "function"
    }
  ],
  "bytecode": "0x60806040523480156200001157600080fd5b506040518060400160405280600681526020017f41766174617200000000000000000000000000000000000000000000000000008152506040518060400160405280600381526020017f415654000000000000000000000000000000000000000000000000000000000081525081600090816200008f919062000412565b508060019081620000a1919062000412565b505050620000c4620000b8620000ca60201b60201c565b620000d260201b60201c565b620004f9565b600033905090565b6000600a60009054906101000a900473ffffffffffffffffffffffffffffffffffffffff16905081600a60006101000a81548173ffffffffffffffffffffffffffffffffffffffff021916908373ffffffffffffffffffffffffffffffffffffffff1602179055508173ffffffffffffffffffffffffffffffffffffffff168173ffffffffffffffffffffffffffffffffffffffff167f8be0079c531659141344cd1fd0a4f28419497f9722a3daafe3b4186f6b6457e060405160405180910390a35050565b600081519050919050565b7f4e487b7100000000000000000000000000000000000000000000000000000000600052604160045260246000fd5b7f4e487b7100000000000000000000000000000000000000000000000000000000600052602260045260246000fd5b600060028204905060018216806200021a57607f821691505b60208210810362000230576200022f620001d2565b5b50919050565b60008190508160005260206000209050919050565b60006020601f8301049050919050565b600082821b905092915050565b6000600883026200029a7fffffffffffffffffffffffffffffffffffffffffffffffffffffffffffffffff826200025b565b620002a686836200025b565b95508019841693508086168417925050509392505050565b6000819050919050565b6000819050919050565b6000620002f3620002ed620002e784620002be565b620002c8565b620002be565b9050919050565b6000819050919050565b6200030f83620002d2565b620003276200031e82620002fa565b84845462000268565b825550505050565b600090565b6200033e6200032f565b6200034b81848462000304565b505050565b5b8181101562000373576200036760008262000334565b60018101905062000351565b5050565b601f821115620003c2576200038c8162000236565b62000397846200024b565b81016020851015620003a7578190505b620003bf620003b6856200024b565b83018262000350565b50505b505050565b600082821c905092915050565b6000620003e760001984600802620003c7565b1980831691505092915050565b6000620004028383620003d4565b9150826002028217905092915050565b6200041d8262000198565b67ffffffffffffffff811115620004395762000438620001a3565b5b62000445825462000201565b6200045282828562000377565b600060209050601f8311600181146200048a576000841562000475578287015190505b620004818582620003f4565b865550620004f1565b601f1984166200049a8662000236565b60005b82811015620004c4578489015182556001820191506020850194506020810190506200049d565b86831015620004e45784890151620004e0601f891682620003d4565b8355505b6001600288020188555050505b505050505050565b61395580620005096000396000f3fe608060405234801561001057600080fd5b50600436106101425760003560e01c806370a08231116100b8578063a3a1ff581161007c578063a3a1ff5814610375578063b88d4fde146103a5578063c87b56dd146103c1578063d85d3d27146103f1578063e985e9c51461040d578063f2fde38b1461043d57610142565b806370a08231146102e3578063715018a6146103135780638da5cb5b1461031d57806395d89b411461033b578063a22cb4651461035957610142565b806323b872dd1161010a57806323b872dd146101ff5780632f745c591461021b57806340d097c31461024b57806342842e0e146102675780634f6ccce7146102835780636352211e146102b357610142565b806301ffc9a71461014757806306fdde0314610177578063081812fc14610195578063095ea7b3146101c557806318160ddd146101e1575b600080fd5b610161600480360381019061015c9190612258565b610459565b60405161016e91906122a0565b60405180910390f35b61017f6104d3565b60405161018c9190612354565b60405180910390f35b6101af60048036038101906101aa91906123ac565b610565565b6040516101bc919061241a565b60405180910390f35b6101df60048036038101906101da9190612461565b6105ea565b005b6101e9610701565b6040516101f691906124b0565b60405180910390f35b610219600480360381019061021491906124cb565b61070e565b005b61023560048036038101906102309190612461565b61076e565b60405161024291906124b0565b60405180910390f35b6102656004803603810190610260919061251e565b610813565b005b610281600480360381019061027c91906124cb565b6108b5565b005b61029d600480360381019061029891906123ac565b6108d5565b6040516102aa91906124b0565b60405180910390f35b6102cd60048036038101906102c891906123ac565b610946565b6040516102da919061241a565b60405180910390f35b6102fd60048036038101906102f8919061251e565b6109f7565b60405161030a91906124b0565b60405180910390f35b61031b610aae565b005b610325610b36565b604051610332919061241a565b60405180910390f35b610343610b60565b6040516103509190612354565b60405180910390f35b610373600480360381019061036e9190612577565b610bf2565b005b61038f600480360381019061038a91906123ac565b610d72565b60405161039c9190612354565b60405180910390f35b6103bf60048036038101906103ba91906126ec565b610e1e565b005b6103db60048036038101906103d691906123ac565b610e80565b6040516103e89190612354565b60405180910390f35b61040b60048036038101906104069190612810565b610f27565b005b61042760048036038101906104229190612859565b610fec565b60405161043491906122a0565b60405180910390f35b6104576004803603810190610452919061251e565b611080565b005b60007f780e9d63000000000000000000000000000000000000000000000000000000007bffffffffffffffffffffffffffffffffffffffffffffffffffffffff1916827bffffffffffffffffffffffffffffffffffffffffffffffffffffffff191614806104cc57506104cb82611177565b5b9050919050565b6060600080546104e2906128c8565b80601f016020809104026020016040519081016040528092919081815260200182805461050e906128c8565b801561055b5780601f106105305761010080835404028352916020019161055b565b820191906000526020600020905b81548152906001019060200180831161053e57829003601f168201915b5050505050905090565b600061057082611259565b6105af576040517f08c379a00000000000000000000000000000000000000000000000000000000081526004016105a69061296b565b60405180910390fd5b6004600083815260200190815260200160002060009054906101000a900473ffffffffffffffffffffffffffffffffffffffff169050919050565b60006105f582610946565b90508073ffffffffffffffffffffffffffffffffffffffff168373ffffffffffffffffffffffffffffffffffffffff1603610665576040517f08c379a000000000000000000000000000000000000000000000000000000000815260040161065c906129fd565b60405180910390fd5b8073ffffffffffffffffffffffffffffffffffffffff166106846112c5565b73ffffffffffffffffffffffffffffffffffffffff1614806106b357506106b2816106ad6112c5565b610fec565b5b6106f2576040517f08c379a00000000000000000000000000000000000000000000000000000000081526004016106e990612a8f565b60405180910390fd5b6106fc83836112cd565b505050565b6000600880549050905090565b61071f6107196112c5565b82611386565b61075e576040517f08c379a000000000000000000000000000000000000000000000000000000000815260040161075590612b21565b60405180910390fd5b610769838383611464565b505050565b6000610779836109f7565b82106107ba576040517f08c379a00000000000000000000000000000000000000000000000000000000081526004016107b190612bb3565b60405180910390fd5b600660008473ffffffffffffffffffffffffffffffffffffffff1673ffffffffffffffffffffffffffffffffffffffff168152602001908152602001600020600083815260200190815260200160002054905092915050565b61081b6112c5565b73ffffffffffffffffffffffffffffffffffffffff16610839610b36565b73ffffffffffffffffffffffffffffffffffffffff161461088f576040517f08c379a000000000000000000000000000000000000000000000000000000000815260040161088690612c1f565b60405180910390fd5b600061089b600d6116bf565b90506108a7600d6116cd565b6108b182826116e3565b5050565b6108d083838360405180602001604052806000815250610e1e565b505050565b60006108df610701565b8210610920576040517f08c379a000000000000000000000000000000000000000000000000000000000815260040161091790612cb1565b60405180910390fd5b6008828154811061093457610933612cd1565b5b90600052602060002001549050919050565b6000806002600084815260200190815260200160002060009054906101000a900473ffffffffffffffffffffffffffffffffffffffff169050600073ffffffffffffffffffffffffffffffffffffffff168173ffffffffffffffffffffffffffffffffffffffff16036109ee576040517f08c379a00000000000000000000000000000000000000000000000000000000081526004016109e590612d72565b60405180910390fd5b80915050919050565b60008073ffffffffffffffffffffffffffffffffffffffff168273ffffffffffffffffffffffffffffffffffffffff1603610a67576040517f08c379a0000000000000000000000000000000000000000000000000000000008152600401610a5e90612e04565b60405180910390fd5b600360008373ffffffffffffffffffffffffffffffffffffffff1673ffffffffffffffffffffffffffffffffffffffff168152602001908152602001600020549050919050565b610ab66112c5565b73ffffffffffffffffffffffffffffffffffffffff16610ad4610b36565b73ffffffffffffffffffffffffffffffffffffffff1614610b2a576040517f08c379a0000000000000000000000000000000000000000000000000000000008152600401610b2190612c1f565b60405180910390fd5b610b346000611701565b565b6000600a60009054906101000a900473ffffffffffffffffffffffffffffffffffffffff16905090565b606060018054610b6f906128c8565b80601f0160208091040260200160405190810160405280929190818152602001828054610b9b906128c8565b8015610be85780601f10610bbd57610100808354040283529160200191610be8565b820191906000526020600020905b815481529060010190602001808311610bcb57829003601f168201915b5050505050905090565b610bfa6112c5565b73ffffffffffffffffffffffffffffffffffffffff168273ffffffffffffffffffffffffffffffffffffffff1603610c67576040517f08c379a0000000000000000000000000000000000000000000000000000000008152600401610c5e90612e70565b60405180910390fd5b8060056000610c746112c5565b73ffffffffffffffffffffffffffffffffffffffff1673ffffffffffffffffffffffffffffffffffffffff16815260200190815260200160002060008473ffffffffffffffffffffffffffffffffffffffff1673ffffffffffffffffffffffffffffffffffffffff16815260200190815260200160002060006101000a81548160ff0219169083151502179055508173ffffffffffffffffffffffffffffffffffffffff16610d216112c5565b73ffffffffffffffffffffffffffffffffffffffff167f17307eab39ab6107e8899845ad3d59bd9653f200f220920489ca2b5937696c3183604051610d6691906122a0565b60405180910390a35050565b600b8181548110610d8257600080fd5b906000526020600020016000915090508054610d9d906128c8565b80601f0160208091040260200160405190810160405280929190818152602001828054610dc9906128c8565b8015610e165780601f10610deb57610100808354040283529160200191610e16565b820191906000526020600020905b815481529060010190602001808311610df957829003601f168201915b505050505081565b610e2f610e296112c5565b83611386565b610e6e576040517f08c379a0000000000000000000000000000000000000000000000000000000008152600401610e6590612b21565b60405180910390fd5b610e7a848484846117c7565b50505050565b6060610e8b82611259565b610eca576040517f08c379a0000000000000000000000000000000000000000000000000000000008152600401610ec190612f02565b60405180910390fd5b6000610ed4611823565b90506000815111610ef45760405180602001604052806000815250610f1f565b80610efe84611843565b604051602001610f0f929190612f5e565b6040516020818303038152906040525b915050919050565b600c81604051610f379190612f82565b908152602001604051809103902060009054906101000a900460ff1615610f93576040517f08c379a0000000000000000000000000000000000000000000000000000000008152600401610f8a90612fe5565b60405180910390fd5b600b81908060018154018082558091505060019003906000526020600020016000909190919091509081610fc791906131b1565b5060006001600b80549050610fdc91906132b2565b9050610fe833826119a3565b5050565b6000600560008473ffffffffffffffffffffffffffffffffffffffff1673ffffffffffffffffffffffffffffffffffffffff16815260200190815260200160002060008373ffffffffffffffffffffffffffffffffffffffff1673ffffffffffffffffffffffffffffffffffffffff16815260200190815260200160002060009054906101000a900460ff16905092915050565b6110886112c5565b73ffffffffffffffffffffffffffffffffffffffff166110a6610b36565b73ffffffffffffffffffffffffffffffffffffffff16146110fc576040517f08c379a00000000000000000000000000000000000000000000000000000000081526004016110f390612c1f565b60405180910390fd5b600073ffffffffffffffffffffffffffffffffffffffff168173ffffffffffffffffffffffffffffffffffffffff160361116b576040517f08c379a000000000000000000000000000000000000000000000000000000000815260040161116290613358565b60405180910390fd5b61117481611701565b50565b60007f80ac58cd000000000000000000000000000000000000000000000000000000007bffffffffffffffffffffffffffffffffffffffffffffffffffffffff1916827bffffffffffffffffffffffffffffffffffffffffffffffffffffffff1916148061124257507f5b5e139f000000000000000000000000000000000000000000000000000000007bffffffffffffffffffffffffffffffffffffffffffffffffffffffff1916827bffffffffffffffffffffffffffffffffffffffffffffffffffffffff1916145b80611252575061125182611b70565b5b9050919050565b60008073ffffffffffffffffffffffffffffffffffffffff166002600084815260200190815260200160002060009054906101000a900473ffffffffffffffffffffffffffffffffffffffff1673ffffffffffffffffffffffffffffffffffffffff1614159050919050565b600033905090565b816004600083815260200190815260200160002060006101000a81548173ffffffffffffffffffffffffffffffffffffffff021916908373ffffffffffffffffffffffffffffffffffffffff160217905550808273ffffffffffffffffffffffffffffffffffffffff1661134083610946565b73ffffffffffffffffffffffffffffffffffffffff167f8c5be1e5ebec7d5bd14f71427d1e84f3dd0314c0f7b2291e5b200ac8c7c3b92560405160405180910390a45050565b600061139182611259565b6113d0576040517f08c379a00000000000000000000000000000000000000000000000000000000081526004016113c7906133ea565b60405180910390fd5b60006113db83610946565b90508073ffffffffffffffffffffffffffffffffffffffff168473ffffffffffffffffffffffffffffffffffffffff16148061144a57508373ffffffffffffffffffffffffffffffffffffffff1661143284610565565b73ffffffffffffffffffffffffffffffffffffffff16145b8061145b575061145a8185610fec565b5b91505092915050565b8273ffffffffffffffffffffffffffffffffffffffff1661148482610946565b73ffffffffffffffffffffffffffffffffffffffff16146114da576040517f08c379a00000000000000000000000000000000000000000000000000000000081526004016114d19061347c565b60405180910390fd5b600073ffffffffffffffffffffffffffffffffffffffff168273ffffffffffffffffffffffffffffffffffffffff1603611549576040517f08c379a00000000000000000000000000000000000000000000000000000000081526004016115409061350e565b60405180910390fd5b611554838383611bda565b61155f6000826112cd565b6001600360008573ffffffffffffffffffffffffffffffffffffffff1673ffffffffffffffffffffffffffffffffffffffff16815260200190815260200160002060008282546115af91906132b2565b925050819055506001600360008473ffffffffffffffffffffffffffffffffffffffff1673ffffffffffffffffffffffffffffffffffffffff1681526020019081526020016000206000828254611606919061352e565b92505081905550816002600083815260200190815260200160002060006101000a81548173ffffffffffffffffffffffffffffffffffffffff021916908373ffffffffffffffffffffffffffffffffffffffff160217905550808273ffffffffffffffffffffffffffffffffffffffff168473ffffffffffffffffffffffffffffffffffffffff167fddf252ad1be2c89b69c2b068fc378daa952ba7f163c4a11628f55a4df523b3ef60405160405180910390a4505050565b600081600001549050919050565b6001816000016000828254019250508190555050565b6116fd828260405180602001604052806000815250611cec565b5050565b6000600a60009054906101000a900473ffffffffffffffffffffffffffffffffffffffff16905081600a60006101000a81548173ffffffffffffffffffffffffffffffffffffffff021916908373ffffffffffffffffffffffffffffffffffffffff1602179055508173ffffffffffffffffffffffffffffffffffffffff168173ffffffffffffffffffffffffffffffffffffffff167f8be0079c531659141344cd1fd0a4f28419497f9722a3daafe3b4186f6b6457e060405160405180910390a35050565b6117d2848484611464565b6117de84848484611d47565b61181d576040517f08c379a0000000000000000000000000000000000000000000000000000000008152600401611814906135f6565b60405180910390fd5b50505050565b60606040518060800160405280604681526020016138da60469139905090565b60606000820361188a576040518060400160405280600181526020017f3000000000000000000000000000000000000000000000000000000000000000815250905061199e565b600082905060005b600082146118bc5780806118a590613616565b915050600a826118b5919061368d565b9150611892565b60008167ffffffffffffffff8111156118d8576118d76125c1565b5b6040519080825280601f01601f19166020018201604052801561190a5781602001600182028036833780820191505090505b5090505b600085146119975760018261192391906132b2565b9150600a8561193291906136be565b603061193e919061352e565b60f81b81838151811061195457611953612cd1565b5b60200101907effffffffffffffffffffffffffffffffffffffffffffffffffffffffffffff1916908160001a905350600a85611990919061368d565b945061190e565b8093505050505b919050565b600073ffffffffffffffffffffffffffffffffffffffff168273ffffffffffffffffffffffffffffffffffffffff1603611a12576040517f08c379a0000000000000000000000000000000000000000000000000000000008152600401611a099061373b565b60405180910390fd5b611a1b81611259565b15611a5b576040517f08c379a0000000000000000000000000000000000000000000000000000000008152600401611a52906137a7565b60405180910390fd5b611a6760008383611bda565b6001600360008473ffffffffffffffffffffffffffffffffffffffff1673ffffffffffffffffffffffffffffffffffffffff1681526020019081526020016000206000828254611ab7919061352e565b92505081905550816002600083815260200190815260200160002060006101000a81548173ffffffffffffffffffffffffffffffffffffffff021916908373ffffffffffffffffffffffffffffffffffffffff160217905550808273ffffffffffffffffffffffffffffffffffffffff16600073ffffffffffffffffffffffffffffffffffffffff167fddf252ad1be2c89b69c2b068fc378daa952ba7f163c4a11628f55a4df523b3ef60405160405180910390a45050565b60007f01ffc9a7000000000000000000000000000000000000000000000000000000007bffffffffffffffffffffffffffffffffffffffffffffffffffffffff1916827bffffffffffffffffffffffffffffffffffffffffffffffffffffffff1916149050919050565b611be5838383611ece565b600073ffffffffffffffffffffffffffffffffffffffff168373ffffffffffffffffffffffffffffffffffffffff1603611c2757611c2281611ed3565b611c66565b8173ffffffffffffffffffffffffffffffffffffffff168373ffffffffffffffffffffffffffffffffffffffff1614611c6557611c648382611f1c565b5b5b600073ffffffffffffffffffffffffffffffffffffffff168273ffffffffffffffffffffffffffffffffffffffff1603611ca857611ca381612089565b611ce7565b8273ffffffffffffffffffffffffffffffffffffffff168273ffffffffffffffffffffffffffffffffffffffff1614611ce657611ce5828261215a565b5b5b505050565b611cf683836119a3565b611d036000848484611d47565b611d42576040517f08c379a0000000000000000000000000000000000000000000000000000000008152600401611d39906135f6565b60405180910390fd5b505050565b6000611d688473ffffffffffffffffffffffffffffffffffffffff166121d9565b15611ec1578373ffffffffffffffffffffffffffffffffffffffff1663150b7a02611d916112c5565b8786866040518563ffffffff1660e01b8152600401611db3949392919061381c565b6020604051808303816000875af1925050508015611def57506040513d601f19601f82011682018060405250810190611dec919061387d565b60015b611e71573d8060008114611e1f576040519150601f19603f3d011682016040523d82523d6000602084013e611e24565b606091505b506000815103611e69576040517f08c379a0000000000000000000000000000000000000000000000000000000008152600401611e60906135f6565b60405180910390fd5b805181602001fd5b63150b7a0260e01b7bffffffffffffffffffffffffffffffffffffffffffffffffffffffff1916817bffffffffffffffffffffffffffffffffffffffffffffffffffffffff191614915050611ec6565b600190505b949350505050565b505050565b6008805490506009600083815260200190815260200160002081905550600881908060018154018082558091505060019003906000526020600020016000909190919091505550565b60006001611f29846109f7565b611f3391906132b2565b9050600060076000848152602001908152602001600020549050818114612018576000600660008673ffffffffffffffffffffffffffffffffffffffff1673ffffffffffffffffffffffffffffffffffffffff168152602001908152602001600020600084815260200190815260200160002054905080600660008773ffffffffffffffffffffffffffffffffffffffff1673ffffffffffffffffffffffffffffffffffffffff168152602001908152602001600020600084815260200190815260200160002081905550816007600083815260200190815260200160002081905550505b6007600084815260200190815260200160002060009055600660008573ffffffffffffffffffffffffffffffffffffffff1673ffffffffffffffffffffffffffffffffffffffff16815260200190815260200160002060008381526020019081526020016000206000905550505050565b6000600160088054905061209d91906132b2565b90506000600960008481526020019081526020016000205490506000600883815481106120cd576120cc612cd1565b5b9060005260206000200154905080600883815481106120ef576120ee612cd1565b5b90600052602060002001819055508160096000838152602001908152602001600020819055506009600085815260200190815260200160002060009055600880548061213e5761213d6138aa565b5b6001900381819060005260206000200160009055905550505050565b6000612165836109f7565b905081600660008573ffffffffffffffffffffffffffffffffffffffff1673ffffffffffffffffffffffffffffffffffffffff168152602001908152602001600020600083815260200190815260200160002081905550806007600084815260200190815260200160002081905550505050565b600080823b905060008111915050919050565b6000604051905090565b600080fd5b600080fd5b60007fffffffff0000000000000000000000000000000000000000000000000000000082169050919050565b61223581612200565b811461224057600080fd5b50565b6000813590506122528161222c565b92915050565b60006020828403121561226e5761226d6121f6565b5b600061227c84828501612243565b91505092915050565b60008115159050919050565b61229a81612285565b82525050565b60006020820190506122b56000830184612291565b92915050565b600081519050919050565b600082825260208201905092915050565b60005b838110156122f55780820151818401526020810190506122da565b83811115612304576000848401525b50505050565b6000601f19601f8301169050919050565b6000612326826122bb565b61233081856122c6565b93506123408185602086016122d7565b6123498161230a565b840191505092915050565b6000602082019050818103600083015261236e818461231b565b905092915050565b6000819050919050565b61238981612376565b811461239457600080fd5b50565b6000813590506123a681612380565b92915050565b6000602082840312156123c2576123c16121f6565b5b60006123d084828501612397565b91505092915050565b600073ffffffffffffffffffffffffffffffffffffffff82169050919050565b6000612404826123d9565b9050919050565b612414816123f9565b82525050565b600060208201905061242f600083018461240b565b92915050565b61243e816123f9565b811461244957600080fd5b50565b60008135905061245b81612435565b92915050565b60008060408385031215612478576124776121f6565b5b60006124868582860161244c565b925050602061249785828601612397565b9150509250929050565b6124aa81612376565b82525050565b60006020820190506124c560008301846124a1565b92915050565b6000806000606084860312156124e4576124e36121f6565b5b60006124f28682870161244c565b93505060206125038682870161244c565b925050604061251486828701612397565b9150509250925092565b600060208284031215612534576125336121f6565b5b60006125428482850161244c565b91505092915050565b61255481612285565b811461255f57600080fd5b50565b6000813590506125718161254b565b92915050565b6000806040838503121561258e5761258d6121f6565b5b600061259c8582860161244c565b92505060206125ad85828601612562565b9150509250929050565b600080fd5b600080fd5b7f4e487b7100000000000000000000000000000000000000000000000000000000600052604160045260246000fd5b6125f98261230a565b810181811067ffffffffffffffff82111715612618576126176125c1565b5b80604052505050565b600061262b6121ec565b905061263782826125f0565b919050565b600067ffffffffffffffff821115612657576126566125c1565b5b6126608261230a565b9050602081019050919050565b82818337600083830152505050565b600061268f61268a8461263c565b612621565b9050828152602081018484840111156126ab576126aa6125bc565b5b6126b684828561266d565b509392505050565b600082601f8301126126d3576126d26125b7565b5b81356126e384826020860161267c565b91505092915050565b60008060008060808587031215612706576127056121f6565b5b60006127148782880161244c565b94505060206127258782880161244c565b935050604061273687828801612397565b925050606085013567ffffffffffffffff811115612757576127566121fb565b5b612763878288016126be565b91505092959194509250565b600067ffffffffffffffff82111561278a576127896125c1565b5b6127938261230a565b9050602081019050919050565b60006127b36127ae8461276f565b612621565b9050828152602081018484840111156127cf576127ce6125bc565b5b6127da84828561266d565b509392505050565b600082601f8301126127f7576127f66125b7565b5b81356128078482602086016127a0565b91505092915050565b600060208284031215612826576128256121f6565b5b600082013567ffffffffffffffff811115612844576128436121fb565b5b612850848285016127e2565b91505092915050565b600080604083850312156128705761286f6121f6565b5b600061287e8582860161244c565b925050602061288f8582860161244c565b9150509250929050565b7f4e487b7100000000000000000000000000000000000000000000000000000000600052602260045260246000fd5b600060028204905060018216806128e057607f821691505b6020821081036128f3576128f2612899565b5b50919050565b7f4552433732313a20617070726f76656420717565727920666f72206e6f6e657860008201527f697374656e7420746f6b656e0000000000000000000000000000000000000000602082015250565b6000612955602c836122c6565b9150612960826128f9565b604082019050919050565b6000602082019050818103600083015261298481612948565b9050919050565b7f4552433732313a20617070726f76616c20746f2063757272656e74206f776e6560008201527f7200000000000000000000000000000000000000000000000000000000000000602082015250565b60006129e76021836122c6565b91506129f28261298b565b604082019050919050565b60006020820190508181036000830152612a16816129da565b9050919050565b7f4552433732313a20617070726f76652063616c6c6572206973206e6f74206f7760008201527f6e6572206e6f7220617070726f76656420666f7220616c6c0000000000000000602082015250565b6000612a796038836122c6565b9150612a8482612a1d565b604082019050919050565b60006020820190508181036000830152612aa881612a6c565b9050919050565b7f4552433732313a207472616e736665722063616c6c6572206973206e6f74206f60008201527f776e6572206e6f7220617070726f766564000000000000000000000000000000602082015250565b6000612b0b6031836122c6565b9150612b1682612aaf565b604082019050919050565b60006020820190508181036000830152612b3a81612afe565b9050919050565b7f455243373231456e756d657261626c653a206f776e657220696e646578206f7560008201527f74206f6620626f756e6473000000000000000000000000000000000000000000602082015250565b6000612b9d602b836122c6565b9150612ba882612b41565b604082019050919050565b60006020820190508181036000830152612bcc81612b90565b9050919050565b7f4f776e61626c653a2063616c6c6572206973206e6f7420746865206f776e6572600082015250565b6000612c096020836122c6565b9150612c1482612bd3565b602082019050919050565b60006020820190508181036000830152612c3881612bfc565b9050919050565b7f455243373231456e756d657261626c653a20676c6f62616c20696e646578206f60008201527f7574206f6620626f756e64730000000000000000000000000000000000000000602082015250565b6000612c9b602c836122c6565b9150612ca682612c3f565b604082019050919050565b60006020820190508181036000830152612cca81612c8e565b9050919050565b7f4e487b7100000000000000000000000000000000000000000000000000000000600052603260045260246000fd5b7f4552433732313a206f776e657220717565727920666f72206e6f6e657869737460008201527f656e7420746f6b656e0000000000000000000000000000000000000000000000602082015250565b6000612d5c6029836122c6565b9150612d6782612d00565b604082019050919050565b60006020820190508181036000830152612d8b81612d4f565b9050919050565b7f4552433732313a2062616c616e636520717565727920666f7220746865207a6560008201527f726f206164647265737300000000000000000000000000000000000000000000602082015250565b6000612dee602a836122c6565b9150612df982612d92565b604082019050919050565b60006020820190508181036000830152612e1d81612de1565b9050919050565b7f4552433732313a20617070726f766520746f2063616c6c657200000000000000600082015250565b6000612e5a6019836122c6565b9150612e6582612e24565b602082019050919050565b60006020820190508181036000830152612e8981612e4d565b9050919050565b7f4552433732314d657461646174613a2055524920717565727920666f72206e6f60008201527f6e6578697374656e7420746f6b656e0000000000000000000000000000000000602082015250565b6000612eec602f836122c6565b9150612ef782612e90565b604082019050919050565b60006020820190508181036000830152612f1b81612edf565b9050919050565b600081905092915050565b6000612f38826122bb565b612f428185612f22565b9350612f528185602086016122d7565b80840191505092915050565b6000612f6a8285612f2d565b9150612f768284612f2d565b91508190509392505050565b6000612f8e8284612f2d565b915081905092915050565b7f4552433732313a20746f6b656e20616c72656164792065786973747300000000600082015250565b6000612fcf601c836122c6565b9150612fda82612f99565b602082019050919050565b60006020820190508181036000830152612ffe81612fc2565b9050919050565b60008190508160005260206000209050919050565b60006020601f8301049050919050565b600082821b905092915050565b6000600883026130677fffffffffffffffffffffffffffffffffffffffffffffffffffffffffffffffff8261302a565b613071868361302a565b95508019841693508086168417925050509392505050565b6000819050919050565b60006130ae6130a96130a484612376565b613089565b612376565b9050919050565b6000819050919050565b6130c883613093565b6130dc6130d4826130b5565b848454613037565b825550505050565b600090565b6130f16130e4565b6130fc8184846130bf565b505050565b5b81811015613120576131156000826130e9565b600181019050613102565b5050565b601f8211156131655761313681613005565b61313f8461301a565b8101602085101561314e578190505b61316261315a8561301a565b830182613101565b50505b505050565b600082821c905092915050565b60006131886000198460080261316a565b1980831691505092915050565b60006131a18383613177565b9150826002028217905092915050565b6131ba826122bb565b67ffffffffffffffff8111156131d3576131d26125c1565b5b6131dd82546128c8565b6131e8828285613124565b600060209050601f83116001811461321b5760008415613209578287015190505b6132138582613195565b86555061327b565b601f19841661322986613005565b60005b828110156132515784890151825560018201915060208501945060208101905061322c565b8683101561326e578489015161326a601f891682613177565b8355505b6001600288020188555050505b505050505050565b7f4e487b7100000000000000000000000000000000000000000000000000000000600052601160045260246000fd5b60006132bd82612376565b91506132c883612376565b9250828210156132db576132da613283565b5b828203905092915050565b7f4f776e61626c653a206e6577206f776e657220697320746865207a65726f206160008201527f6464726573730000000000000000000000000000000000000000000000000000602082015250565b60006133426026836122c6565b915061334d826132e6565b604082019050919050565b6000602082019050818103600083015261337181613335565b9050919050565b7f4552433732313a206f70657261746f7220717565727920666f72206e6f6e657860008201527f697374656e7420746f6b656e0000000000000000000000000000000000000000602082015250565b60006133d4602c836122c6565b91506133df82613378565b604082019050919050565b60006020820190508181036000830152613403816133c7565b9050919050565b7f4552433732313a207472616e73666572206f6620746f6b656e2074686174206960008201527f73206e6f74206f776e0000000000000000000000000000000000000000000000602082015250565b60006134666029836122c6565b91506134718261340a565b604082019050919050565b6000602082019050818103600083015261349581613459565b9050919050565b7f4552433732313a207472616e7366657220746f20746865207a65726f2061646460008201527f7265737300000000000000000000000000000000000000000000000000000000602082015250565b60006134f86024836122c6565b91506135038261349c565b604082019050919050565b60006020820190508181036000830152613527816134eb565b9050919050565b600061353982612376565b915061354483612376565b9250827fffffffffffffffffffffffffffffffffffffffffffffffffffffffffffffffff0382111561357957613578613283565b5b828201905092915050565b7f4552433732313a207472616e7366657220746f206e6f6e20455243373231526560008201527f63656976657220696d706c656d656e7465720000000000000000000000000000602082015250565b60006135e06032836122c6565b91506135eb82613584565b604082019050919050565b6000602082019050818103600083015261360f816135d3565b9050919050565b600061362182612376565b91507fffffffffffffffffffffffffffffffffffffffffffffffffffffffffffffffff820361365357613652613283565b5b600182019050919050565b7f4e487b7100000000000000000000000000000000000000000000000000000000600052601260045260246000fd5b600061369882612376565b91506136a383612376565b9250826136b3576136b261365e565b5b828204905092915050565b60006136c982612376565b91506136d483612376565b9250826136e4576136e361365e565b5b828206905092915050565b7f4552433732313a206d696e7420746f20746865207a65726f2061646472657373600082015250565b60006137256020836122c6565b9150613730826136ef565b602082019050919050565b6000602082019050818103600083015261375481613718565b9050919050565b7f4552433732313a20746f6b656e20616c7265616479206d696e74656400000000600082015250565b6000613791601c836122c6565b915061379c8261375b565b602082019050919050565b600060208201905081810360008301526137c081613784565b9050919050565b600081519050919050565b600082825260208201905092915050565b60006137ee826137c7565b6137f881856137d2565b93506138088185602086016122d7565b6138118161230a565b840191505092915050565b6000608082019050613831600083018761240b565b61383e602083018661240b565b61384b60408301856124a1565b818103606083015261385d81846137e3565b905095945050505050565b6000815190506138778161222c565b92915050565b600060208284031215613893576138926121f6565b5b60006138a184828501613868565b91505092915050565b7f4e487b7100000000000000000000000000000000000000000000000000000000600052603160045260246000fdfe68747470733a2f2f7261772e67697468756275736572636f6e74656e742e636f6d2f6f74616d7079333138342f6d657461646174612d6f6b75796f2f6d61696e2f6d6574612fa2646970667358221220c1589ade00a30cffe4867e5b90172c44de37bfb8d5e0deb42a3d4fcddc32f2a964736f6c634300080f0033",
  "immutableReferences": {},
  "source": "// SPDX-License-Identifier: MIT\npragma solidity ^0.8.0;\n\n// openzeppelinimport\nimport \"../../node_modules/@openzeppelin/contracts/token/erc721/extensions/ERC721Enumerable.sol\";\nimport \"../../node_modules/@openzeppelin/contracts/access/Ownable.sol\";\nimport \"../../node_modules/@openzeppelin/contracts/utils/Counters.sol\";\n\n//contract AvatarNFT is ERC721, Ownable {\ncontract KryptoBird is ERC721Enumerable, Ownable {\n\n    string[] public KryptoBirdz;\n    mapping(string => bool) _kryptoBirdExists;\n\n    function mint(string memory _kryptoBird) public {\n        require(!_kryptoBirdExists[_kryptoBird], \"ERC721: token already exists\");\n\n        KryptoBirdz.push(_kryptoBird);\n        uint _id = KryptoBirdz.length -1;\n\n        _mint(msg.sender, _id);\n    } \n\n    // tokenIdCoounter\n    using Counters for Counters.Counter;\n\n    // tokenNameSymbol\n    constructor() ERC721(\"Avatar\", \"AVT\"){}\n\n    // Counter_tokenIdCounter\n    Counters.Counter private _tokenIdCounter;\n\n    // MetadatabaseURI\n    function _baseURI() internal pure override returns (string memory) {\n        return \"https://raw.githubusercontent.com/otampy3184/metadata-okuyo/main/meta/\";\n    }\n    \n    // Mint\n    function safeMint(address to) public onlyOwner {\n        uint256 tokenId = _tokenIdCounter.current();\n        // incrementtokenId0\n        _tokenIdCounter.increment();\n        // Mint\n        _safeMint(to, tokenId);\n    }\n}",
  "sourcePath": "/Users/takagihrs/Desktop/MyProject/dapp/nft-marketplace/src/contracts/AvatarNFT.sol",
  "compiler": {
    "name": "solc",
    "version": "0.8.15+commit.e14f2714.Emscripten.clang"
  },
  "schemaVersion": "3.4.7",
  "updatedAt": "2022-06-24T11:27:49.037Z",
  "networkType": "ethereum",
  "devdoc": {
    "kind": "dev",
    "methods": {
      "approve(address,uint256)": {
        "details": "See {IERC721-approve}."
      },
      "balanceOf(address)": {
        "details": "See {IERC721-balanceOf}."
      },
      "getApproved(uint256)": {
        "details": "See {IERC721-getApproved}."
      },
      "isApprovedForAll(address,address)": {
        "details": "See {IERC721-isApprovedForAll}."
      },
      "name()": {
        "details": "See {IERC721Metadata-name}."
      },
      "owner()": {
        "details": "Returns the address of the current owner."
      },
      "ownerOf(uint256)": {
        "details": "See {IERC721-ownerOf}."
      },
      "renounceOwnership()": {
        "details": "Leaves the contract without owner. It will not be possible to call `onlyOwner` functions anymore. Can only be called by the current owner. NOTE: Renouncing ownership will leave the contract without an owner, thereby removing any functionality that is only available to the owner."
      },
      "safeTransferFrom(address,address,uint256)": {
        "details": "See {IERC721-safeTransferFrom}."
      },
      "safeTransferFrom(address,address,uint256,bytes)": {
        "details": "See {IERC721-safeTransferFrom}."
      },
      "setApprovalForAll(address,bool)": {
        "details": "See {IERC721-setApprovalForAll}."
      },
      "supportsInterface(bytes4)": {
        "details": "See {IERC165-supportsInterface}."
      },
      "symbol()": {
        "details": "See {IERC721Metadata-symbol}."
      },
      "tokenByIndex(uint256)": {
        "details": "See {IERC721Enumerable-tokenByIndex}."
      },
      "tokenOfOwnerByIndex(address,uint256)": {
        "details": "See {IERC721Enumerable-tokenOfOwnerByIndex}."
      },
      "tokenURI(uint256)": {
        "details": "See {IERC721Metadata-tokenURI}."
      },
      "totalSupply()": {
        "details": "See {IERC721Enumerable-totalSupply}."
      },
      "transferFrom(address,address,uint256)": {
        "details": "See {IERC721-transferFrom}."
      },
      "transferOwnership(address)": {
        "details": "Transfers ownership of the contract to a new account (`newOwner`). Can only be called by the current owner."
      }
    },
    "version": 1
  },
  "userdoc": {
    "kind": "user",
    "methods": {},
    "version": 1
  }
}