{
  "contractName": "KryptoBird",
  "abi": [
    {
      "inputs": [],
      "stateMutability": "nonpayable",
      "type": "constructor"
    },
    {
      "anonymous": false,
      "inputs": [
        {
          "indexed": false,
          "internalType": "address",
          "name": "from",
          "type": "address"
        },
        {
          "indexed": false,
          "internalType": "address",
          "name": "to",
          "type": "address"
        },
        {
          "indexed": false,
          "internalType": "uint256",
          "name": "tokenId",
          "type": "uint256"
        }
      ],
      "name": "Transfer",
      "type": "event"
    },
    {
      "inputs": [
        {
          "internalType": "uint256",
          "name": "",
          "type": "uint256"
        }
      ],
      "name": "KryptoBirdz",
      "outputs": [
        {
          "internalType": "string",
          "name": "",
          "type": "string"
        }
      ],
      "stateMutability": "view",
      "type": "function",
      "constant": true
    },
    {
      "inputs": [
        {
          "internalType": "address",
          "name": "_owner",
          "type": "address"
        }
      ],
      "name": "balanceOf",
      "outputs": [
        {
          "internalType": "uint256",
          "name": "",
          "type": "uint256"
        }
      ],
      "stateMutability": "view",
      "type": "function",
      "constant": true
    },
    {
      "inputs": [],
      "name": "name",
      "outputs": [
        {
          "internalType": "string",
          "name": "",
          "type": "string"
        }
      ],
      "stateMutability": "view",
      "type": "function",
      "constant": true
    },
    {
      "inputs": [
        {
          "internalType": "uint256",
          "name": "_tokenId",
          "type": "uint256"
        }
      ],
      "name": "ownerOf",
      "outputs": [
        {
          "internalType": "address",
          "name": "",
          "type": "address"
        }
      ],
      "stateMutability": "view",
      "type": "function",
      "constant": true
    },
    {
      "inputs": [],
      "name": "symbol",
      "outputs": [
        {
          "internalType": "string",
          "name": "",
          "type": "string"
        }
      ],
      "stateMutability": "view",
      "type": "function",
      "constant": true
    },
    {
      "inputs": [
        {
          "internalType": "uint256",
          "name": "index",
          "type": "uint256"
        }
      ],
      "name": "tokenByIndex",
      "outputs": [
        {
          "internalType": "uint256",
          "name": "",
          "type": "uint256"
        }
      ],
      "stateMutability": "view",
      "type": "function",
      "constant": true
    },
    {
      "inputs": [
        {
          "internalType": "address",
          "name": "owner",
          "type": "address"
        },
        {
          "internalType": "uint256",
          "name": "index",
          "type": "uint256"
        }
      ],
      "name": "tokenOfOwnerByIndex",
      "outputs": [
        {
          "internalType": "uint256",
          "name": "",
          "type": "uint256"
        }
      ],
      "stateMutability": "view",
      "type": "function",
      "constant": true
    },
    {
      "inputs": [],
      "name": "totalSupply",
      "outputs": [
        {
          "internalType": "uint256",
          "name": "",
          "type": "uint256"
        }
      ],
      "stateMutability": "view",
      "type": "function",
      "constant": true
    },
    {
      "inputs": [
        {
          "internalType": "address",
          "name": "_from",
          "type": "address"
        },
        {
          "internalType": "address",
          "name": "_to",
          "type": "address"
        },
        {
          "internalType": "uint256",
          "name": "_tokenId",
          "type": "uint256"
        }
      ],
      "name": "transferFrom",
      "outputs": [],
      "stateMutability": "nonpayable",
      "type": "function"
    },
    {
      "inputs": [
        {
          "internalType": "string",
          "name": "_kryptoBird",
          "type": "string"
        }
      ],
      "name": "mint",
      "outputs": [],
      "stateMutability": "nonpayable",
      "type": "function"
    }
  ],
  "bytecode": "0x60806040523480156200001157600080fd5b506040518060400160405280600a81526020017f4b727970746f42697264000000000000000000000000000000000000000000008152506040518060400160405280600681526020017f4b424952445a00000000000000000000000000000000000000000000000000008152508181816000908162000091919062000328565b508060019081620000a3919062000328565b50505050506200040f565b600081519050919050565b7f4e487b7100000000000000000000000000000000000000000000000000000000600052604160045260246000fd5b7f4e487b7100000000000000000000000000000000000000000000000000000000600052602260045260246000fd5b600060028204905060018216806200013057607f821691505b602082108103620001465762000145620000e8565b5b50919050565b60008190508160005260206000209050919050565b60006020601f8301049050919050565b600082821b905092915050565b600060088302620001b07fffffffffffffffffffffffffffffffffffffffffffffffffffffffffffffffff8262000171565b620001bc868362000171565b95508019841693508086168417925050509392505050565b6000819050919050565b6000819050919050565b60006200020962000203620001fd84620001d4565b620001de565b620001d4565b9050919050565b6000819050919050565b6200022583620001e8565b6200023d620002348262000210565b8484546200017e565b825550505050565b600090565b6200025462000245565b620002618184846200021a565b505050565b5b8181101562000289576200027d6000826200024a565b60018101905062000267565b5050565b601f821115620002d857620002a2816200014c565b620002ad8462000161565b81016020851015620002bd578190505b620002d5620002cc8562000161565b83018262000266565b50505b505050565b600082821c905092915050565b6000620002fd60001984600802620002dd565b1980831691505092915050565b6000620003188383620002ea565b9150826002028217905092915050565b6200033382620000ae565b67ffffffffffffffff8111156200034f576200034e620000b9565b5b6200035b825462000117565b620003688282856200028d565b600060209050601f831160018114620003a057600084156200038b578287015190505b6200039785826200030a565b86555062000407565b601f198416620003b0866200014c565b60005b82811015620003da57848901518255600182019150602085019450602081019050620003b3565b86831015620003fa5784890151620003f6601f891682620002ea565b8355505b6001600288020188555050505b505050505050565b611935806200041f6000396000f3fe608060405234801561001057600080fd5b506004361061009e5760003560e01c80636352211e116100665780636352211e1461015b57806370a082311461018b57806395d89b41146101bb578063a3a1ff58146101d9578063d85d3d27146102095761009e565b806306fdde03146100a357806318160ddd146100c157806323b872dd146100df5780632f745c59146100fb5780634f6ccce71461012b575b600080fd5b6100ab610225565b6040516100b89190610ce8565b60405180910390f35b6100c96102b7565b6040516100d69190610d23565b60405180910390f35b6100f960048036038101906100f49190610ddc565b6102c4565b005b61011560048036038101906101109190610e2f565b6102d4565b6040516101229190610d23565b60405180910390f35b61014560048036038101906101409190610e6f565b610384565b6040516101529190610d23565b60405180910390f35b61017560048036038101906101709190610e6f565b6103f5565b6040516101829190610eab565b60405180910390f35b6101a560048036038101906101a09190610ec6565b6104a6565b6040516101b29190610d23565b60405180910390f35b6101c361055d565b6040516101d09190610ce8565b60405180910390f35b6101f360048036038101906101ee9190610e6f565b6105ef565b6040516102009190610ce8565b60405180910390f35b610223600480360381019061021e9190611028565b61069b565b005b606060008054610234906110a0565b80601f0160208091040260200160405190810160405280929190818152602001828054610260906110a0565b80156102ad5780601f10610282576101008083540402835291602001916102ad565b820191906000526020600020905b81548152906001019060200180831161029057829003601f168201915b5050505050905090565b6000600580549050905090565b6102cf838383610797565b505050565b60006102df836104a6565b8210610320576040517f08c379a000000000000000000000000000000000000000000000000000000000815260040161031790611143565b60405180910390fd5b600760008473ffffffffffffffffffffffffffffffffffffffff1673ffffffffffffffffffffffffffffffffffffffff168152602001908152602001600020828154811061037157610370611163565b5b9060005260206000200154905092915050565b600061038e6102b7565b82106103cf576040517f08c379a00000000000000000000000000000000000000000000000000000000081526004016103c690611204565b60405180910390fd5b600582815481106103e3576103e2611163565b5b90600052602060002001549050919050565b6000806002600084815260200190815260200160002060009054906101000a900473ffffffffffffffffffffffffffffffffffffffff169050600073ffffffffffffffffffffffffffffffffffffffff168173ffffffffffffffffffffffffffffffffffffffff160361049d576040517f08c379a000000000000000000000000000000000000000000000000000000000815260040161049490611270565b60405180910390fd5b80915050919050565b60008073ffffffffffffffffffffffffffffffffffffffff168273ffffffffffffffffffffffffffffffffffffffff1603610516576040517f08c379a000000000000000000000000000000000000000000000000000000000815260040161050d90611302565b60405180910390fd5b600360008373ffffffffffffffffffffffffffffffffffffffff1673ffffffffffffffffffffffffffffffffffffffff168152602001908152602001600020549050919050565b60606001805461056c906110a0565b80601f0160208091040260200160405190810160405280929190818152602001828054610598906110a0565b80156105e55780601f106105ba576101008083540402835291602001916105e5565b820191906000526020600020905b8154815290600101906020018083116105c857829003601f168201915b5050505050905090565b600981815481106105ff57600080fd5b90600052602060002001600091509050805461061a906110a0565b80601f0160208091040260200160405190810160405280929190818152602001828054610646906110a0565b80156106935780601f1061066857610100808354040283529160200191610693565b820191906000526020600020905b81548152906001019060200180831161067657829003601f168201915b505050505081565b600a816040516106ab919061135e565b908152602001604051809103902060009054906101000a900460ff1615610707576040517f08c379a00000000000000000000000000000000000000000000000000000000081526004016106fe906113c1565b60405180910390fd5b60098190806001815401808255809150506001900390600052602060002001600090919091909150908161073b919061158d565b5060006001600980549050610750919061168e565b905061075c338261090e565b6001600a8360405161076e919061135e565b908152602001604051809103902060006101000a81548160ff0219169083151502179055505050565b600073ffffffffffffffffffffffffffffffffffffffff168273ffffffffffffffffffffffffffffffffffffffff1603610806576040517f08c379a00000000000000000000000000000000000000000000000000000000081526004016107fd9061170e565b60405180910390fd5b8273ffffffffffffffffffffffffffffffffffffffff16610826826103f5565b73ffffffffffffffffffffffffffffffffffffffff161461087c576040517f08c379a00000000000000000000000000000000000000000000000000000000081526004016108739061177a565b60405180910390fd5b816002600083815260200190815260200160002060006101000a81548173ffffffffffffffffffffffffffffffffffffffff021916908373ffffffffffffffffffffffffffffffffffffffff1602179055507fddf252ad1be2c89b69c2b068fc378daa952ba7f163c4a11628f55a4df523b3ef8383836040516109019392919061179a565b60405180910390a1505050565b610918828261092f565b61092181610ad0565b61092b8282610b19565b5050565b600073ffffffffffffffffffffffffffffffffffffffff168273ffffffffffffffffffffffffffffffffffffffff160361099e576040517f08c379a00000000000000000000000000000000000000000000000000000000081526004016109959061181d565b60405180910390fd5b6109a781610bdd565b156109e7576040517f08c379a00000000000000000000000000000000000000000000000000000000081526004016109de90611889565b60405180910390fd5b816002600083815260200190815260200160002060006101000a81548173ffffffffffffffffffffffffffffffffffffffff021916908373ffffffffffffffffffffffffffffffffffffffff1602179055506001600360008473ffffffffffffffffffffffffffffffffffffffff1673ffffffffffffffffffffffffffffffffffffffff1681526020019081526020016000206000828254610a8991906118a9565b925050819055507fddf252ad1be2c89b69c2b068fc378daa952ba7f163c4a11628f55a4df523b3ef60008383604051610ac49392919061179a565b60405180910390a15050565b6005805490506006600083815260200190815260200160002081905550600581908060018154018082558091505060019003906000526020600020016000909190919091505550565b600760008373ffffffffffffffffffffffffffffffffffffffff1673ffffffffffffffffffffffffffffffffffffffff168152602001908152602001600020805490506008600083815260200190815260200160002081905550600760008373ffffffffffffffffffffffffffffffffffffffff1673ffffffffffffffffffffffffffffffffffffffff1681526020019081526020016000208190806001815401808255809150506001900390600052602060002001600090919091909150555050565b6000806002600084815260200190815260200160002060009054906101000a900473ffffffffffffffffffffffffffffffffffffffff169050600073ffffffffffffffffffffffffffffffffffffffff168173ffffffffffffffffffffffffffffffffffffffff161415915050919050565b600081519050919050565b600082825260208201905092915050565b60005b83811015610c89578082015181840152602081019050610c6e565b83811115610c98576000848401525b50505050565b6000601f19601f8301169050919050565b6000610cba82610c4f565b610cc48185610c5a565b9350610cd4818560208601610c6b565b610cdd81610c9e565b840191505092915050565b60006020820190508181036000830152610d028184610caf565b905092915050565b6000819050919050565b610d1d81610d0a565b82525050565b6000602082019050610d386000830184610d14565b92915050565b6000604051905090565b600080fd5b600080fd5b600073ffffffffffffffffffffffffffffffffffffffff82169050919050565b6000610d7d82610d52565b9050919050565b610d8d81610d72565b8114610d9857600080fd5b50565b600081359050610daa81610d84565b92915050565b610db981610d0a565b8114610dc457600080fd5b50565b600081359050610dd681610db0565b92915050565b600080600060608486031215610df557610df4610d48565b5b6000610e0386828701610d9b565b9350506020610e1486828701610d9b565b9250506040610e2586828701610dc7565b9150509250925092565b60008060408385031215610e4657610e45610d48565b5b6000610e5485828601610d9b565b9250506020610e6585828601610dc7565b9150509250929050565b600060208284031215610e8557610e84610d48565b5b6000610e9384828501610dc7565b91505092915050565b610ea581610d72565b82525050565b6000602082019050610ec06000830184610e9c565b92915050565b600060208284031215610edc57610edb610d48565b5b6000610eea84828501610d9b565b91505092915050565b600080fd5b600080fd5b7f4e487b7100000000000000000000000000000000000000000000000000000000600052604160045260246000fd5b610f3582610c9e565b810181811067ffffffffffffffff82111715610f5457610f53610efd565b5b80604052505050565b6000610f67610d3e565b9050610f738282610f2c565b919050565b600067ffffffffffffffff821115610f9357610f92610efd565b5b610f9c82610c9e565b9050602081019050919050565b82818337600083830152505050565b6000610fcb610fc684610f78565b610f5d565b905082815260208101848484011115610fe757610fe6610ef8565b5b610ff2848285610fa9565b509392505050565b600082601f83011261100f5761100e610ef3565b5b813561101f848260208601610fb8565b91505092915050565b60006020828403121561103e5761103d610d48565b5b600082013567ffffffffffffffff81111561105c5761105b610d4d565b5b61106884828501610ffa565b91505092915050565b7f4e487b7100000000000000000000000000000000000000000000000000000000600052602260045260246000fd5b600060028204905060018216806110b857607f821691505b6020821081036110cb576110ca611071565b5b50919050565b7f455243373231456e756d657261626c653a206f776e657220696e64657820697360008201527f206f7574206f6620626f756e6473000000000000000000000000000000000000602082015250565b600061112d602e83610c5a565b9150611138826110d1565b604082019050919050565b6000602082019050818103600083015261115c81611120565b9050919050565b7f4e487b7100000000000000000000000000000000000000000000000000000000600052603260045260246000fd5b7f455243373231456e756d657261626c653a20676c6f62616c20696e646578206960008201527f73206f7574206f6620626f756e64730000000000000000000000000000000000602082015250565b60006111ee602f83610c5a565b91506111f982611192565b604082019050919050565b6000602082019050818103600083015261121d816111e1565b9050919050565b7f4552433732313a20746f6b656e20646f65736e74206578697374000000000000600082015250565b600061125a601a83610c5a565b915061126582611224565b602082019050919050565b600060208201905081810360008301526112898161124d565b9050919050565b7f4552433732313a206f776e657220717565727920666f72207a65726f2061646460008201527f7265737300000000000000000000000000000000000000000000000000000000602082015250565b60006112ec602483610c5a565b91506112f782611290565b604082019050919050565b6000602082019050818103600083015261131b816112df565b9050919050565b600081905092915050565b600061133882610c4f565b6113428185611322565b9350611352818560208601610c6b565b80840191505092915050565b600061136a828461132d565b915081905092915050565b7f4552524f523a20616c7265616479206578697374730000000000000000000000600082015250565b60006113ab601583610c5a565b91506113b682611375565b602082019050919050565b600060208201905081810360008301526113da8161139e565b9050919050565b60008190508160005260206000209050919050565b60006020601f8301049050919050565b600082821b905092915050565b6000600883026114437fffffffffffffffffffffffffffffffffffffffffffffffffffffffffffffffff82611406565b61144d8683611406565b95508019841693508086168417925050509392505050565b6000819050919050565b600061148a61148561148084610d0a565b611465565b610d0a565b9050919050565b6000819050919050565b6114a48361146f565b6114b86114b082611491565b848454611413565b825550505050565b600090565b6114cd6114c0565b6114d881848461149b565b505050565b5b818110156114fc576114f16000826114c5565b6001810190506114de565b5050565b601f82111561154157611512816113e1565b61151b846113f6565b8101602085101561152a578190505b61153e611536856113f6565b8301826114dd565b50505b505050565b600082821c905092915050565b600061156460001984600802611546565b1980831691505092915050565b600061157d8383611553565b9150826002028217905092915050565b61159682610c4f565b67ffffffffffffffff8111156115af576115ae610efd565b5b6115b982546110a0565b6115c4828285611500565b600060209050601f8311600181146115f757600084156115e5578287015190505b6115ef8582611571565b865550611657565b601f198416611605866113e1565b60005b8281101561162d57848901518255600182019150602085019450602081019050611608565b8683101561164a5784890151611646601f891682611553565b8355505b6001600288020188555050505b505050505050565b7f4e487b7100000000000000000000000000000000000000000000000000000000600052601160045260246000fd5b600061169982610d0a565b91506116a483610d0a565b9250828210156116b7576116b661165f565b5b828203905092915050565b7f646f6e74207472616e7366657220746f207a65726f2061646472657373000000600082015250565b60006116f8601d83610c5a565b9150611703826116c2565b602082019050919050565b60006020820190508181036000830152611727816116eb565b9050919050565b7f63616e6e6f74207472616e7366657220746f206f776e20616464726573730000600082015250565b6000611764601e83610c5a565b915061176f8261172e565b602082019050919050565b6000602082019050818103600083015261179381611757565b9050919050565b60006060820190506117af6000830186610e9c565b6117bc6020830185610e9c565b6117c96040830184610d14565b949350505050565b7f4552433732313a206d696e74696e67207a65726f206164647265737300000000600082015250565b6000611807601c83610c5a565b9150611812826117d1565b602082019050919050565b60006020820190508181036000830152611836816117fa565b9050919050565b7f4552433732313a20746f6b656e20697320616c7265616479206d696e74656400600082015250565b6000611873601f83610c5a565b915061187e8261183d565b602082019050919050565b600060208201905081810360008301526118a281611866565b9050919050565b60006118b482610d0a565b91506118bf83610d0a565b9250827fffffffffffffffffffffffffffffffffffffffffffffffffffffffffffffffff038211156118f4576118f361165f565b5b82820190509291505056fea26469706673582212202615c831c25c435c0eaa71ef5309b84ff3550a5fe69207af173145e5277379d464736f6c634300080f0033",
  "immutableReferences": {},
  "source": "// SPDX-License-Identifier: Unlicencd\npragma solidity ^0.8.0;\n\nimport './ERC721Connector.sol';\n\ncontract KryptoBird is ERC721Connector {\n\n    // NFTs\n    string[] public KryptoBirdz;\n\n    mapping(string => bool) _kryptoBirdzExists;\n\n    function mint(string memory _kryptoBird) public {\n        // \n        require(!_kryptoBirdzExists[_kryptoBird], 'ERROR: already exists');\n\n        // version\n        // uint _id = KryptoBirdz.push(_kryptoBird);\n\n        // Length\n        KryptoBirdz.push(_kryptoBird);\n        uint _id = KryptoBirdz.length -1;\n\n        _mint(msg.sender, _id);\n\n        // MintExitsTrue\n        _kryptoBirdzExists[_kryptoBird] = true;\n    }\n\n    // ERC721Metadatanamesymbol\n    constructor() ERC721Connector('KryptoBird', 'KBIRDZ') {}\n\n\n}\n\n\n",
  "sourcePath": "/Users/takagihrs/Desktop/MyProject/dapp/nft-marketplace/src/contracts/KryptoBirdz.sol",
  "compiler": {
    "name": "solc",
    "version": "0.8.15+commit.e14f2714.Emscripten.clang"
  },
  "schemaVersion": "3.4.7",
  "updatedAt": "2022-06-19T13:44:55.281Z",
  "networkType": "ethereum",
  "devdoc": {
    "kind": "dev",
    "methods": {},
    "version": 1
  },
  "userdoc": {
    "kind": "user",
    "methods": {},
    "version": 1
  }
}