{
  "contractName": "KryptoBird",
  "abi": [
    {
      "inputs": [],
      "stateMutability": "nonpayable",
      "type": "constructor"
    },
    {
      "anonymous": false,
      "inputs": [
        {
          "indexed": true,
          "internalType": "address",
          "name": "_owner",
          "type": "address"
        },
        {
          "indexed": true,
          "internalType": "address",
          "name": "_approved",
          "type": "address"
        },
        {
          "indexed": true,
          "internalType": "uint256",
          "name": "_tokenId",
          "type": "uint256"
        }
      ],
      "name": "Approval",
      "type": "event"
    },
    {
      "anonymous": false,
      "inputs": [
        {
          "indexed": true,
          "internalType": "address",
          "name": "_from",
          "type": "address"
        },
        {
          "indexed": true,
          "internalType": "address",
          "name": "_to",
          "type": "address"
        },
        {
          "indexed": true,
          "internalType": "uint256",
          "name": "_tokenId",
          "type": "uint256"
        }
      ],
      "name": "Transfer",
      "type": "event"
    },
    {
      "inputs": [
        {
          "internalType": "uint256",
          "name": "",
          "type": "uint256"
        }
      ],
      "name": "KryptoBirdz",
      "outputs": [
        {
          "internalType": "string",
          "name": "",
          "type": "string"
        }
      ],
      "stateMutability": "view",
      "type": "function",
      "constant": true
    },
    {
      "inputs": [
        {
          "internalType": "address",
          "name": "_owner",
          "type": "address"
        }
      ],
      "name": "balanceOf",
      "outputs": [
        {
          "internalType": "uint256",
          "name": "",
          "type": "uint256"
        }
      ],
      "stateMutability": "view",
      "type": "function",
      "constant": true
    },
    {
      "inputs": [],
      "name": "name",
      "outputs": [
        {
          "internalType": "string",
          "name": "",
          "type": "string"
        }
      ],
      "stateMutability": "view",
      "type": "function",
      "constant": true
    },
    {
      "inputs": [
        {
          "internalType": "uint256",
          "name": "_tokenId",
          "type": "uint256"
        }
      ],
      "name": "ownerOf",
      "outputs": [
        {
          "internalType": "address",
          "name": "",
          "type": "address"
        }
      ],
      "stateMutability": "view",
      "type": "function",
      "constant": true
    },
    {
      "inputs": [
        {
          "internalType": "bytes4",
          "name": "interfaceID",
          "type": "bytes4"
        }
      ],
      "name": "supportsInterface",
      "outputs": [
        {
          "internalType": "bool",
          "name": "",
          "type": "bool"
        }
      ],
      "stateMutability": "view",
      "type": "function",
      "constant": true
    },
    {
      "inputs": [],
      "name": "symbol",
      "outputs": [
        {
          "internalType": "string",
          "name": "",
          "type": "string"
        }
      ],
      "stateMutability": "view",
      "type": "function",
      "constant": true
    },
    {
      "inputs": [
        {
          "internalType": "uint256",
          "name": "index",
          "type": "uint256"
        }
      ],
      "name": "tokenByIndex",
      "outputs": [
        {
          "internalType": "uint256",
          "name": "",
          "type": "uint256"
        }
      ],
      "stateMutability": "view",
      "type": "function",
      "constant": true
    },
    {
      "inputs": [
        {
          "internalType": "address",
          "name": "owner",
          "type": "address"
        },
        {
          "internalType": "uint256",
          "name": "index",
          "type": "uint256"
        }
      ],
      "name": "tokenOfOwnerByIndex",
      "outputs": [
        {
          "internalType": "uint256",
          "name": "",
          "type": "uint256"
        }
      ],
      "stateMutability": "view",
      "type": "function",
      "constant": true
    },
    {
      "inputs": [],
      "name": "totalSupply",
      "outputs": [
        {
          "internalType": "uint256",
          "name": "",
          "type": "uint256"
        }
      ],
      "stateMutability": "view",
      "type": "function",
      "constant": true
    },
    {
      "inputs": [
        {
          "internalType": "address",
          "name": "_from",
          "type": "address"
        },
        {
          "internalType": "address",
          "name": "_to",
          "type": "address"
        },
        {
          "internalType": "uint256",
          "name": "_tokenId",
          "type": "uint256"
        }
      ],
      "name": "transferFrom",
      "outputs": [],
      "stateMutability": "nonpayable",
      "type": "function"
    },
    {
      "inputs": [
        {
          "internalType": "string",
          "name": "_kryptoBird",
          "type": "string"
        }
      ],
      "name": "mint",
      "outputs": [],
      "stateMutability": "nonpayable",
      "type": "function"
    }
  ],
  "bytecode": "0x60806040523480156200001157600080fd5b506040518060400160405280600a81526020017f4b727970746f42697264000000000000000000000000000000000000000000008152506040518060400160405280600681526020017f4b424952445a00000000000000000000000000000000000000000000000000008152508181620000b17f01ffc9a7a5cef8baa21ed3c5c0d7e23accb804b619e9333b597f47a0d84076e26200021c60201b60201c565b620001047f13b182f4c0e5b2efbac0efe6cf6d756c8b89f4b79c5707a043ed9ea740574ee97f7feaf19471f34a12a7eaf32d5f3090aa2260ea8624dc8a138e74e0bf0f623076186200021c60201b60201c565b81600190816200011591906200056d565b5080600290816200012791906200056d565b5050506200019f7f22c82707ba960a14c7592ffb6b8cfaa073fed0048a84cc7fa41f6b5bd8e7f2e47f3a6eb71757dfc6e784c1459d26270140c2c147d95ca985c80026fc5301c3eca17f8a7e378434598edc36d108689a030cbc9d7d465de4f74c71bae1028eed6a881b18186200021c60201b60201c565b620002147f8230223f691b981717299fae9549350a0d894555723531f02108b1f522c1a7977f6da5e1284143cdd2d15038a59bde3be031250f00291d64494c12d967b3a4e0c37fc53637662700e6c65104059db8bba34439e0c32483ab7c34e3ccae52c739549518186200021c60201b60201c565b5050620006d7565b63ffffffff60e01b817bffffffffffffffffffffffffffffffffffffffffffffffffffffffff19160362000287576040517f08c379a00000000000000000000000000000000000000000000000000000000081526004016200027e90620006b5565b60405180910390fd5b6001600080837bffffffffffffffffffffffffffffffffffffffffffffffffffffffff19167bffffffffffffffffffffffffffffffffffffffffffffffffffffffff1916815260200190815260200160002060006101000a81548160ff02191690831515021790555050565b600081519050919050565b7f4e487b7100000000000000000000000000000000000000000000000000000000600052604160045260246000fd5b7f4e487b7100000000000000000000000000000000000000000000000000000000600052602260045260246000fd5b600060028204905060018216806200037557607f821691505b6020821081036200038b576200038a6200032d565b5b50919050565b60008190508160005260206000209050919050565b60006020601f8301049050919050565b600082821b905092915050565b600060088302620003f57fffffffffffffffffffffffffffffffffffffffffffffffffffffffffffffffff82620003b6565b620004018683620003b6565b95508019841693508086168417925050509392505050565b6000819050919050565b6000819050919050565b60006200044e62000448620004428462000419565b62000423565b62000419565b9050919050565b6000819050919050565b6200046a836200042d565b62000482620004798262000455565b848454620003c3565b825550505050565b600090565b620004996200048a565b620004a68184846200045f565b505050565b5b81811015620004ce57620004c26000826200048f565b600181019050620004ac565b5050565b601f8211156200051d57620004e78162000391565b620004f284620003a6565b8101602085101562000502578190505b6200051a6200051185620003a6565b830182620004ab565b50505b505050565b600082821c905092915050565b6000620005426000198460080262000522565b1980831691505092915050565b60006200055d83836200052f565b9150826002028217905092915050565b6200057882620002f3565b67ffffffffffffffff811115620005945762000593620002fe565b5b620005a082546200035c565b620005ad828285620004d2565b600060209050601f831160018114620005e55760008415620005d0578287015190505b620005dc85826200054f565b8655506200064c565b601f198416620005f58662000391565b60005b828110156200061f57848901518255600182019150602085019450602081019050620005f8565b868310156200063f57848901516200063b601f8916826200052f565b8355505b6001600288020188555050505b505050505050565b600082825260208201905092915050565b7f496e76616c696420696e74657266616365207265717565737400000000000000600082015250565b60006200069d60198362000654565b9150620006aa8262000665565b602082019050919050565b60006020820190508181036000830152620006d0816200068e565b9050919050565b611a9b80620006e76000396000f3fe608060405234801561001057600080fd5b50600436106100a95760003560e01c80634f6ccce7116100715780634f6ccce7146101665780636352211e1461019657806370a08231146101c657806395d89b41146101f6578063a3a1ff5814610214578063d85d3d2714610244576100a9565b806301ffc9a7146100ae57806306fdde03146100de57806318160ddd146100fc57806323b872dd1461011a5780632f745c5914610136575b600080fd5b6100c860048036038101906100c39190610d9d565b610260565b6040516100d59190610de5565b60405180910390f35b6100e66102c7565b6040516100f39190610e99565b60405180910390f35b610104610359565b6040516101119190610ed4565b60405180910390f35b610134600480360381019061012f9190610f79565b610366565b005b610150600480360381019061014b9190610fcc565b610376565b60405161015d9190610ed4565b60405180910390f35b610180600480360381019061017b919061100c565b610426565b60405161018d9190610ed4565b60405180910390f35b6101b060048036038101906101ab919061100c565b610497565b6040516101bd9190611048565b60405180910390f35b6101e060048036038101906101db9190611063565b610548565b6040516101ed9190610ed4565b60405180910390f35b6101fe6105ff565b60405161020b9190610e99565b60405180910390f35b61022e6004803603810190610229919061100c565b610691565b60405161023b9190610e99565b60405180910390f35b61025e600480360381019061025991906111c5565b61073d565b005b6000806000837bffffffffffffffffffffffffffffffffffffffffffffffffffffffff19167bffffffffffffffffffffffffffffffffffffffffffffffffffffffff1916815260200190815260200160002060009054906101000a900460ff169050919050565b6060600180546102d69061123d565b80601f01602080910402602001604051908101604052809291908181526020018280546103029061123d565b801561034f5780601f106103245761010080835404028352916020019161034f565b820191906000526020600020905b81548152906001019060200180831161033257829003601f168201915b5050505050905090565b6000600680549050905090565b610371838383610839565b505050565b600061038183610548565b82106103c2576040517f08c379a00000000000000000000000000000000000000000000000000000000081526004016103b9906112e0565b60405180910390fd5b600860008473ffffffffffffffffffffffffffffffffffffffff1673ffffffffffffffffffffffffffffffffffffffff168152602001908152602001600020828154811061041357610412611300565b5b9060005260206000200154905092915050565b6000610430610359565b8210610471576040517f08c379a0000000000000000000000000000000000000000000000000000000008152600401610468906113a1565b60405180910390fd5b6006828154811061048557610484611300565b5b90600052602060002001549050919050565b6000806003600084815260200190815260200160002060009054906101000a900473ffffffffffffffffffffffffffffffffffffffff169050600073ffffffffffffffffffffffffffffffffffffffff168173ffffffffffffffffffffffffffffffffffffffff160361053f576040517f08c379a00000000000000000000000000000000000000000000000000000000081526004016105369061140d565b60405180910390fd5b80915050919050565b60008073ffffffffffffffffffffffffffffffffffffffff168273ffffffffffffffffffffffffffffffffffffffff16036105b8576040517f08c379a00000000000000000000000000000000000000000000000000000000081526004016105af9061149f565b60405180910390fd5b600460008373ffffffffffffffffffffffffffffffffffffffff1673ffffffffffffffffffffffffffffffffffffffff168152602001908152602001600020549050919050565b60606002805461060e9061123d565b80601f016020809104026020016040519081016040528092919081815260200182805461063a9061123d565b80156106875780601f1061065c57610100808354040283529160200191610687565b820191906000526020600020905b81548152906001019060200180831161066a57829003601f168201915b5050505050905090565b600a81815481106106a157600080fd5b9060005260206000200160009150905080546106bc9061123d565b80601f01602080910402602001604051908101604052809291908181526020018280546106e89061123d565b80156107355780601f1061070a57610100808354040283529160200191610735565b820191906000526020600020905b81548152906001019060200180831161071857829003601f168201915b505050505081565b600b8160405161074d91906114fb565b908152602001604051809103902060009054906101000a900460ff16156107a9576040517f08c379a00000000000000000000000000000000000000000000000000000000081526004016107a09061155e565b60405180910390fd5b600a819080600181540180825580915050600190039060005260206000200160009091909190915090816107dd919061172a565b5060006001600a805490506107f2919061182b565b90506107fe33826109d0565b6001600b8360405161081091906114fb565b908152602001604051809103902060006101000a81548160ff0219169083151502179055505050565b600073ffffffffffffffffffffffffffffffffffffffff168273ffffffffffffffffffffffffffffffffffffffff16036108a8576040517f08c379a000000000000000000000000000000000000000000000000000000000815260040161089f906118ab565b60405180910390fd5b8273ffffffffffffffffffffffffffffffffffffffff166108c882610497565b73ffffffffffffffffffffffffffffffffffffffff161461091e576040517f08c379a000000000000000000000000000000000000000000000000000000000815260040161091590611917565b60405180910390fd5b816003600083815260200190815260200160002060006101000a81548173ffffffffffffffffffffffffffffffffffffffff021916908373ffffffffffffffffffffffffffffffffffffffff160217905550808273ffffffffffffffffffffffffffffffffffffffff168473ffffffffffffffffffffffffffffffffffffffff167fddf252ad1be2c89b69c2b068fc378daa952ba7f163c4a11628f55a4df523b3ef60405160405180910390a4505050565b6109da82826109f1565b6109e381610bb2565b6109ed8282610bfb565b5050565b600073ffffffffffffffffffffffffffffffffffffffff168273ffffffffffffffffffffffffffffffffffffffff1603610a60576040517f08c379a0000000000000000000000000000000000000000000000000000000008152600401610a5790611983565b60405180910390fd5b610a6981610cbf565b15610aa9576040517f08c379a0000000000000000000000000000000000000000000000000000000008152600401610aa0906119ef565b60405180910390fd5b816003600083815260200190815260200160002060006101000a81548173ffffffffffffffffffffffffffffffffffffffff021916908373ffffffffffffffffffffffffffffffffffffffff1602179055506001600460008473ffffffffffffffffffffffffffffffffffffffff1673ffffffffffffffffffffffffffffffffffffffff1681526020019081526020016000206000828254610b4b9190611a0f565b92505081905550808273ffffffffffffffffffffffffffffffffffffffff16600073ffffffffffffffffffffffffffffffffffffffff167fddf252ad1be2c89b69c2b068fc378daa952ba7f163c4a11628f55a4df523b3ef60405160405180910390a45050565b6006805490506007600083815260200190815260200160002081905550600681908060018154018082558091505060019003906000526020600020016000909190919091505550565b600860008373ffffffffffffffffffffffffffffffffffffffff1673ffffffffffffffffffffffffffffffffffffffff168152602001908152602001600020805490506009600083815260200190815260200160002081905550600860008373ffffffffffffffffffffffffffffffffffffffff1673ffffffffffffffffffffffffffffffffffffffff1681526020019081526020016000208190806001815401808255809150506001900390600052602060002001600090919091909150555050565b6000806003600084815260200190815260200160002060009054906101000a900473ffffffffffffffffffffffffffffffffffffffff169050600073ffffffffffffffffffffffffffffffffffffffff168173ffffffffffffffffffffffffffffffffffffffff161415915050919050565b6000604051905090565b600080fd5b600080fd5b60007fffffffff0000000000000000000000000000000000000000000000000000000082169050919050565b610d7a81610d45565b8114610d8557600080fd5b50565b600081359050610d9781610d71565b92915050565b600060208284031215610db357610db2610d3b565b5b6000610dc184828501610d88565b91505092915050565b60008115159050919050565b610ddf81610dca565b82525050565b6000602082019050610dfa6000830184610dd6565b92915050565b600081519050919050565b600082825260208201905092915050565b60005b83811015610e3a578082015181840152602081019050610e1f565b83811115610e49576000848401525b50505050565b6000601f19601f8301169050919050565b6000610e6b82610e00565b610e758185610e0b565b9350610e85818560208601610e1c565b610e8e81610e4f565b840191505092915050565b60006020820190508181036000830152610eb38184610e60565b905092915050565b6000819050919050565b610ece81610ebb565b82525050565b6000602082019050610ee96000830184610ec5565b92915050565b600073ffffffffffffffffffffffffffffffffffffffff82169050919050565b6000610f1a82610eef565b9050919050565b610f2a81610f0f565b8114610f3557600080fd5b50565b600081359050610f4781610f21565b92915050565b610f5681610ebb565b8114610f6157600080fd5b50565b600081359050610f7381610f4d565b92915050565b600080600060608486031215610f9257610f91610d3b565b5b6000610fa086828701610f38565b9350506020610fb186828701610f38565b9250506040610fc286828701610f64565b9150509250925092565b60008060408385031215610fe357610fe2610d3b565b5b6000610ff185828601610f38565b925050602061100285828601610f64565b9150509250929050565b60006020828403121561102257611021610d3b565b5b600061103084828501610f64565b91505092915050565b61104281610f0f565b82525050565b600060208201905061105d6000830184611039565b92915050565b60006020828403121561107957611078610d3b565b5b600061108784828501610f38565b91505092915050565b600080fd5b600080fd5b7f4e487b7100000000000000000000000000000000000000000000000000000000600052604160045260246000fd5b6110d282610e4f565b810181811067ffffffffffffffff821117156110f1576110f061109a565b5b80604052505050565b6000611104610d31565b905061111082826110c9565b919050565b600067ffffffffffffffff8211156111305761112f61109a565b5b61113982610e4f565b9050602081019050919050565b82818337600083830152505050565b600061116861116384611115565b6110fa565b90508281526020810184848401111561118457611183611095565b5b61118f848285611146565b509392505050565b600082601f8301126111ac576111ab611090565b5b81356111bc848260208601611155565b91505092915050565b6000602082840312156111db576111da610d3b565b5b600082013567ffffffffffffffff8111156111f9576111f8610d40565b5b61120584828501611197565b91505092915050565b7f4e487b7100000000000000000000000000000000000000000000000000000000600052602260045260246000fd5b6000600282049050600182168061125557607f821691505b6020821081036112685761126761120e565b5b50919050565b7f455243373231456e756d657261626c653a206f776e657220696e64657820697360008201527f206f7574206f6620626f756e6473000000000000000000000000000000000000602082015250565b60006112ca602e83610e0b565b91506112d58261126e565b604082019050919050565b600060208201905081810360008301526112f9816112bd565b9050919050565b7f4e487b7100000000000000000000000000000000000000000000000000000000600052603260045260246000fd5b7f455243373231456e756d657261626c653a20676c6f62616c20696e646578206960008201527f73206f7574206f6620626f756e64730000000000000000000000000000000000602082015250565b600061138b602f83610e0b565b91506113968261132f565b604082019050919050565b600060208201905081810360008301526113ba8161137e565b9050919050565b7f4552433732313a20746f6b656e20646f65736e74206578697374000000000000600082015250565b60006113f7601a83610e0b565b9150611402826113c1565b602082019050919050565b60006020820190508181036000830152611426816113ea565b9050919050565b7f4552433732313a206f776e657220717565727920666f72207a65726f2061646460008201527f7265737300000000000000000000000000000000000000000000000000000000602082015250565b6000611489602483610e0b565b91506114948261142d565b604082019050919050565b600060208201905081810360008301526114b88161147c565b9050919050565b600081905092915050565b60006114d582610e00565b6114df81856114bf565b93506114ef818560208601610e1c565b80840191505092915050565b600061150782846114ca565b915081905092915050565b7f4552524f523a20616c7265616479206578697374730000000000000000000000600082015250565b6000611548601583610e0b565b915061155382611512565b602082019050919050565b600060208201905081810360008301526115778161153b565b9050919050565b60008190508160005260206000209050919050565b60006020601f8301049050919050565b600082821b905092915050565b6000600883026115e07fffffffffffffffffffffffffffffffffffffffffffffffffffffffffffffffff826115a3565b6115ea86836115a3565b95508019841693508086168417925050509392505050565b6000819050919050565b600061162761162261161d84610ebb565b611602565b610ebb565b9050919050565b6000819050919050565b6116418361160c565b61165561164d8261162e565b8484546115b0565b825550505050565b600090565b61166a61165d565b611675818484611638565b505050565b5b818110156116995761168e600082611662565b60018101905061167b565b5050565b601f8211156116de576116af8161157e565b6116b884611593565b810160208510156116c7578190505b6116db6116d385611593565b83018261167a565b50505b505050565b600082821c905092915050565b6000611701600019846008026116e3565b1980831691505092915050565b600061171a83836116f0565b9150826002028217905092915050565b61173382610e00565b67ffffffffffffffff81111561174c5761174b61109a565b5b611756825461123d565b61176182828561169d565b600060209050601f8311600181146117945760008415611782578287015190505b61178c858261170e565b8655506117f4565b601f1984166117a28661157e565b60005b828110156117ca578489015182556001820191506020850194506020810190506117a5565b868310156117e757848901516117e3601f8916826116f0565b8355505b6001600288020188555050505b505050505050565b7f4e487b7100000000000000000000000000000000000000000000000000000000600052601160045260246000fd5b600061183682610ebb565b915061184183610ebb565b925082821015611854576118536117fc565b5b828203905092915050565b7f646f6e74207472616e7366657220746f207a65726f2061646472657373000000600082015250565b6000611895601d83610e0b565b91506118a08261185f565b602082019050919050565b600060208201905081810360008301526118c481611888565b9050919050565b7f63616e6e6f74207472616e7366657220746f206f776e20616464726573730000600082015250565b6000611901601e83610e0b565b915061190c826118cb565b602082019050919050565b60006020820190508181036000830152611930816118f4565b9050919050565b7f4552433732313a206d696e74696e67207a65726f206164647265737300000000600082015250565b600061196d601c83610e0b565b915061197882611937565b602082019050919050565b6000602082019050818103600083015261199c81611960565b9050919050565b7f4552433732313a20746f6b656e20697320616c7265616479206d696e74656400600082015250565b60006119d9601f83610e0b565b91506119e4826119a3565b602082019050919050565b60006020820190508181036000830152611a08816119cc565b9050919050565b6000611a1a82610ebb565b9150611a2583610ebb565b9250827fffffffffffffffffffffffffffffffffffffffffffffffffffffffffffffffff03821115611a5a57611a596117fc565b5b82820190509291505056fea2646970667358221220bd43458442dec109c9eb9bb97d9b96e8d355808b144501397c81b6fd13e27a0e64736f6c634300080f0033",
  "immutableReferences": {},
  "source": "// SPDX-License-Identifier: Unlicencd\npragma solidity ^0.8.0;\n\nimport './ERC721Connector.sol';\n\ncontract KryptoBird is ERC721Connector {\n\n    // NFTs\n    string[] public KryptoBirdz;\n\n    mapping(string => bool) _kryptoBirdzExists;\n\n    function mint(string memory _kryptoBird) public {\n        // \n        require(!_kryptoBirdzExists[_kryptoBird], 'ERROR: already exists');\n\n        // version\n        // uint _id = KryptoBirdz.push(_kryptoBird);\n\n        // Length\n        KryptoBirdz.push(_kryptoBird);\n        uint _id = KryptoBirdz.length -1;\n\n        _mint(msg.sender, _id);\n\n        // MintExitsTrue\n        _kryptoBirdzExists[_kryptoBird] = true;\n    }\n\n    // ERC721Metadatanamesymbol\n    constructor() ERC721Connector('KryptoBird', 'KBIRDZ') {}\n\n\n}\n\n\n",
  "sourcePath": "/Users/takagihrs/Desktop/MyProject/dapp/nft-marketplace/src/contracts/KryptoBirdz.sol",
  "compiler": {
    "name": "solc",
    "version": "0.8.15+commit.e14f2714.Emscripten.clang"
  },
  "schemaVersion": "3.4.7",
  "updatedAt": "2022-06-22T13:31:28.399Z",
  "networkType": "ethereum",
  "devdoc": {
    "kind": "dev",
    "methods": {
      "balanceOf(address)": {
        "details": "NFTs assigned to the zero address are considered invalid, and this  function throws for queries about the zero address.",
        "params": {
          "_owner": "An address for whom to query the balance"
        },
        "returns": {
          "_0": "The number of NFTs owned by `_owner`, possibly zero"
        }
      },
      "ownerOf(uint256)": {
        "details": "NFTs assigned to zero address are considered invalid, and queries  about them do throw.",
        "params": {
          "_tokenId": "The identifier for an NFT"
        },
        "returns": {
          "_0": "The address of the owner of the NFT"
        }
      },
      "supportsInterface(bytes4)": {
        "details": "Interface identification is specified in ERC-165. This function  uses less than 30,000 gas.",
        "params": {
          "interfaceID": "The interface identifier, as specified in ERC-165"
        },
        "returns": {
          "_0": "`true` if the contract implements `interfaceID` and  `interfaceID` is not 0xffffffff, `false` otherwise"
        }
      },
      "transferFrom(address,address,uint256)": {
        "params": {
          "_from": "An address for whoes currentlly owns the token",
          "_to": "An address for whoes going to own the token",
          "_tokenId": "an Id of the token that going to be transfered"
        }
      }
    },
    "version": 1
  },
  "userdoc": {
    "kind": "user",
    "methods": {
      "balanceOf(address)": {
        "notice": "Count all NFTs assigned to an owner"
      },
      "ownerOf(uint256)": {
        "notice": "Find the owner of an NFT"
      },
      "supportsInterface(bytes4)": {
        "notice": "Query if a contract implements an interface"
      },
      "transferFrom(address,address,uint256)": {
        "notice": "Transfer specify token to specify address"
      }
    },
    "version": 1
  }
}