{
  "contractName": "KryptoBird",
  "abi": [
    {
      "inputs": [],
      "stateMutability": "nonpayable",
      "type": "constructor"
    },
    {
      "anonymous": false,
      "inputs": [
        {
          "indexed": false,
          "internalType": "address",
          "name": "from",
          "type": "address"
        },
        {
          "indexed": false,
          "internalType": "address",
          "name": "to",
          "type": "address"
        },
        {
          "indexed": false,
          "internalType": "uint256",
          "name": "tokenId",
          "type": "uint256"
        }
      ],
      "name": "Transfer",
      "type": "event"
    },
    {
      "inputs": [
        {
          "internalType": "uint256",
          "name": "",
          "type": "uint256"
        }
      ],
      "name": "KryptoBirdz",
      "outputs": [
        {
          "internalType": "string",
          "name": "",
          "type": "string"
        }
      ],
      "stateMutability": "view",
      "type": "function",
      "constant": true
    },
    {
      "inputs": [
        {
          "internalType": "address",
          "name": "_owner",
          "type": "address"
        }
      ],
      "name": "balanceOf",
      "outputs": [
        {
          "internalType": "uint256",
          "name": "",
          "type": "uint256"
        }
      ],
      "stateMutability": "view",
      "type": "function",
      "constant": true
    },
    {
      "inputs": [],
      "name": "name",
      "outputs": [
        {
          "internalType": "string",
          "name": "",
          "type": "string"
        }
      ],
      "stateMutability": "view",
      "type": "function",
      "constant": true
    },
    {
      "inputs": [
        {
          "internalType": "uint256",
          "name": "_tokenId",
          "type": "uint256"
        }
      ],
      "name": "ownerOf",
      "outputs": [
        {
          "internalType": "address",
          "name": "",
          "type": "address"
        }
      ],
      "stateMutability": "view",
      "type": "function",
      "constant": true
    },
    {
      "inputs": [],
      "name": "symbol",
      "outputs": [
        {
          "internalType": "string",
          "name": "",
          "type": "string"
        }
      ],
      "stateMutability": "view",
      "type": "function",
      "constant": true
    },
    {
      "inputs": [
        {
          "internalType": "uint256",
          "name": "_index",
          "type": "uint256"
        }
      ],
      "name": "tokenByIndex",
      "outputs": [
        {
          "internalType": "uint256",
          "name": "",
          "type": "uint256"
        }
      ],
      "stateMutability": "view",
      "type": "function",
      "constant": true
    },
    {
      "inputs": [
        {
          "internalType": "address",
          "name": "owner",
          "type": "address"
        },
        {
          "internalType": "uint256",
          "name": "index",
          "type": "uint256"
        }
      ],
      "name": "tokenOfOwnerByIndex",
      "outputs": [
        {
          "internalType": "uint256",
          "name": "",
          "type": "uint256"
        }
      ],
      "stateMutability": "view",
      "type": "function",
      "constant": true
    },
    {
      "inputs": [],
      "name": "totalSupply",
      "outputs": [
        {
          "internalType": "uint256",
          "name": "",
          "type": "uint256"
        }
      ],
      "stateMutability": "view",
      "type": "function",
      "constant": true
    },
    {
      "inputs": [
        {
          "internalType": "string",
          "name": "_kryptoBird",
          "type": "string"
        }
      ],
      "name": "mint",
      "outputs": [],
      "stateMutability": "nonpayable",
      "type": "function"
    }
  ],
  "bytecode": "0x60806040523480156200001157600080fd5b506040518060400160405280600a81526020017f4b727970746f42697264000000000000000000000000000000000000000000008152506040518060400160405280600681526020017f4b424952445a00000000000000000000000000000000000000000000000000008152508181816000908162000091919062000328565b508060019081620000a3919062000328565b50505050506200040f565b600081519050919050565b7f4e487b7100000000000000000000000000000000000000000000000000000000600052604160045260246000fd5b7f4e487b7100000000000000000000000000000000000000000000000000000000600052602260045260246000fd5b600060028204905060018216806200013057607f821691505b602082108103620001465762000145620000e8565b5b50919050565b60008190508160005260206000209050919050565b60006020601f8301049050919050565b600082821b905092915050565b600060088302620001b07fffffffffffffffffffffffffffffffffffffffffffffffffffffffffffffffff8262000171565b620001bc868362000171565b95508019841693508086168417925050509392505050565b6000819050919050565b6000819050919050565b60006200020962000203620001fd84620001d4565b620001de565b620001d4565b9050919050565b6000819050919050565b6200022583620001e8565b6200023d620002348262000210565b8484546200017e565b825550505050565b600090565b6200025462000245565b620002618184846200021a565b505050565b5b8181101562000289576200027d6000826200024a565b60018101905062000267565b5050565b601f821115620002d857620002a2816200014c565b620002ad8462000161565b81016020851015620002bd578190505b620002d5620002cc8562000161565b83018262000266565b50505b505050565b600082821c905092915050565b6000620002fd60001984600802620002dd565b1980831691505092915050565b6000620003188383620002ea565b9150826002028217905092915050565b6200033382620000ae565b67ffffffffffffffff8111156200034f576200034e620000b9565b5b6200035b825462000117565b620003688282856200028d565b600060209050601f831160018114620003a057600084156200038b578287015190505b6200039785826200030a565b86555062000407565b601f198416620003b0866200014c565b60005b82811015620003da57848901518255600182019150602085019450602081019050620003b3565b86831015620003fa5784890151620003f6601f891682620002ea565b8355505b6001600288020188555050505b505050505050565b6114a5806200041f6000396000f3fe608060405234801561001057600080fd5b50600436106100935760003560e01c80636352211e116100665780636352211e1461013457806370a082311461016457806395d89b4114610194578063a3a1ff58146101b2578063d85d3d27146101e257610093565b806306fdde031461009857806318160ddd146100b65780632f745c59146100d45780634f6ccce714610104575b600080fd5b6100a06101fe565b6040516100ad9190610aa7565b60405180910390f35b6100be610290565b6040516100cb9190610ae2565b60405180910390f35b6100ee60048036038101906100e99190610b9b565b61029d565b6040516100fb9190610ae2565b60405180910390f35b61011e60048036038101906101199190610bdb565b610303565b60405161012b9190610ae2565b60405180910390f35b61014e60048036038101906101499190610bdb565b61032b565b60405161015b9190610c17565b60405180910390f35b61017e60048036038101906101799190610c32565b6103dc565b60405161018b9190610ae2565b60405180910390f35b61019c610493565b6040516101a99190610aa7565b60405180910390f35b6101cc60048036038101906101c79190610bdb565b610525565b6040516101d99190610aa7565b60405180910390f35b6101fc60048036038101906101f79190610d94565b6105d1565b005b60606000805461020d90610e0c565b80601f016020809104026020016040519081016040528092919081815260200182805461023990610e0c565b80156102865780601f1061025b57610100808354040283529160200191610286565b820191906000526020600020905b81548152906001019060200180831161026957829003601f168201915b5050505050905090565b6000600580549050905090565b6000600760008473ffffffffffffffffffffffffffffffffffffffff1673ffffffffffffffffffffffffffffffffffffffff16815260200190815260200160002082815481106102f0576102ef610e3d565b5b9060005260206000200154905092915050565b60006005828154811061031957610318610e3d565b5b90600052602060002001549050919050565b6000806002600084815260200190815260200160002060009054906101000a900473ffffffffffffffffffffffffffffffffffffffff169050600073ffffffffffffffffffffffffffffffffffffffff168173ffffffffffffffffffffffffffffffffffffffff16036103d3576040517f08c379a00000000000000000000000000000000000000000000000000000000081526004016103ca90610eb8565b60405180910390fd5b80915050919050565b60008073ffffffffffffffffffffffffffffffffffffffff168273ffffffffffffffffffffffffffffffffffffffff160361044c576040517f08c379a000000000000000000000000000000000000000000000000000000000815260040161044390610f4a565b60405180910390fd5b600360008373ffffffffffffffffffffffffffffffffffffffff1673ffffffffffffffffffffffffffffffffffffffff168152602001908152602001600020549050919050565b6060600180546104a290610e0c565b80601f01602080910402602001604051908101604052809291908181526020018280546104ce90610e0c565b801561051b5780601f106104f05761010080835404028352916020019161051b565b820191906000526020600020905b8154815290600101906020018083116104fe57829003601f168201915b5050505050905090565b6009818154811061053557600080fd5b90600052602060002001600091509050805461055090610e0c565b80601f016020809104026020016040519081016040528092919081815260200182805461057c90610e0c565b80156105c95780601f1061059e576101008083540402835291602001916105c9565b820191906000526020600020905b8154815290600101906020018083116105ac57829003601f168201915b505050505081565b600a816040516105e19190610fa6565b908152602001604051809103902060009054906101000a900460ff161561063d576040517f08c379a000000000000000000000000000000000000000000000000000000000815260040161063490611009565b60405180910390fd5b60098190806001815401808255809150506001900390600052602060002001600090919091909150908161067191906111d5565b506000600160098054905061068691906112d6565b905061069233826106cd565b6001600a836040516106a49190610fa6565b908152602001604051809103902060006101000a81548160ff0219169083151502179055505050565b6106d782826106ee565b6106e08161088f565b6106ea82826108d8565b5050565b600073ffffffffffffffffffffffffffffffffffffffff168273ffffffffffffffffffffffffffffffffffffffff160361075d576040517f08c379a000000000000000000000000000000000000000000000000000000000815260040161075490611356565b60405180910390fd5b6107668161099c565b156107a6576040517f08c379a000000000000000000000000000000000000000000000000000000000815260040161079d906113c2565b60405180910390fd5b816002600083815260200190815260200160002060006101000a81548173ffffffffffffffffffffffffffffffffffffffff021916908373ffffffffffffffffffffffffffffffffffffffff1602179055506001600360008473ffffffffffffffffffffffffffffffffffffffff1673ffffffffffffffffffffffffffffffffffffffff168152602001908152602001600020600082825461084891906113e2565b925050819055507fddf252ad1be2c89b69c2b068fc378daa952ba7f163c4a11628f55a4df523b3ef6000838360405161088393929190611438565b60405180910390a15050565b6005805490506006600083815260200190815260200160002081905550600581908060018154018082558091505060019003906000526020600020016000909190919091505550565b600760008373ffffffffffffffffffffffffffffffffffffffff1673ffffffffffffffffffffffffffffffffffffffff168152602001908152602001600020805490506008600083815260200190815260200160002081905550600760008373ffffffffffffffffffffffffffffffffffffffff1673ffffffffffffffffffffffffffffffffffffffff1681526020019081526020016000208190806001815401808255809150506001900390600052602060002001600090919091909150555050565b6000806002600084815260200190815260200160002060009054906101000a900473ffffffffffffffffffffffffffffffffffffffff169050600073ffffffffffffffffffffffffffffffffffffffff168173ffffffffffffffffffffffffffffffffffffffff161415915050919050565b600081519050919050565b600082825260208201905092915050565b60005b83811015610a48578082015181840152602081019050610a2d565b83811115610a57576000848401525b50505050565b6000601f19601f8301169050919050565b6000610a7982610a0e565b610a838185610a19565b9350610a93818560208601610a2a565b610a9c81610a5d565b840191505092915050565b60006020820190508181036000830152610ac18184610a6e565b905092915050565b6000819050919050565b610adc81610ac9565b82525050565b6000602082019050610af76000830184610ad3565b92915050565b6000604051905090565b600080fd5b600080fd5b600073ffffffffffffffffffffffffffffffffffffffff82169050919050565b6000610b3c82610b11565b9050919050565b610b4c81610b31565b8114610b5757600080fd5b50565b600081359050610b6981610b43565b92915050565b610b7881610ac9565b8114610b8357600080fd5b50565b600081359050610b9581610b6f565b92915050565b60008060408385031215610bb257610bb1610b07565b5b6000610bc085828601610b5a565b9250506020610bd185828601610b86565b9150509250929050565b600060208284031215610bf157610bf0610b07565b5b6000610bff84828501610b86565b91505092915050565b610c1181610b31565b82525050565b6000602082019050610c2c6000830184610c08565b92915050565b600060208284031215610c4857610c47610b07565b5b6000610c5684828501610b5a565b91505092915050565b600080fd5b600080fd5b7f4e487b7100000000000000000000000000000000000000000000000000000000600052604160045260246000fd5b610ca182610a5d565b810181811067ffffffffffffffff82111715610cc057610cbf610c69565b5b80604052505050565b6000610cd3610afd565b9050610cdf8282610c98565b919050565b600067ffffffffffffffff821115610cff57610cfe610c69565b5b610d0882610a5d565b9050602081019050919050565b82818337600083830152505050565b6000610d37610d3284610ce4565b610cc9565b905082815260208101848484011115610d5357610d52610c64565b5b610d5e848285610d15565b509392505050565b600082601f830112610d7b57610d7a610c5f565b5b8135610d8b848260208601610d24565b91505092915050565b600060208284031215610daa57610da9610b07565b5b600082013567ffffffffffffffff811115610dc857610dc7610b0c565b5b610dd484828501610d66565b91505092915050565b7f4e487b7100000000000000000000000000000000000000000000000000000000600052602260045260246000fd5b60006002820490506001821680610e2457607f821691505b602082108103610e3757610e36610ddd565b5b50919050565b7f4e487b7100000000000000000000000000000000000000000000000000000000600052603260045260246000fd5b7f4552433732313a20746f6b656e20646f65736e74206578697374000000000000600082015250565b6000610ea2601a83610a19565b9150610ead82610e6c565b602082019050919050565b60006020820190508181036000830152610ed181610e95565b9050919050565b7f4552433732313a206f776e657220717565727920666f72207a65726f2061646460008201527f7265737300000000000000000000000000000000000000000000000000000000602082015250565b6000610f34602483610a19565b9150610f3f82610ed8565b604082019050919050565b60006020820190508181036000830152610f6381610f27565b9050919050565b600081905092915050565b6000610f8082610a0e565b610f8a8185610f6a565b9350610f9a818560208601610a2a565b80840191505092915050565b6000610fb28284610f75565b915081905092915050565b7f4552524f523a20616c7265616479206578697374730000000000000000000000600082015250565b6000610ff3601583610a19565b9150610ffe82610fbd565b602082019050919050565b6000602082019050818103600083015261102281610fe6565b9050919050565b60008190508160005260206000209050919050565b60006020601f8301049050919050565b600082821b905092915050565b60006008830261108b7fffffffffffffffffffffffffffffffffffffffffffffffffffffffffffffffff8261104e565b611095868361104e565b95508019841693508086168417925050509392505050565b6000819050919050565b60006110d26110cd6110c884610ac9565b6110ad565b610ac9565b9050919050565b6000819050919050565b6110ec836110b7565b6111006110f8826110d9565b84845461105b565b825550505050565b600090565b611115611108565b6111208184846110e3565b505050565b5b818110156111445761113960008261110d565b600181019050611126565b5050565b601f8211156111895761115a81611029565b6111638461103e565b81016020851015611172578190505b61118661117e8561103e565b830182611125565b50505b505050565b600082821c905092915050565b60006111ac6000198460080261118e565b1980831691505092915050565b60006111c5838361119b565b9150826002028217905092915050565b6111de82610a0e565b67ffffffffffffffff8111156111f7576111f6610c69565b5b6112018254610e0c565b61120c828285611148565b600060209050601f83116001811461123f576000841561122d578287015190505b61123785826111b9565b86555061129f565b601f19841661124d86611029565b60005b8281101561127557848901518255600182019150602085019450602081019050611250565b86831015611292578489015161128e601f89168261119b565b8355505b6001600288020188555050505b505050505050565b7f4e487b7100000000000000000000000000000000000000000000000000000000600052601160045260246000fd5b60006112e182610ac9565b91506112ec83610ac9565b9250828210156112ff576112fe6112a7565b5b828203905092915050565b7f4552433732313a206d696e74696e67207a65726f206164647265737300000000600082015250565b6000611340601c83610a19565b915061134b8261130a565b602082019050919050565b6000602082019050818103600083015261136f81611333565b9050919050565b7f4552433732313a20746f6b656e20697320616c7265616479206d696e74656400600082015250565b60006113ac601f83610a19565b91506113b782611376565b602082019050919050565b600060208201905081810360008301526113db8161139f565b9050919050565b60006113ed82610ac9565b91506113f883610ac9565b9250827fffffffffffffffffffffffffffffffffffffffffffffffffffffffffffffffff0382111561142d5761142c6112a7565b5b828201905092915050565b600060608201905061144d6000830186610c08565b61145a6020830185610c08565b6114676040830184610ad3565b94935050505056fea2646970667358221220a3339ea696702972691f54486c18860f04dc858882c5a55b84c678992e20f4f964736f6c634300080f0033",
  "immutableReferences": {},
  "source": "// SPDX-License-Identifier: Unlicencd\npragma solidity ^0.8.0;\n\nimport './ERC721Connector.sol';\n\ncontract KryptoBird is ERC721Connector {\n\n    // NFTs\n    string[] public KryptoBirdz;\n\n    mapping(string => bool) _kryptoBirdzExists;\n\n    function mint(string memory _kryptoBird) public {\n        // \n        require(!_kryptoBirdzExists[_kryptoBird], 'ERROR: already exists');\n\n        // version\n        // uint _id = KryptoBirdz.push(_kryptoBird);\n\n        // Length\n        KryptoBirdz.push(_kryptoBird);\n        uint _id = KryptoBirdz.length -1;\n\n        _mint(msg.sender, _id);\n\n        // MintExitsTrue\n        _kryptoBirdzExists[_kryptoBird] = true;\n    }\n\n    // ERC721Metadatanamesymbol\n    constructor() ERC721Connector('KryptoBird', 'KBIRDZ') {}\n\n\n}\n\n\n",
  "sourcePath": "/Users/takagihrs/Desktop/MyProject/dapp/nft-marketplace/src/contracts/KryptoBirdz.sol",
  "compiler": {
    "name": "solc",
    "version": "0.8.15+commit.e14f2714.Emscripten.clang"
  },
  "schemaVersion": "3.4.7",
  "updatedAt": "2022-06-19T13:13:14.845Z",
  "networkType": "ethereum",
  "devdoc": {
    "kind": "dev",
    "methods": {},
    "version": 1
  },
  "userdoc": {
    "kind": "user",
    "methods": {},
    "version": 1
  }
}