{
  "contractName": "MyNFT",
  "abi": [
    {
      "inputs": [],
      "stateMutability": "nonpayable",
      "type": "constructor"
    },
    {
      "anonymous": false,
      "inputs": [
        {
          "indexed": true,
          "internalType": "address",
          "name": "owner",
          "type": "address"
        },
        {
          "indexed": true,
          "internalType": "address",
          "name": "approved",
          "type": "address"
        },
        {
          "indexed": true,
          "internalType": "uint256",
          "name": "tokenId",
          "type": "uint256"
        }
      ],
      "name": "Approval",
      "type": "event"
    },
    {
      "anonymous": false,
      "inputs": [
        {
          "indexed": true,
          "internalType": "address",
          "name": "owner",
          "type": "address"
        },
        {
          "indexed": true,
          "internalType": "address",
          "name": "operator",
          "type": "address"
        },
        {
          "indexed": false,
          "internalType": "bool",
          "name": "approved",
          "type": "bool"
        }
      ],
      "name": "ApprovalForAll",
      "type": "event"
    },
    {
      "anonymous": false,
      "inputs": [
        {
          "indexed": true,
          "internalType": "address",
          "name": "previousOwner",
          "type": "address"
        },
        {
          "indexed": true,
          "internalType": "address",
          "name": "newOwner",
          "type": "address"
        }
      ],
      "name": "OwnershipTransferred",
      "type": "event"
    },
    {
      "anonymous": false,
      "inputs": [
        {
          "indexed": true,
          "internalType": "address",
          "name": "from",
          "type": "address"
        },
        {
          "indexed": true,
          "internalType": "address",
          "name": "to",
          "type": "address"
        },
        {
          "indexed": true,
          "internalType": "uint256",
          "name": "tokenId",
          "type": "uint256"
        }
      ],
      "name": "Transfer",
      "type": "event"
    },
    {
      "inputs": [
        {
          "internalType": "address",
          "name": "to",
          "type": "address"
        },
        {
          "internalType": "uint256",
          "name": "tokenId",
          "type": "uint256"
        }
      ],
      "name": "approve",
      "outputs": [],
      "stateMutability": "nonpayable",
      "type": "function"
    },
    {
      "inputs": [
        {
          "internalType": "address",
          "name": "owner",
          "type": "address"
        }
      ],
      "name": "balanceOf",
      "outputs": [
        {
          "internalType": "uint256",
          "name": "",
          "type": "uint256"
        }
      ],
      "stateMutability": "view",
      "type": "function"
    },
    {
      "inputs": [
        {
          "internalType": "uint256",
          "name": "tokenId",
          "type": "uint256"
        }
      ],
      "name": "getApproved",
      "outputs": [
        {
          "internalType": "address",
          "name": "",
          "type": "address"
        }
      ],
      "stateMutability": "view",
      "type": "function"
    },
    {
      "inputs": [
        {
          "internalType": "address",
          "name": "owner",
          "type": "address"
        },
        {
          "internalType": "address",
          "name": "operator",
          "type": "address"
        }
      ],
      "name": "isApprovedForAll",
      "outputs": [
        {
          "internalType": "bool",
          "name": "",
          "type": "bool"
        }
      ],
      "stateMutability": "view",
      "type": "function"
    },
    {
      "inputs": [],
      "name": "name",
      "outputs": [
        {
          "internalType": "string",
          "name": "",
          "type": "string"
        }
      ],
      "stateMutability": "view",
      "type": "function"
    },
    {
      "inputs": [],
      "name": "owner",
      "outputs": [
        {
          "internalType": "address",
          "name": "",
          "type": "address"
        }
      ],
      "stateMutability": "view",
      "type": "function"
    },
    {
      "inputs": [
        {
          "internalType": "uint256",
          "name": "tokenId",
          "type": "uint256"
        }
      ],
      "name": "ownerOf",
      "outputs": [
        {
          "internalType": "address",
          "name": "",
          "type": "address"
        }
      ],
      "stateMutability": "view",
      "type": "function"
    },
    {
      "inputs": [],
      "name": "renounceOwnership",
      "outputs": [],
      "stateMutability": "nonpayable",
      "type": "function"
    },
    {
      "inputs": [
        {
          "internalType": "address",
          "name": "from",
          "type": "address"
        },
        {
          "internalType": "address",
          "name": "to",
          "type": "address"
        },
        {
          "internalType": "uint256",
          "name": "tokenId",
          "type": "uint256"
        }
      ],
      "name": "safeTransferFrom",
      "outputs": [],
      "stateMutability": "nonpayable",
      "type": "function"
    },
    {
      "inputs": [
        {
          "internalType": "address",
          "name": "from",
          "type": "address"
        },
        {
          "internalType": "address",
          "name": "to",
          "type": "address"
        },
        {
          "internalType": "uint256",
          "name": "tokenId",
          "type": "uint256"
        },
        {
          "internalType": "bytes",
          "name": "_data",
          "type": "bytes"
        }
      ],
      "name": "safeTransferFrom",
      "outputs": [],
      "stateMutability": "nonpayable",
      "type": "function"
    },
    {
      "inputs": [
        {
          "internalType": "address",
          "name": "operator",
          "type": "address"
        },
        {
          "internalType": "bool",
          "name": "approved",
          "type": "bool"
        }
      ],
      "name": "setApprovalForAll",
      "outputs": [],
      "stateMutability": "nonpayable",
      "type": "function"
    },
    {
      "inputs": [
        {
          "internalType": "bytes4",
          "name": "interfaceId",
          "type": "bytes4"
        }
      ],
      "name": "supportsInterface",
      "outputs": [
        {
          "internalType": "bool",
          "name": "",
          "type": "bool"
        }
      ],
      "stateMutability": "view",
      "type": "function"
    },
    {
      "inputs": [],
      "name": "symbol",
      "outputs": [
        {
          "internalType": "string",
          "name": "",
          "type": "string"
        }
      ],
      "stateMutability": "view",
      "type": "function"
    },
    {
      "inputs": [
        {
          "internalType": "uint256",
          "name": "tokenId",
          "type": "uint256"
        }
      ],
      "name": "tokenURI",
      "outputs": [
        {
          "internalType": "string",
          "name": "",
          "type": "string"
        }
      ],
      "stateMutability": "view",
      "type": "function"
    },
    {
      "inputs": [
        {
          "internalType": "address",
          "name": "from",
          "type": "address"
        },
        {
          "internalType": "address",
          "name": "to",
          "type": "address"
        },
        {
          "internalType": "uint256",
          "name": "tokenId",
          "type": "uint256"
        }
      ],
      "name": "transferFrom",
      "outputs": [],
      "stateMutability": "nonpayable",
      "type": "function"
    },
    {
      "inputs": [
        {
          "internalType": "address",
          "name": "newOwner",
          "type": "address"
        }
      ],
      "name": "transferOwnership",
      "outputs": [],
      "stateMutability": "nonpayable",
      "type": "function"
    },
    {
      "inputs": [
        {
          "internalType": "string",
          "name": "_tokenURI",
          "type": "string"
        }
      ],
      "name": "createAvatar",
      "outputs": [
        {
          "internalType": "uint256",
          "name": "",
          "type": "uint256"
        }
      ],
      "stateMutability": "nonpayable",
      "type": "function"
    },
    {
      "inputs": [
        {
          "internalType": "address",
          "name": "to",
          "type": "address"
        },
        {
          "internalType": "uint256",
          "name": "tokenId",
          "type": "uint256"
        }
      ],
      "name": "transferAvatar",
      "outputs": [],
      "stateMutability": "nonpayable",
      "type": "function"
    }
  ],
  "bytecode": "0x60806040523480156200001157600080fd5b506040518060400160405280600781526020017f4176617461727a000000000000000000000000000000000000000000000000008152506040518060400160405280600381526020017f415654000000000000000000000000000000000000000000000000000000000081525081600090816200008f919062000412565b508060019081620000a1919062000412565b505050620000c4620000b8620000ca60201b60201c565b620000d260201b60201c565b620004f9565b600033905090565b6000600760009054906101000a900473ffffffffffffffffffffffffffffffffffffffff16905081600760006101000a81548173ffffffffffffffffffffffffffffffffffffffff021916908373ffffffffffffffffffffffffffffffffffffffff1602179055508173ffffffffffffffffffffffffffffffffffffffff168173ffffffffffffffffffffffffffffffffffffffff167f8be0079c531659141344cd1fd0a4f28419497f9722a3daafe3b4186f6b6457e060405160405180910390a35050565b600081519050919050565b7f4e487b7100000000000000000000000000000000000000000000000000000000600052604160045260246000fd5b7f4e487b7100000000000000000000000000000000000000000000000000000000600052602260045260246000fd5b600060028204905060018216806200021a57607f821691505b60208210810362000230576200022f620001d2565b5b50919050565b60008190508160005260206000209050919050565b60006020601f8301049050919050565b600082821b905092915050565b6000600883026200029a7fffffffffffffffffffffffffffffffffffffffffffffffffffffffffffffffff826200025b565b620002a686836200025b565b95508019841693508086168417925050509392505050565b6000819050919050565b6000819050919050565b6000620002f3620002ed620002e784620002be565b620002c8565b620002be565b9050919050565b6000819050919050565b6200030f83620002d2565b620003276200031e82620002fa565b84845462000268565b825550505050565b600090565b6200033e6200032f565b6200034b81848462000304565b505050565b5b8181101562000373576200036760008262000334565b60018101905062000351565b5050565b601f821115620003c2576200038c8162000236565b62000397846200024b565b81016020851015620003a7578190505b620003bf620003b6856200024b565b83018262000350565b50505b505050565b600082821c905092915050565b6000620003e760001984600802620003c7565b1980831691505092915050565b6000620004028383620003d4565b9150826002028217905092915050565b6200041d8262000198565b67ffffffffffffffff811115620004395762000438620001a3565b5b62000445825462000201565b6200045282828562000377565b600060209050601f8311600181146200048a576000841562000475578287015190505b620004818582620003f4565b865550620004f1565b601f1984166200049a8662000236565b60005b82811015620004c4578489015182556001820191506020850194506020810190506200049d565b86831015620004e45784890151620004e0601f891682620003d4565b8355505b6001600288020188555050505b505050505050565b61333680620005096000396000f3fe608060405234801561001057600080fd5b50600436106101165760003560e01c806370a08231116100a2578063a22cb46511610071578063a22cb465146102df578063b88d4fde146102fb578063c87b56dd14610317578063e985e9c514610347578063f2fde38b1461037757610116565b806370a0823114610269578063715018a6146102995780638da5cb5b146102a357806395d89b41146102c157610116565b8063095ea7b3116100e9578063095ea7b3146101b557806323b872dd146101d157806342842e0e146101ed57806346fd1fd0146102095780636352211e1461023957610116565b806301ffc9a71461011b57806306fdde031461014b578063081812fc1461016957806308a6a47314610199575b600080fd5b61013560048036038101906101309190611cca565b610393565b6040516101429190611d12565b60405180910390f35b610153610475565b6040516101609190611dbd565b60405180910390f35b610183600480360381019061017e9190611e15565b610507565b6040516101909190611e83565b60405180910390f35b6101b360048036038101906101ae9190611eca565b61058c565b005b6101cf60048036038101906101ca9190611eca565b61069d565b005b6101eb60048036038101906101e69190611f0a565b6107b4565b005b61020760048036038101906102029190611f0a565b610814565b005b610223600480360381019061021e9190612092565b610834565b60405161023091906120ea565b60405180910390f35b610253600480360381019061024e9190611e15565b6108e7565b6040516102609190611e83565b60405180910390f35b610283600480360381019061027e9190612105565b610998565b60405161029091906120ea565b60405180910390f35b6102a1610a4f565b005b6102ab610ad7565b6040516102b89190611e83565b60405180910390f35b6102c9610b01565b6040516102d69190611dbd565b60405180910390f35b6102f960048036038101906102f4919061215e565b610b93565b005b6103156004803603810190610310919061223f565b610d13565b005b610331600480360381019061032c9190611e15565b610d75565b60405161033e9190611dbd565b60405180910390f35b610361600480360381019061035c91906122c2565b610ec6565b60405161036e9190611d12565b60405180910390f35b610391600480360381019061038c9190612105565b610f5a565b005b60007f80ac58cd000000000000000000000000000000000000000000000000000000007bffffffffffffffffffffffffffffffffffffffffffffffffffffffff1916827bffffffffffffffffffffffffffffffffffffffffffffffffffffffff1916148061045e57507f5b5e139f000000000000000000000000000000000000000000000000000000007bffffffffffffffffffffffffffffffffffffffffffffffffffffffff1916827bffffffffffffffffffffffffffffffffffffffffffffffffffffffff1916145b8061046e575061046d82611051565b5b9050919050565b60606000805461048490612331565b80601f01602080910402602001604051908101604052809291908181526020018280546104b090612331565b80156104fd5780601f106104d2576101008083540402835291602001916104fd565b820191906000526020600020905b8154815290600101906020018083116104e057829003601f168201915b5050505050905090565b6000610512826110bb565b610551576040517f08c379a0000000000000000000000000000000000000000000000000000000008152600401610548906123d4565b60405180910390fd5b6004600083815260200190815260200160002060009054906101000a900473ffffffffffffffffffffffffffffffffffffffff169050919050565b610594611127565b73ffffffffffffffffffffffffffffffffffffffff166105b2610ad7565b73ffffffffffffffffffffffffffffffffffffffff1614610608576040517f08c379a00000000000000000000000000000000000000000000000000000000081526004016105ff90612440565b60405180910390fd5b8173ffffffffffffffffffffffffffffffffffffffff16610628826108e7565b73ffffffffffffffffffffffffffffffffffffffff160361067e576040517f08c379a0000000000000000000000000000000000000000000000000000000008152600401610675906124d2565b60405180910390fd5b6106993383836040518060200160405280600081525061112f565b5050565b60006106a8826108e7565b90508073ffffffffffffffffffffffffffffffffffffffff168373ffffffffffffffffffffffffffffffffffffffff1603610718576040517f08c379a000000000000000000000000000000000000000000000000000000000815260040161070f90612564565b60405180910390fd5b8073ffffffffffffffffffffffffffffffffffffffff16610737611127565b73ffffffffffffffffffffffffffffffffffffffff161480610766575061076581610760611127565b610ec6565b5b6107a5576040517f08c379a000000000000000000000000000000000000000000000000000000000815260040161079c906125f6565b60405180910390fd5b6107af838361118b565b505050565b6107c56107bf611127565b82611244565b610804576040517f08c379a00000000000000000000000000000000000000000000000000000000081526004016107fb90612688565b60405180910390fd5b61080f838383611322565b505050565b61082f83838360405180602001604052806000815250610d13565b505050565b600061083e611127565b73ffffffffffffffffffffffffffffffffffffffff1661085c610ad7565b73ffffffffffffffffffffffffffffffffffffffff16146108b2576040517f08c379a00000000000000000000000000000000000000000000000000000000081526004016108a990612440565b60405180910390fd5b6108bc600861157d565b60006108c86008611593565b90506108d433826115a1565b6108de818461176e565b80915050919050565b6000806002600084815260200190815260200160002060009054906101000a900473ffffffffffffffffffffffffffffffffffffffff169050600073ffffffffffffffffffffffffffffffffffffffff168173ffffffffffffffffffffffffffffffffffffffff160361098f576040517f08c379a00000000000000000000000000000000000000000000000000000000081526004016109869061271a565b60405180910390fd5b80915050919050565b60008073ffffffffffffffffffffffffffffffffffffffff168273ffffffffffffffffffffffffffffffffffffffff1603610a08576040517f08c379a00000000000000000000000000000000000000000000000000000000081526004016109ff906127ac565b60405180910390fd5b600360008373ffffffffffffffffffffffffffffffffffffffff1673ffffffffffffffffffffffffffffffffffffffff168152602001908152602001600020549050919050565b610a57611127565b73ffffffffffffffffffffffffffffffffffffffff16610a75610ad7565b73ffffffffffffffffffffffffffffffffffffffff1614610acb576040517f08c379a0000000000000000000000000000000000000000000000000000000008152600401610ac290612440565b60405180910390fd5b610ad560006117db565b565b6000600760009054906101000a900473ffffffffffffffffffffffffffffffffffffffff16905090565b606060018054610b1090612331565b80601f0160208091040260200160405190810160405280929190818152602001828054610b3c90612331565b8015610b895780601f10610b5e57610100808354040283529160200191610b89565b820191906000526020600020905b815481529060010190602001808311610b6c57829003601f168201915b5050505050905090565b610b9b611127565b73ffffffffffffffffffffffffffffffffffffffff168273ffffffffffffffffffffffffffffffffffffffff1603610c08576040517f08c379a0000000000000000000000000000000000000000000000000000000008152600401610bff90612818565b60405180910390fd5b8060056000610c15611127565b73ffffffffffffffffffffffffffffffffffffffff1673ffffffffffffffffffffffffffffffffffffffff16815260200190815260200160002060008473ffffffffffffffffffffffffffffffffffffffff1673ffffffffffffffffffffffffffffffffffffffff16815260200190815260200160002060006101000a81548160ff0219169083151502179055508173ffffffffffffffffffffffffffffffffffffffff16610cc2611127565b73ffffffffffffffffffffffffffffffffffffffff167f17307eab39ab6107e8899845ad3d59bd9653f200f220920489ca2b5937696c3183604051610d079190611d12565b60405180910390a35050565b610d24610d1e611127565b83611244565b610d63576040517f08c379a0000000000000000000000000000000000000000000000000000000008152600401610d5a90612688565b60405180910390fd5b610d6f8484848461112f565b50505050565b6060610d80826110bb565b610dbf576040517f08c379a0000000000000000000000000000000000000000000000000000000008152600401610db6906128aa565b60405180910390fd5b6000600660008481526020019081526020016000208054610ddf90612331565b80601f0160208091040260200160405190810160405280929190818152602001828054610e0b90612331565b8015610e585780601f10610e2d57610100808354040283529160200191610e58565b820191906000526020600020905b815481529060010190602001808311610e3b57829003601f168201915b505050505090506000610e696118a1565b90506000815103610e7e578192505050610ec1565b600082511115610eb3578082604051602001610e9b929190612906565b60405160208183030381529060405292505050610ec1565b610ebc846118b8565b925050505b919050565b6000600560008473ffffffffffffffffffffffffffffffffffffffff1673ffffffffffffffffffffffffffffffffffffffff16815260200190815260200160002060008373ffffffffffffffffffffffffffffffffffffffff1673ffffffffffffffffffffffffffffffffffffffff16815260200190815260200160002060009054906101000a900460ff16905092915050565b610f62611127565b73ffffffffffffffffffffffffffffffffffffffff16610f80610ad7565b73ffffffffffffffffffffffffffffffffffffffff1614610fd6576040517f08c379a0000000000000000000000000000000000000000000000000000000008152600401610fcd90612440565b60405180910390fd5b600073ffffffffffffffffffffffffffffffffffffffff168173ffffffffffffffffffffffffffffffffffffffff1603611045576040517f08c379a000000000000000000000000000000000000000000000000000000000815260040161103c9061299c565b60405180910390fd5b61104e816117db565b50565b60007f01ffc9a7000000000000000000000000000000000000000000000000000000007bffffffffffffffffffffffffffffffffffffffffffffffffffffffff1916827bffffffffffffffffffffffffffffffffffffffffffffffffffffffff1916149050919050565b60008073ffffffffffffffffffffffffffffffffffffffff166002600084815260200190815260200160002060009054906101000a900473ffffffffffffffffffffffffffffffffffffffff1673ffffffffffffffffffffffffffffffffffffffff1614159050919050565b600033905090565b61113a848484611322565b6111468484848461195f565b611185576040517f08c379a000000000000000000000000000000000000000000000000000000000815260040161117c90612a2e565b60405180910390fd5b50505050565b816004600083815260200190815260200160002060006101000a81548173ffffffffffffffffffffffffffffffffffffffff021916908373ffffffffffffffffffffffffffffffffffffffff160217905550808273ffffffffffffffffffffffffffffffffffffffff166111fe836108e7565b73ffffffffffffffffffffffffffffffffffffffff167f8c5be1e5ebec7d5bd14f71427d1e84f3dd0314c0f7b2291e5b200ac8c7c3b92560405160405180910390a45050565b600061124f826110bb565b61128e576040517f08c379a000000000000000000000000000000000000000000000000000000000815260040161128590612ac0565b60405180910390fd5b6000611299836108e7565b90508073ffffffffffffffffffffffffffffffffffffffff168473ffffffffffffffffffffffffffffffffffffffff16148061130857508373ffffffffffffffffffffffffffffffffffffffff166112f084610507565b73ffffffffffffffffffffffffffffffffffffffff16145b8061131957506113188185610ec6565b5b91505092915050565b8273ffffffffffffffffffffffffffffffffffffffff16611342826108e7565b73ffffffffffffffffffffffffffffffffffffffff1614611398576040517f08c379a000000000000000000000000000000000000000000000000000000000815260040161138f90612b52565b60405180910390fd5b600073ffffffffffffffffffffffffffffffffffffffff168273ffffffffffffffffffffffffffffffffffffffff1603611407576040517f08c379a00000000000000000000000000000000000000000000000000000000081526004016113fe90612be4565b60405180910390fd5b611412838383611ae6565b61141d60008261118b565b6001600360008573ffffffffffffffffffffffffffffffffffffffff1673ffffffffffffffffffffffffffffffffffffffff168152602001908152602001600020600082825461146d9190612c33565b925050819055506001600360008473ffffffffffffffffffffffffffffffffffffffff1673ffffffffffffffffffffffffffffffffffffffff16815260200190815260200160002060008282546114c49190612c67565b92505081905550816002600083815260200190815260200160002060006101000a81548173ffffffffffffffffffffffffffffffffffffffff021916908373ffffffffffffffffffffffffffffffffffffffff160217905550808273ffffffffffffffffffffffffffffffffffffffff168473ffffffffffffffffffffffffffffffffffffffff167fddf252ad1be2c89b69c2b068fc378daa952ba7f163c4a11628f55a4df523b3ef60405160405180910390a4505050565b6001816000016000828254019250508190555050565b600081600001549050919050565b600073ffffffffffffffffffffffffffffffffffffffff168273ffffffffffffffffffffffffffffffffffffffff1603611610576040517f08c379a000000000000000000000000000000000000000000000000000000000815260040161160790612ce7565b60405180910390fd5b611619816110bb565b15611659576040517f08c379a000000000000000000000000000000000000000000000000000000000815260040161165090612d53565b60405180910390fd5b61166560008383611ae6565b6001600360008473ffffffffffffffffffffffffffffffffffffffff1673ffffffffffffffffffffffffffffffffffffffff16815260200190815260200160002060008282546116b59190612c67565b92505081905550816002600083815260200190815260200160002060006101000a81548173ffffffffffffffffffffffffffffffffffffffff021916908373ffffffffffffffffffffffffffffffffffffffff160217905550808273ffffffffffffffffffffffffffffffffffffffff16600073ffffffffffffffffffffffffffffffffffffffff167fddf252ad1be2c89b69c2b068fc378daa952ba7f163c4a11628f55a4df523b3ef60405160405180910390a45050565b611777826110bb565b6117b6576040517f08c379a00000000000000000000000000000000000000000000000000000000081526004016117ad90612de5565b60405180910390fd5b806006600084815260200190815260200160002090816117d69190612fb1565b505050565b6000600760009054906101000a900473ffffffffffffffffffffffffffffffffffffffff16905081600760006101000a81548173ffffffffffffffffffffffffffffffffffffffff021916908373ffffffffffffffffffffffffffffffffffffffff1602179055508173ffffffffffffffffffffffffffffffffffffffff168173ffffffffffffffffffffffffffffffffffffffff167f8be0079c531659141344cd1fd0a4f28419497f9722a3daafe3b4186f6b6457e060405160405180910390a35050565b606060405180602001604052806000815250905090565b60606118c3826110bb565b611902576040517f08c379a00000000000000000000000000000000000000000000000000000000081526004016118f9906130f5565b60405180910390fd5b600061190c6118a1565b9050600081511161192c5760405180602001604052806000815250611957565b8061193684611aeb565b604051602001611947929190612906565b6040516020818303038152906040525b915050919050565b60006119808473ffffffffffffffffffffffffffffffffffffffff16611c4b565b15611ad9578373ffffffffffffffffffffffffffffffffffffffff1663150b7a026119a9611127565b8786866040518563ffffffff1660e01b81526004016119cb949392919061316a565b6020604051808303816000875af1925050508015611a0757506040513d601f19601f82011682018060405250810190611a0491906131cb565b60015b611a89573d8060008114611a37576040519150601f19603f3d011682016040523d82523d6000602084013e611a3c565b606091505b506000815103611a81576040517f08c379a0000000000000000000000000000000000000000000000000000000008152600401611a7890612a2e565b60405180910390fd5b805181602001fd5b63150b7a0260e01b7bffffffffffffffffffffffffffffffffffffffffffffffffffffffff1916817bffffffffffffffffffffffffffffffffffffffffffffffffffffffff191614915050611ade565b600190505b949350505050565b505050565b606060008203611b32576040518060400160405280600181526020017f30000000000000000000000000000000000000000000000000000000000000008152509050611c46565b600082905060005b60008214611b64578080611b4d906131f8565b915050600a82611b5d919061326f565b9150611b3a565b60008167ffffffffffffffff811115611b8057611b7f611f67565b5b6040519080825280601f01601f191660200182016040528015611bb25781602001600182028036833780820191505090505b5090505b60008514611c3f57600182611bcb9190612c33565b9150600a85611bda91906132a0565b6030611be69190612c67565b60f81b818381518110611bfc57611bfb6132d1565b5b60200101907effffffffffffffffffffffffffffffffffffffffffffffffffffffffffffff1916908160001a905350600a85611c38919061326f565b9450611bb6565b8093505050505b919050565b600080823b905060008111915050919050565b6000604051905090565b600080fd5b600080fd5b60007fffffffff0000000000000000000000000000000000000000000000000000000082169050919050565b611ca781611c72565b8114611cb257600080fd5b50565b600081359050611cc481611c9e565b92915050565b600060208284031215611ce057611cdf611c68565b5b6000611cee84828501611cb5565b91505092915050565b60008115159050919050565b611d0c81611cf7565b82525050565b6000602082019050611d276000830184611d03565b92915050565b600081519050919050565b600082825260208201905092915050565b60005b83811015611d67578082015181840152602081019050611d4c565b60008484015250505050565b6000601f19601f8301169050919050565b6000611d8f82611d2d565b611d998185611d38565b9350611da9818560208601611d49565b611db281611d73565b840191505092915050565b60006020820190508181036000830152611dd78184611d84565b905092915050565b6000819050919050565b611df281611ddf565b8114611dfd57600080fd5b50565b600081359050611e0f81611de9565b92915050565b600060208284031215611e2b57611e2a611c68565b5b6000611e3984828501611e00565b91505092915050565b600073ffffffffffffffffffffffffffffffffffffffff82169050919050565b6000611e6d82611e42565b9050919050565b611e7d81611e62565b82525050565b6000602082019050611e986000830184611e74565b92915050565b611ea781611e62565b8114611eb257600080fd5b50565b600081359050611ec481611e9e565b92915050565b60008060408385031215611ee157611ee0611c68565b5b6000611eef85828601611eb5565b9250506020611f0085828601611e00565b9150509250929050565b600080600060608486031215611f2357611f22611c68565b5b6000611f3186828701611eb5565b9350506020611f4286828701611eb5565b9250506040611f5386828701611e00565b9150509250925092565b600080fd5b600080fd5b7f4e487b7100000000000000000000000000000000000000000000000000000000600052604160045260246000fd5b611f9f82611d73565b810181811067ffffffffffffffff82111715611fbe57611fbd611f67565b5b80604052505050565b6000611fd1611c5e565b9050611fdd8282611f96565b919050565b600067ffffffffffffffff821115611ffd57611ffc611f67565b5b61200682611d73565b9050602081019050919050565b82818337600083830152505050565b600061203561203084611fe2565b611fc7565b90508281526020810184848401111561205157612050611f62565b5b61205c848285612013565b509392505050565b600082601f83011261207957612078611f5d565b5b8135612089848260208601612022565b91505092915050565b6000602082840312156120a8576120a7611c68565b5b600082013567ffffffffffffffff8111156120c6576120c5611c6d565b5b6120d284828501612064565b91505092915050565b6120e481611ddf565b82525050565b60006020820190506120ff60008301846120db565b92915050565b60006020828403121561211b5761211a611c68565b5b600061212984828501611eb5565b91505092915050565b61213b81611cf7565b811461214657600080fd5b50565b60008135905061215881612132565b92915050565b6000806040838503121561217557612174611c68565b5b600061218385828601611eb5565b925050602061219485828601612149565b9150509250929050565b600067ffffffffffffffff8211156121b9576121b8611f67565b5b6121c282611d73565b9050602081019050919050565b60006121e26121dd8461219e565b611fc7565b9050828152602081018484840111156121fe576121fd611f62565b5b612209848285612013565b509392505050565b600082601f83011261222657612225611f5d565b5b81356122368482602086016121cf565b91505092915050565b6000806000806080858703121561225957612258611c68565b5b600061226787828801611eb5565b945050602061227887828801611eb5565b935050604061228987828801611e00565b925050606085013567ffffffffffffffff8111156122aa576122a9611c6d565b5b6122b687828801612211565b91505092959194509250565b600080604083850312156122d9576122d8611c68565b5b60006122e785828601611eb5565b92505060206122f885828601611eb5565b9150509250929050565b7f4e487b7100000000000000000000000000000000000000000000000000000000600052602260045260246000fd5b6000600282049050600182168061234957607f821691505b60208210810361235c5761235b612302565b5b50919050565b7f4552433732313a20617070726f76656420717565727920666f72206e6f6e657860008201527f697374656e7420746f6b656e0000000000000000000000000000000000000000602082015250565b60006123be602c83611d38565b91506123c982612362565b604082019050919050565b600060208201905081810360008301526123ed816123b1565b9050919050565b7f4f776e61626c653a2063616c6c6572206973206e6f7420746865206f776e6572600082015250565b600061242a602083611d38565b9150612435826123f4565b602082019050919050565b600060208201905081810360008301526124598161241d565b9050919050565b7f796f752063616e6e6f74207472616e7366657220796f7572206f776e2041766160008201527f7461720000000000000000000000000000000000000000000000000000000000602082015250565b60006124bc602383611d38565b91506124c782612460565b604082019050919050565b600060208201905081810360008301526124eb816124af565b9050919050565b7f4552433732313a20617070726f76616c20746f2063757272656e74206f776e6560008201527f7200000000000000000000000000000000000000000000000000000000000000602082015250565b600061254e602183611d38565b9150612559826124f2565b604082019050919050565b6000602082019050818103600083015261257d81612541565b9050919050565b7f4552433732313a20617070726f76652063616c6c6572206973206e6f74206f7760008201527f6e6572206e6f7220617070726f76656420666f7220616c6c0000000000000000602082015250565b60006125e0603883611d38565b91506125eb82612584565b604082019050919050565b6000602082019050818103600083015261260f816125d3565b9050919050565b7f4552433732313a207472616e736665722063616c6c6572206973206e6f74206f60008201527f776e6572206e6f7220617070726f766564000000000000000000000000000000602082015250565b6000612672603183611d38565b915061267d82612616565b604082019050919050565b600060208201905081810360008301526126a181612665565b9050919050565b7f4552433732313a206f776e657220717565727920666f72206e6f6e657869737460008201527f656e7420746f6b656e0000000000000000000000000000000000000000000000602082015250565b6000612704602983611d38565b915061270f826126a8565b604082019050919050565b60006020820190508181036000830152612733816126f7565b9050919050565b7f4552433732313a2062616c616e636520717565727920666f7220746865207a6560008201527f726f206164647265737300000000000000000000000000000000000000000000602082015250565b6000612796602a83611d38565b91506127a18261273a565b604082019050919050565b600060208201905081810360008301526127c581612789565b9050919050565b7f4552433732313a20617070726f766520746f2063616c6c657200000000000000600082015250565b6000612802601983611d38565b915061280d826127cc565b602082019050919050565b60006020820190508181036000830152612831816127f5565b9050919050565b7f45524337323155524953746f726167653a2055524920717565727920666f722060008201527f6e6f6e6578697374656e7420746f6b656e000000000000000000000000000000602082015250565b6000612894603183611d38565b915061289f82612838565b604082019050919050565b600060208201905081810360008301526128c381612887565b9050919050565b600081905092915050565b60006128e082611d2d565b6128ea81856128ca565b93506128fa818560208601611d49565b80840191505092915050565b600061291282856128d5565b915061291e82846128d5565b91508190509392505050565b7f4f776e61626c653a206e6577206f776e657220697320746865207a65726f206160008201527f6464726573730000000000000000000000000000000000000000000000000000602082015250565b6000612986602683611d38565b91506129918261292a565b604082019050919050565b600060208201905081810360008301526129b581612979565b9050919050565b7f4552433732313a207472616e7366657220746f206e6f6e20455243373231526560008201527f63656976657220696d706c656d656e7465720000000000000000000000000000602082015250565b6000612a18603283611d38565b9150612a23826129bc565b604082019050919050565b60006020820190508181036000830152612a4781612a0b565b9050919050565b7f4552433732313a206f70657261746f7220717565727920666f72206e6f6e657860008201527f697374656e7420746f6b656e0000000000000000000000000000000000000000602082015250565b6000612aaa602c83611d38565b9150612ab582612a4e565b604082019050919050565b60006020820190508181036000830152612ad981612a9d565b9050919050565b7f4552433732313a207472616e73666572206f6620746f6b656e2074686174206960008201527f73206e6f74206f776e0000000000000000000000000000000000000000000000602082015250565b6000612b3c602983611d38565b9150612b4782612ae0565b604082019050919050565b60006020820190508181036000830152612b6b81612b2f565b9050919050565b7f4552433732313a207472616e7366657220746f20746865207a65726f2061646460008201527f7265737300000000000000000000000000000000000000000000000000000000602082015250565b6000612bce602483611d38565b9150612bd982612b72565b604082019050919050565b60006020820190508181036000830152612bfd81612bc1565b9050919050565b7f4e487b7100000000000000000000000000000000000000000000000000000000600052601160045260246000fd5b6000612c3e82611ddf565b9150612c4983611ddf565b9250828203905081811115612c6157612c60612c04565b5b92915050565b6000612c7282611ddf565b9150612c7d83611ddf565b9250828201905080821115612c9557612c94612c04565b5b92915050565b7f4552433732313a206d696e7420746f20746865207a65726f2061646472657373600082015250565b6000612cd1602083611d38565b9150612cdc82612c9b565b602082019050919050565b60006020820190508181036000830152612d0081612cc4565b9050919050565b7f4552433732313a20746f6b656e20616c7265616479206d696e74656400000000600082015250565b6000612d3d601c83611d38565b9150612d4882612d07565b602082019050919050565b60006020820190508181036000830152612d6c81612d30565b9050919050565b7f45524337323155524953746f726167653a2055524920736574206f66206e6f6e60008201527f6578697374656e7420746f6b656e000000000000000000000000000000000000602082015250565b6000612dcf602e83611d38565b9150612dda82612d73565b604082019050919050565b60006020820190508181036000830152612dfe81612dc2565b9050919050565b60008190508160005260206000209050919050565b60006020601f8301049050919050565b600082821b905092915050565b600060088302612e677fffffffffffffffffffffffffffffffffffffffffffffffffffffffffffffffff82612e2a565b612e718683612e2a565b95508019841693508086168417925050509392505050565b6000819050919050565b6000612eae612ea9612ea484611ddf565b612e89565b611ddf565b9050919050565b6000819050919050565b612ec883612e93565b612edc612ed482612eb5565b848454612e37565b825550505050565b600090565b612ef1612ee4565b612efc818484612ebf565b505050565b5b81811015612f2057612f15600082612ee9565b600181019050612f02565b5050565b601f821115612f6557612f3681612e05565b612f3f84612e1a565b81016020851015612f4e578190505b612f62612f5a85612e1a565b830182612f01565b50505b505050565b600082821c905092915050565b6000612f8860001984600802612f6a565b1980831691505092915050565b6000612fa18383612f77565b9150826002028217905092915050565b612fba82611d2d565b67ffffffffffffffff811115612fd357612fd2611f67565b5b612fdd8254612331565b612fe8828285612f24565b600060209050601f83116001811461301b5760008415613009578287015190505b6130138582612f95565b86555061307b565b601f19841661302986612e05565b60005b828110156130515784890151825560018201915060208501945060208101905061302c565b8683101561306e578489015161306a601f891682612f77565b8355505b6001600288020188555050505b505050505050565b7f4552433732314d657461646174613a2055524920717565727920666f72206e6f60008201527f6e6578697374656e7420746f6b656e0000000000000000000000000000000000602082015250565b60006130df602f83611d38565b91506130ea82613083565b604082019050919050565b6000602082019050818103600083015261310e816130d2565b9050919050565b600081519050919050565b600082825260208201905092915050565b600061313c82613115565b6131468185613120565b9350613156818560208601611d49565b61315f81611d73565b840191505092915050565b600060808201905061317f6000830187611e74565b61318c6020830186611e74565b61319960408301856120db565b81810360608301526131ab8184613131565b905095945050505050565b6000815190506131c581611c9e565b92915050565b6000602082840312156131e1576131e0611c68565b5b60006131ef848285016131b6565b91505092915050565b600061320382611ddf565b91507fffffffffffffffffffffffffffffffffffffffffffffffffffffffffffffffff820361323557613234612c04565b5b600182019050919050565b7f4e487b7100000000000000000000000000000000000000000000000000000000600052601260045260246000fd5b600061327a82611ddf565b915061328583611ddf565b92508261329557613294613240565b5b828204905092915050565b60006132ab82611ddf565b91506132b683611ddf565b9250826132c6576132c5613240565b5b828206905092915050565b7f4e487b7100000000000000000000000000000000000000000000000000000000600052603260045260246000fdfea2646970667358221220904785e1e059d2ca5c731315b5be6c6ddb022037315eaf54931fc07ab3cb784c64736f6c63430008110033",
  "immutableReferences": {},
  "source": "// SPDX-License-Identifier: MIT\r\npragma solidity ^0.8.0;\r\n\r\n// openzeppelinimport\r\nimport \"../../node_modules/@openzeppelin/contracts/token/ERC721/extensions/ERC721URIStorage.sol\";\r\nimport \"../../node_modules/@openzeppelin/contracts/access/Ownable.sol\";\r\nimport \"../../node_modules/@openzeppelin/contracts/utils/Counters.sol\";\r\n\r\ncontract MyNFT is ERC721URIStorage, Ownable {\r\n    using Counters for Counters.Counter;\r\n    Counters.Counter private _tokenIds;\r\n\r\n    constructor() ERC721(\"Avatarz\", \"AVT\"){}\r\n\r\n    // NFT\r\n    function createAvatar (string memory _tokenURI) public onlyOwner returns (uint256) {\r\n        _tokenIds.increment();\r\n\r\n        uint newTokenId = _tokenIds.current();\r\n        _mint(msg.sender, newTokenId);\r\n        _setTokenURI(newTokenId, _tokenURI);\r\n\r\n        return newTokenId;\r\n    }\r\n\r\n    // NFT\r\n    function transferAvatar (address to, uint256 tokenId) public onlyOwner {\r\n        require(ownerOf(tokenId) != to, \"you cannot transfer your own Avatar\");\r\n        _safeTransfer(msg.sender, to, tokenId, \"\");\r\n    }\r\n\r\n}\r\n",
  "sourcePath": "/home/takagihrs/myProject/dapp/nft-marketplace/src/contracts/AvatarFactory.sol",
  "compiler": {
    "name": "solc",
    "version": "0.8.17+commit.8df45f5f.Emscripten.clang"
  },
  "schemaVersion": "3.4.7",
  "updatedAt": "2022-09-18T01:13:25.073Z",
  "devdoc": {
    "kind": "dev",
    "methods": {
      "approve(address,uint256)": {
        "details": "See {IERC721-approve}."
      },
      "balanceOf(address)": {
        "details": "See {IERC721-balanceOf}."
      },
      "getApproved(uint256)": {
        "details": "See {IERC721-getApproved}."
      },
      "isApprovedForAll(address,address)": {
        "details": "See {IERC721-isApprovedForAll}."
      },
      "name()": {
        "details": "See {IERC721Metadata-name}."
      },
      "owner()": {
        "details": "Returns the address of the current owner."
      },
      "ownerOf(uint256)": {
        "details": "See {IERC721-ownerOf}."
      },
      "renounceOwnership()": {
        "details": "Leaves the contract without owner. It will not be possible to call `onlyOwner` functions anymore. Can only be called by the current owner. NOTE: Renouncing ownership will leave the contract without an owner, thereby removing any functionality that is only available to the owner."
      },
      "safeTransferFrom(address,address,uint256)": {
        "details": "See {IERC721-safeTransferFrom}."
      },
      "safeTransferFrom(address,address,uint256,bytes)": {
        "details": "See {IERC721-safeTransferFrom}."
      },
      "setApprovalForAll(address,bool)": {
        "details": "See {IERC721-setApprovalForAll}."
      },
      "supportsInterface(bytes4)": {
        "details": "See {IERC165-supportsInterface}."
      },
      "symbol()": {
        "details": "See {IERC721Metadata-symbol}."
      },
      "tokenURI(uint256)": {
        "details": "See {IERC721Metadata-tokenURI}."
      },
      "transferFrom(address,address,uint256)": {
        "details": "See {IERC721-transferFrom}."
      },
      "transferOwnership(address)": {
        "details": "Transfers ownership of the contract to a new account (`newOwner`). Can only be called by the current owner."
      }
    },
    "version": 1
  },
  "userdoc": {
    "kind": "user",
    "methods": {},
    "version": 1
  }
}